{
  "_format": "hh-sol-artifact-1",
  "contractName": "NFTMarketplace",
  "sourceName": "contracts/NFTMarketplace.sol",
  "abi": [
    {
      "inputs": [],
      "stateMutability": "nonpayable",
      "type": "constructor"
    },
    {
      "anonymous": false,
      "inputs": [
        {
          "indexed": true,
          "internalType": "address",
          "name": "owner",
          "type": "address"
        },
        {
          "indexed": true,
          "internalType": "address",
          "name": "approved",
          "type": "address"
        },
        {
          "indexed": true,
          "internalType": "uint256",
          "name": "tokenId",
          "type": "uint256"
        }
      ],
      "name": "Approval",
      "type": "event"
    },
    {
      "anonymous": false,
      "inputs": [
        {
          "indexed": true,
          "internalType": "address",
          "name": "owner",
          "type": "address"
        },
        {
          "indexed": true,
          "internalType": "address",
          "name": "operator",
          "type": "address"
        },
        {
          "indexed": false,
          "internalType": "bool",
          "name": "approved",
          "type": "bool"
        }
      ],
      "name": "ApprovalForAll",
      "type": "event"
    },
    {
      "anonymous": false,
      "inputs": [
        {
          "indexed": false,
          "internalType": "uint256",
          "name": "_fromTokenId",
          "type": "uint256"
        },
        {
          "indexed": false,
          "internalType": "uint256",
          "name": "_toTokenId",
          "type": "uint256"
        }
      ],
      "name": "BatchMetadataUpdate",
      "type": "event"
    },
    {
      "anonymous": false,
      "inputs": [
        {
          "indexed": false,
          "internalType": "uint256",
          "name": "_tokenId",
          "type": "uint256"
        }
      ],
      "name": "MetadataUpdate",
      "type": "event"
    },
    {
      "anonymous": false,
      "inputs": [
        {
          "indexed": true,
          "internalType": "uint256",
          "name": "tokenId",
          "type": "uint256"
        },
        {
          "indexed": false,
          "internalType": "address",
          "name": "buyer",
          "type": "address"
        },
        {
          "indexed": false,
          "internalType": "address",
          "name": "seller",
          "type": "address"
        },
        {
          "indexed": false,
          "internalType": "uint256",
          "name": "price",
          "type": "uint256"
        }
      ],
      "name": "NFTSold",
      "type": "event"
    },
    {
      "anonymous": false,
      "inputs": [
        {
          "indexed": true,
          "internalType": "uint256",
          "name": "tokenId",
          "type": "uint256"
        },
        {
          "indexed": false,
          "internalType": "address",
          "name": "owner",
          "type": "address"
        },
        {
          "indexed": false,
          "internalType": "address",
          "name": "seller",
          "type": "address"
        },
        {
          "indexed": false,
          "internalType": "uint256",
          "name": "price",
          "type": "uint256"
        },
        {
          "indexed": false,
          "internalType": "bool",
          "name": "currentlyListed",
          "type": "bool"
        }
      ],
      "name": "TokenDeListedSuccess",
      "type": "event"
    },
    {
      "anonymous": false,
      "inputs": [
        {
          "indexed": true,
          "internalType": "uint256",
          "name": "tokenId",
          "type": "uint256"
        },
        {
          "indexed": false,
          "internalType": "address",
          "name": "owner",
          "type": "address"
        },
        {
          "indexed": false,
          "internalType": "address",
          "name": "seller",
          "type": "address"
        },
        {
          "indexed": false,
          "internalType": "uint256",
          "name": "price",
          "type": "uint256"
        },
        {
          "indexed": false,
          "internalType": "bool",
          "name": "currentlyListed",
          "type": "bool"
        }
      ],
      "name": "TokenListedSuccess",
      "type": "event"
    },
    {
      "anonymous": false,
      "inputs": [
        {
          "indexed": true,
          "internalType": "uint256",
          "name": "tokenId",
          "type": "uint256"
        },
        {
          "indexed": false,
          "internalType": "address",
          "name": "owner",
          "type": "address"
        },
        {
          "indexed": false,
          "internalType": "address",
          "name": "seller",
          "type": "address"
        },
        {
          "indexed": false,
          "internalType": "uint256",
          "name": "price",
          "type": "uint256"
        },
        {
          "indexed": false,
          "internalType": "bool",
          "name": "currentlyListed",
          "type": "bool"
        }
      ],
      "name": "TokenMintAndListSuccess",
      "type": "event"
    },
    {
      "anonymous": false,
      "inputs": [
        {
          "indexed": true,
          "internalType": "uint256",
          "name": "tokenId",
          "type": "uint256"
        },
        {
          "indexed": false,
          "internalType": "address",
          "name": "owner",
          "type": "address"
        },
        {
          "indexed": false,
          "internalType": "address",
          "name": "seller",
          "type": "address"
        },
        {
          "indexed": false,
          "internalType": "uint256",
          "name": "price",
          "type": "uint256"
        },
        {
          "indexed": false,
          "internalType": "bool",
          "name": "currentlyListed",
          "type": "bool"
        }
      ],
      "name": "TokenMintSuccess",
      "type": "event"
    },
    {
      "anonymous": false,
      "inputs": [
        {
          "indexed": true,
          "internalType": "address",
          "name": "from",
          "type": "address"
        },
        {
          "indexed": true,
          "internalType": "address",
          "name": "to",
          "type": "address"
        },
        {
          "indexed": true,
          "internalType": "uint256",
          "name": "tokenId",
          "type": "uint256"
        }
      ],
      "name": "Transfer",
      "type": "event"
    },
    {
      "inputs": [
        {
          "internalType": "address",
          "name": "to",
          "type": "address"
        },
        {
          "internalType": "uint256",
          "name": "tokenId",
          "type": "uint256"
        }
      ],
      "name": "approve",
      "outputs": [],
      "stateMutability": "nonpayable",
      "type": "function"
    },
    {
      "inputs": [
        {
          "internalType": "address",
          "name": "owner",
          "type": "address"
        }
      ],
      "name": "balanceOf",
      "outputs": [
        {
          "internalType": "uint256",
          "name": "",
          "type": "uint256"
        }
      ],
      "stateMutability": "view",
      "type": "function"
    },
    {
      "inputs": [
        {
          "internalType": "string",
          "name": "tokenURI",
          "type": "string"
        },
        {
          "internalType": "uint256",
          "name": "price",
          "type": "uint256"
        },
        {
          "internalType": "bool",
          "name": "listNFT",
          "type": "bool"
        }
      ],
      "name": "createToken",
      "outputs": [
        {
          "internalType": "uint256",
          "name": "",
          "type": "uint256"
        }
      ],
      "stateMutability": "payable",
      "type": "function"
    },
    {
      "inputs": [
        {
          "internalType": "uint256",
          "name": "tokenId",
          "type": "uint256"
        },
        {
          "internalType": "uint256",
          "name": "price",
          "type": "uint256"
        }
      ],
      "name": "delistTokenFromMarketplace",
      "outputs": [],
      "stateMutability": "nonpayable",
      "type": "function"
    },
    {
      "inputs": [
        {
          "internalType": "uint256",
          "name": "tokenId",
          "type": "uint256"
        }
      ],
      "name": "executeSale",
      "outputs": [],
      "stateMutability": "payable",
      "type": "function"
    },
    {
      "inputs": [],
      "name": "getAllNFTs",
      "outputs": [
        {
          "components": [
            {
              "internalType": "uint256",
              "name": "tokenId",
              "type": "uint256"
            },
            {
              "internalType": "address payable",
              "name": "owner",
              "type": "address"
            },
            {
              "internalType": "address payable",
              "name": "seller",
              "type": "address"
            },
            {
              "internalType": "uint256",
              "name": "price",
              "type": "uint256"
            },
            {
              "internalType": "bool",
              "name": "currentlyListed",
              "type": "bool"
            }
          ],
          "internalType": "struct NFTMarketplace.ListedToken[]",
          "name": "",
          "type": "tuple[]"
        }
      ],
      "stateMutability": "view",
      "type": "function"
    },
    {
      "inputs": [
        {
          "internalType": "uint256",
          "name": "tokenId",
          "type": "uint256"
        }
      ],
      "name": "getApproved",
      "outputs": [
        {
          "internalType": "address",
          "name": "",
          "type": "address"
        }
      ],
      "stateMutability": "view",
      "type": "function"
    },
    {
      "inputs": [],
      "name": "getCurrentToken",
      "outputs": [
        {
          "internalType": "uint256",
          "name": "",
          "type": "uint256"
        }
      ],
      "stateMutability": "view",
      "type": "function"
    },
    {
      "inputs": [],
      "name": "getLatestIdToListedToken",
      "outputs": [
        {
          "components": [
            {
              "internalType": "uint256",
              "name": "tokenId",
              "type": "uint256"
            },
            {
              "internalType": "address payable",
              "name": "owner",
              "type": "address"
            },
            {
              "internalType": "address payable",
              "name": "seller",
              "type": "address"
            },
            {
              "internalType": "uint256",
              "name": "price",
              "type": "uint256"
            },
            {
              "internalType": "bool",
              "name": "currentlyListed",
              "type": "bool"
            }
          ],
          "internalType": "struct NFTMarketplace.ListedToken",
          "name": "",
          "type": "tuple"
        }
      ],
      "stateMutability": "view",
      "type": "function"
    },
    {
      "inputs": [],
      "name": "getListPrice",
      "outputs": [
        {
          "internalType": "uint256",
          "name": "",
          "type": "uint256"
        }
      ],
      "stateMutability": "view",
      "type": "function"
    },
    {
      "inputs": [
        {
          "internalType": "uint256",
          "name": "tokenId",
          "type": "uint256"
        }
      ],
      "name": "getListedTokenForId",
      "outputs": [
        {
          "components": [
            {
              "internalType": "uint256",
              "name": "tokenId",
              "type": "uint256"
            },
            {
              "internalType": "address payable",
              "name": "owner",
              "type": "address"
            },
            {
              "internalType": "address payable",
              "name": "seller",
              "type": "address"
            },
            {
              "internalType": "uint256",
              "name": "price",
              "type": "uint256"
            },
            {
              "internalType": "bool",
              "name": "currentlyListed",
              "type": "bool"
            }
          ],
          "internalType": "struct NFTMarketplace.ListedToken",
          "name": "",
          "type": "tuple"
        }
      ],
      "stateMutability": "view",
      "type": "function"
    },
    {
      "inputs": [],
      "name": "getMyNFTs",
      "outputs": [
        {
          "components": [
            {
              "internalType": "uint256",
              "name": "tokenId",
              "type": "uint256"
            },
            {
              "internalType": "address payable",
              "name": "owner",
              "type": "address"
            },
            {
              "internalType": "address payable",
              "name": "seller",
              "type": "address"
            },
            {
              "internalType": "uint256",
              "name": "price",
              "type": "uint256"
            },
            {
              "internalType": "bool",
              "name": "currentlyListed",
              "type": "bool"
            }
          ],
          "internalType": "struct NFTMarketplace.ListedToken[]",
          "name": "",
          "type": "tuple[]"
        }
      ],
      "stateMutability": "view",
      "type": "function"
    },
    {
      "inputs": [
        {
          "internalType": "address",
          "name": "owner",
          "type": "address"
        },
        {
          "internalType": "address",
          "name": "operator",
          "type": "address"
        }
      ],
      "name": "isApprovedForAll",
      "outputs": [
        {
          "internalType": "bool",
          "name": "",
          "type": "bool"
        }
      ],
      "stateMutability": "view",
      "type": "function"
    },
    {
      "inputs": [
        {
          "internalType": "uint256",
          "name": "tokenId",
          "type": "uint256"
        },
        {
          "internalType": "uint256",
          "name": "price",
          "type": "uint256"
        }
      ],
      "name": "listTokenOnMarketplace",
      "outputs": [],
      "stateMutability": "payable",
      "type": "function"
    },
    {
      "inputs": [],
      "name": "name",
      "outputs": [
        {
          "internalType": "string",
          "name": "",
          "type": "string"
        }
      ],
      "stateMutability": "view",
      "type": "function"
    },
    {
      "inputs": [
        {
          "internalType": "uint256",
          "name": "tokenId",
          "type": "uint256"
        }
      ],
      "name": "ownerOf",
      "outputs": [
        {
          "internalType": "address",
          "name": "",
          "type": "address"
        }
      ],
      "stateMutability": "view",
      "type": "function"
    },
    {
      "inputs": [
        {
          "internalType": "address",
          "name": "from",
          "type": "address"
        },
        {
          "internalType": "address",
          "name": "to",
          "type": "address"
        },
        {
          "internalType": "uint256",
          "name": "tokenId",
          "type": "uint256"
        }
      ],
      "name": "safeTransferFrom",
      "outputs": [],
      "stateMutability": "nonpayable",
      "type": "function"
    },
    {
      "inputs": [
        {
          "internalType": "address",
          "name": "from",
          "type": "address"
        },
        {
          "internalType": "address",
          "name": "to",
          "type": "address"
        },
        {
          "internalType": "uint256",
          "name": "tokenId",
          "type": "uint256"
        },
        {
          "internalType": "bytes",
          "name": "data",
          "type": "bytes"
        }
      ],
      "name": "safeTransferFrom",
      "outputs": [],
      "stateMutability": "nonpayable",
      "type": "function"
    },
    {
      "inputs": [
        {
          "internalType": "address",
          "name": "operator",
          "type": "address"
        },
        {
          "internalType": "bool",
          "name": "approved",
          "type": "bool"
        }
      ],
      "name": "setApprovalForAll",
      "outputs": [],
      "stateMutability": "nonpayable",
      "type": "function"
    },
    {
      "inputs": [
        {
          "internalType": "bytes4",
          "name": "interfaceId",
          "type": "bytes4"
        }
      ],
      "name": "supportsInterface",
      "outputs": [
        {
          "internalType": "bool",
          "name": "",
          "type": "bool"
        }
      ],
      "stateMutability": "view",
      "type": "function"
    },
    {
      "inputs": [],
      "name": "symbol",
      "outputs": [
        {
          "internalType": "string",
          "name": "",
          "type": "string"
        }
      ],
      "stateMutability": "view",
      "type": "function"
    },
    {
      "inputs": [
        {
          "internalType": "uint256",
          "name": "tokenId",
          "type": "uint256"
        }
      ],
      "name": "tokenURI",
      "outputs": [
        {
          "internalType": "string",
          "name": "",
          "type": "string"
        }
      ],
      "stateMutability": "view",
      "type": "function"
    },
    {
      "inputs": [
        {
          "internalType": "address",
          "name": "from",
          "type": "address"
        },
        {
          "internalType": "address",
          "name": "to",
          "type": "address"
        },
        {
          "internalType": "uint256",
          "name": "tokenId",
          "type": "uint256"
        }
      ],
      "name": "transferFrom",
      "outputs": [],
      "stateMutability": "nonpayable",
      "type": "function"
    },
    {
      "inputs": [
        {
          "internalType": "uint256",
          "name": "_listPrice",
          "type": "uint256"
        }
      ],
      "name": "updateListPrice",
      "outputs": [],
      "stateMutability": "payable",
      "type": "function"
    },
    {
      "inputs": [
        {
          "internalType": "uint256",
          "name": "tokenId",
          "type": "uint256"
        },
        {
          "internalType": "string",
          "name": "newTokenURI",
          "type": "string"
        },
        {
          "internalType": "uint256",
          "name": "newPrice",
          "type": "uint256"
        },
        {
          "internalType": "bool",
          "name": "shouldList",
          "type": "bool"
        }
      ],
      "name": "updateTokenURIForPriceUpdate",
      "outputs": [],
      "stateMutability": "payable",
      "type": "function"
    }
  ],
  "bytecode": "0x6080604052662386f26fc10000600a553480156200001c57600080fd5b50604080518082018252600e81526d4e46544d61726b6574706c61636560901b6020808301918252835180850190945260048452634e46544d60e01b9084015281519192916200006f91600091620000a0565b50805162000085906001906020840190620000a0565b5050600980546001600160a01b031916331790555062000183565b828054620000ae9062000146565b90600052602060002090601f016020900481019282620000d257600085556200011d565b82601f10620000ed57805160ff19168380011785556200011d565b828001600101855582156200011d579182015b828111156200011d57825182559160200191906001019062000100565b506200012b9291506200012f565b5090565b5b808211156200012b576000815560010162000130565b600181811c908216806200015b57607f821691505b602082108114156200017d57634e487b7160e01b600052602260045260246000fd5b50919050565b61275d80620001936000396000f3fe6080604052600436106101665760003560e01c806395d89b41116100d1578063c322579c1161008a578063e0391b0911610064578063e0391b0914610400578063e985e9c514610415578063ef2d174614610435578063fe97b82e1461044a57600080fd5b8063c322579c146103b8578063c87b56dd146103cb578063d1a88ae5146103eb57600080fd5b806395d89b411461031d5780639b1225c414610332578063a22cb46514610345578063a43d91d514610365578063b88d4fde14610385578063bb2f95ea146103a557600080fd5b806342842e0e1161012357806342842e0e1461024f578063629cb2e41461026f5780636352211e1461029157806368f1945f146102b157806370a08231146102d05780638e264590146102f057600080fd5b806301ffc9a71461016b57806302b75eda146101a057806306fdde03146101b5578063081812fc146101d7578063095ea7b31461020f57806323b872dd1461022f575b600080fd5b34801561017757600080fd5b5061018b6101863660046122a4565b61045d565b60405190151581526020015b60405180910390f35b6101b36101ae3660046123a8565b610488565b005b3480156101c157600080fd5b506101ca610675565b6040516101979190612518565b3480156101e357600080fd5b506101f76101f2366004612331565b610707565b6040516001600160a01b039091168152602001610197565b34801561021b57600080fd5b506101b361022a36600461227b565b61072e565b34801561023b57600080fd5b506101b361024a36600461219e565b610844565b34801561025b57600080fd5b506101b361026a36600461219e565b610875565b34801561027b57600080fd5b50610284610890565b60405161019791906124ca565b34801561029d57600080fd5b506101f76102ac366004612331565b610ad3565b3480156102bd57600080fd5b50600a545b604051908152602001610197565b3480156102dc57600080fd5b506102c26102eb366004612152565b610b33565b3480156102fc57600080fd5b5061031061030b366004612331565b610bb9565b604051610197919061263d565b34801561032957600080fd5b506101ca610c23565b6101b3610340366004612331565b610c32565b34801561035157600080fd5b506101b3610360366004612252565b610dd5565b34801561037157600080fd5b506101b36103803660046123a8565b610de4565b34801561039157600080fd5b506101b36103a03660046121d9565b610ee8565b6101b36103b3366004612349565b610f20565b6101b36103c6366004612331565b611116565b3480156103d757600080fd5b506101ca6103e6366004612331565b611181565b3480156103f757600080fd5b50610310611292565b34801561040c57600080fd5b50610284611309565b34801561042157600080fd5b5061018b61043036600461216c565b61144f565b34801561044157600080fd5b506102c261147d565b6102c26104583660046122dc565b61148d565b60006001600160e01b03198216632483248360e11b14806104825750610482826114c9565b92915050565b61049182611519565b6104b65760405162461bcd60e51b81526004016104ad9061260f565b60405180910390fd5b336104c083610ad3565b6001600160a01b0316146105165760405162461bcd60e51b815260206004820152601760248201527f43616c6c6572206973206e6f7420746865206f776e657200000000000000000060448201526064016104ad565b600a5434146105675760405162461bcd60e51b815260206004820152601a60248201527f4d7573742070617920746865206c697374696e6720707269636500000000000060448201526064016104ad565b600081116105b75760405162461bcd60e51b815260206004820152601f60248201527f5072696365206d7573742062652067726561746572207468616e207a65726f0060448201526064016104ad565b600954600a546040516001600160a01b039092169181156108fc0291906000818181858888f193505050501580156105f3573d6000803e3d6000fd5b506000828152600b60205260409020600301819055610613333084611536565b6000828152600b602052604090819020600401805460ff19166001908117909155905183917f9339409317fd01fabff48b703019016f49159bacc801ae872d2ca637d226e4c09161066991309133918791612464565b60405180910390a25050565b6060600080546106849061268f565b80601f01602080910402602001604051908101604052809291908181526020018280546106b09061268f565b80156106fd5780601f106106d2576101008083540402835291602001916106fd565b820191906000526020600020905b8154815290600101906020018083116106e057829003601f168201915b5050505050905090565b60006107128261169a565b506000908152600460205260409020546001600160a01b031690565b600061073982610ad3565b9050806001600160a01b0316836001600160a01b031614156107a75760405162461bcd60e51b815260206004820152602160248201527f4552433732313a20617070726f76616c20746f2063757272656e74206f776e656044820152603960f91b60648201526084016104ad565b336001600160a01b03821614806107c357506107c3813361144f565b6108355760405162461bcd60e51b815260206004820152603d60248201527f4552433732313a20617070726f76652063616c6c6572206973206e6f7420746f60448201527f6b656e206f776e6572206f7220617070726f76656420666f7220616c6c00000060648201526084016104ad565b61083f83836116ed565b505050565b61084e338261175b565b61086a5760405162461bcd60e51b81526004016104ad9061252b565b61083f838383611536565b61083f83838360405180602001604052806000815250610ee8565b6060600061089d60075490565b905060008080805b848110156109355733600b60006108bd84600161264b565b81526020810191909152604001600020600101546001600160a01b03161480610910575033600b60006108f184600161264b565b81526020810191909152604001600020600201546001600160a01b0316145b156109235761092060018561264b565b93505b8061092d816126ca565b9150506108a5565b5060008367ffffffffffffffff81111561095f57634e487b7160e01b600052604160045260246000fd5b60405190808252806020026020018201604052801561099857816020015b610985611fca565b81526020019060019003908161097d5790505b50905060005b85811015610ac95733600b60006109b684600161264b565b81526020810191909152604001600020600101546001600160a01b03161480610a09575033600b60006109ea84600161264b565b81526020810191909152604001600020600201546001600160a01b0316145b15610ab757610a1981600161264b565b6000818152600b6020908152604091829020825160a0810184528154815260018201546001600160a01b039081169382019390935260028201549092169282019290925260038201546060820152600482015460ff161515608082015284519295509091849087908110610a9d57634e487b7160e01b600052603260045260246000fd5b6020908102919091010152610ab360018661264b565b9450505b80610ac1816126ca565b91505061099e565b5095945050505050565b6000818152600260205260408120546001600160a01b0316806104825760405162461bcd60e51b8152602060048201526018602482015277115490cdcc8c4e881a5b9d985b1a59081d1bdad95b88125160421b60448201526064016104ad565b60006001600160a01b038216610b9d5760405162461bcd60e51b815260206004820152602960248201527f4552433732313a2061646472657373207a65726f206973206e6f7420612076616044820152683634b21037bbb732b960b91b60648201526084016104ad565b506001600160a01b031660009081526003602052604090205490565b610bc1611fca565b506000908152600b6020908152604091829020825160a0810184528154815260018201546001600160a01b03908116938201939093526002820154909216928201929092526003820154606082015260049091015460ff161515608082015290565b6060600180546106849061268f565b6000818152600b6020526040902060038101546002909101546001600160a01b0316348214610ccb576040805162461bcd60e51b81526020600482015260248101919091527f506c65617365207375626d6974207468652061736b696e67207072696365206960448201527f6e206f7264657220746f20636f6d706c6574652074686520707572636861736560648201526084016104ad565b6000838152600b6020526040902060048101805460ff1916905560020180546001600160a01b03191633179055610d06600880546001019055565b610d11303385611536565b600954600a546040516001600160a01b039092169181156108fc0291906000818181858888f19350505050158015610d4d573d6000803e3d6000fd5b506040516001600160a01b038216903480156108fc02916000818181858888f19350505050158015610d83573d6000803e3d6000fd5b50604080513381526001600160a01b038316602082015290810183905283907f8562eb94748e30bb0071e932744ce902b460c683474fcb3bfd567ffa16b1afb2906060015b60405180910390a2505050565b610de03383836117b9565b5050565b610ded82611519565b610e095760405162461bcd60e51b81526004016104ad9061260f565b6000828152600b60205260409020600201546001600160a01b03163314610e6d5760405162461bcd60e51b815260206004820152601860248201527721b0b63632b91034b9903737ba103a34329039b2b63632b960411b60448201526064016104ad565b6000828152600b602052604090206004015460ff16610ec45760405162461bcd60e51b8152602060048201526013602482015272151bdad95b881a5cc81b9bdd081b1a5cdd1959606a1b60448201526064016104ad565b6000828152600b60205260409020600401805460ff19169055610de0303384611536565b610ef2338361175b565b610f0e5760405162461bcd60e51b81526004016104ad9061252b565b610f1a84848484611888565b50505050565b610f2984611519565b610f455760405162461bcd60e51b81526004016104ad9061260f565b600a543414610f965760405162461bcd60e51b815260206004820152601a60248201527f4d7573742070617920746865206c697374696e6720707269636500000000000060448201526064016104ad565b6000848152600b60205260409020600201546001600160a01b03163314610ffa5760405162461bcd60e51b815260206004820152601860248201527721b0b63632b91034b9903737ba103a34329039b2b63632b960411b60448201526064016104ad565b6000821161104a5760405162461bcd60e51b815260206004820152601f60248201527f5072696365206d7573742062652067726561746572207468616e207a65726f0060448201526064016104ad565b600954600a546040516001600160a01b039092169181156108fc0291906000818181858888f19350505050158015611086573d6000803e3d6000fd5b506000848152600b602052604090206003018290556110a584846118bb565b80156110d2576000848152600b60205260409020600401805460ff191660011790556110d2333086611536565b837f9339409317fd01fabff48b703019016f49159bacc801ae872d2ca637d226e4c0303385856040516111089493929190612464565b60405180910390a250505050565b6009546001600160a01b0316331461117c5760405162461bcd60e51b815260206004820152602360248201527f4f6e6c79206f776e65722063616e20757064617465206c697374696e6720707260448201526269636560e81b60648201526084016104ad565b600a55565b606061118c8261169a565b600082815260066020526040812080546111a59061268f565b80601f01602080910402602001604051908101604052809291908181526020018280546111d19061268f565b801561121e5780601f106111f35761010080835404028352916020019161121e565b820191906000526020600020905b81548152906001019060200180831161120157829003601f168201915b50505050509050600061123c60408051602081019091526000815290565b905080516000141561124f575092915050565b815115611281578082604051602001611269929190612435565b60405160208183030381529060405292505050919050565b61128a8461197e565b949350505050565b61129a611fca565b60006112a560075490565b6000908152600b6020908152604091829020825160a0810184528154815260018201546001600160a01b03908116938201939093526002820154909216928201929092526003820154606082015260049091015460ff161515608082015292915050565b6060600061131660075490565b905060008167ffffffffffffffff81111561134157634e487b7160e01b600052604160045260246000fd5b60405190808252806020026020018201604052801561137a57816020015b611367611fca565b81526020019060019003908161135f5790505b509050600080805b848110156114455761139581600161264b565b6000818152600b6020908152604091829020825160a0810184528154815260018201546001600160a01b039081169382019390935260028201549092169282019290925260038201546060820152600482015460ff16151560808201528651929450909186908690811061141957634e487b7160e01b600052603260045260246000fd5b602090810291909101015261142f60018561264b565b935050808061143d906126ca565b915050611382565b5091949350505050565b6001600160a01b03918216600090815260056020908152604080832093909416825291909152205460ff1690565b600061148860075490565b905090565b600061149d600780546001019055565b60006114a860075490565b90506114b433826119f2565b6114be81866118bb565b61128a818585611a0c565b60006001600160e01b031982166380ac58cd60e01b14806114fa57506001600160e01b03198216635b5e139f60e01b145b8061048257506301ffc9a760e01b6001600160e01b0319831614610482565b6000908152600260205260409020546001600160a01b0316151590565b826001600160a01b031661154982610ad3565b6001600160a01b03161461156f5760405162461bcd60e51b81526004016104ad906125ca565b6001600160a01b0382166115d15760405162461bcd60e51b8152602060048201526024808201527f4552433732313a207472616e7366657220746f20746865207a65726f206164646044820152637265737360e01b60648201526084016104ad565b826001600160a01b03166115e482610ad3565b6001600160a01b03161461160a5760405162461bcd60e51b81526004016104ad906125ca565b600081815260046020908152604080832080546001600160a01b03199081169091556001600160a01b0387811680865260038552838620805460001901905590871680865283862080546001019055868652600290945282852080549092168417909155905184937fddf252ad1be2c89b69c2b068fc378daa952ba7f163c4a11628f55a4df523b3ef91a4505050565b6116a381611519565b6116ea5760405162461bcd60e51b8152602060048201526018602482015277115490cdcc8c4e881a5b9d985b1a59081d1bdad95b88125160421b60448201526064016104ad565b50565b600081815260046020526040902080546001600160a01b0319166001600160a01b038416908117909155819061172282610ad3565b6001600160a01b03167f8c5be1e5ebec7d5bd14f71427d1e84f3dd0314c0f7b2291e5b200ac8c7c3b92560405160405180910390a45050565b60008061176783610ad3565b9050806001600160a01b0316846001600160a01b0316148061178e575061178e818561144f565b8061128a5750836001600160a01b03166117a784610707565b6001600160a01b031614949350505050565b816001600160a01b0316836001600160a01b0316141561181b5760405162461bcd60e51b815260206004820152601960248201527f4552433732313a20617070726f766520746f2063616c6c65720000000000000060448201526064016104ad565b6001600160a01b03838116600081815260056020908152604080832094871680845294825291829020805460ff191686151590811790915591519182527f17307eab39ab6107e8899845ad3d59bd9653f200f220920489ca2b5937696c31910160405180910390a3505050565b611893848484611536565b61189f84848484611b9a565b610f1a5760405162461bcd60e51b81526004016104ad90612578565b6118c482611519565b6119275760405162461bcd60e51b815260206004820152602e60248201527f45524337323155524953746f726167653a2055524920736574206f66206e6f6e60448201526d32bc34b9ba32b73a103a37b5b2b760911b60648201526084016104ad565b6000828152600660209081526040909120825161194692840190611ff8565b506040518281527ff8e1a15aba9398e019f0b49df1a4fde98ee17ae345cb5f6b5e2c27f5033e8ce79060200160405180910390a15050565b60606119898261169a565b60006119a060408051602081019091526000815290565b905060008151116119c057604051806020016040528060008152506119eb565b806119ca84611ca7565b6040516020016119db929190612435565b6040516020818303038152906040525b9392505050565b610de0828260405180602001604052806000815250611d52565b600a543414611a695760405162461bcd60e51b815260206004820152602360248201527f486f706566756c6c792073656e64696e672074686520636f727265637420707260448201526269636560e81b60648201526084016104ad565b60008211611ac45760405162461bcd60e51b815260206004820152602260248201527f4d616b652073757265207468652070726963652069736e2774206e6567617469604482015261766560f01b60648201526084016104ad565b6040805160a0810182528481523060208083019182523383850190815260608401878152861580156080870190815260008b8152600b909552969093209451855592516001850180546001600160a01b03199081166001600160a01b0393841617909155915160028601805490931691161790559051600383015591516004909101805460ff1916911515919091179055611b6457611b64333085611536565b827f493045677b3910c4555111111fcc27e7da2686ef7e08ecdb35bb338bb60e9cd230338585604051610dc89493929190612464565b60006001600160a01b0384163b15611c9c57604051630a85bd0160e11b81526001600160a01b0385169063150b7a0290611bde90339089908890889060040161248d565b602060405180830381600087803b158015611bf857600080fd5b505af1925050508015611c28575060408051601f3d908101601f19168201909252611c25918101906122c0565b60015b611c82573d808015611c56576040519150601f19603f3d011682016040523d82523d6000602084013e611c5b565b606091505b508051611c7a5760405162461bcd60e51b81526004016104ad90612578565b805181602001fd5b6001600160e01b031916630a85bd0160e11b14905061128a565b506001949350505050565b60606000611cb483611d85565b600101905060008167ffffffffffffffff811115611ce257634e487b7160e01b600052604160045260246000fd5b6040519080825280601f01601f191660200182016040528015611d0c576020820181803683370190505b5090508181016020015b600019016f181899199a1a9b1b9c1cb0b131b232b360811b600a86061a8153600a8504945084611d4557611d4a565b611d16565b509392505050565b611d5c8383611e5d565b611d696000848484611b9a565b61083f5760405162461bcd60e51b81526004016104ad90612578565b60008072184f03e93ff9f4daa797ed6e38ed64bf6a1f0160401b8310611dc45772184f03e93ff9f4daa797ed6e38ed64bf6a1f0160401b830492506040015b6d04ee2d6d415b85acef81000000008310611df0576d04ee2d6d415b85acef8100000000830492506020015b662386f26fc100008310611e0e57662386f26fc10000830492506010015b6305f5e1008310611e26576305f5e100830492506008015b6127108310611e3a57612710830492506004015b60648310611e4c576064830492506002015b600a83106104825760010192915050565b6001600160a01b038216611eb35760405162461bcd60e51b815260206004820181905260248201527f4552433732313a206d696e7420746f20746865207a65726f206164647265737360448201526064016104ad565b611ebc81611519565b15611f095760405162461bcd60e51b815260206004820152601c60248201527f4552433732313a20746f6b656e20616c7265616479206d696e7465640000000060448201526064016104ad565b611f1281611519565b15611f5f5760405162461bcd60e51b815260206004820152601c60248201527f4552433732313a20746f6b656e20616c7265616479206d696e7465640000000060448201526064016104ad565b6001600160a01b038216600081815260036020908152604080832080546001019055848352600290915280822080546001600160a01b0319168417905551839291907fddf252ad1be2c89b69c2b068fc378daa952ba7f163c4a11628f55a4df523b3ef908290a45050565b6040805160a08101825260008082526020820181905291810182905260608101829052608081019190915290565b8280546120049061268f565b90600052602060002090601f016020900481019282612026576000855561206c565b82601f1061203f57805160ff191683800117855561206c565b8280016001018555821561206c579182015b8281111561206c578251825591602001919060010190612051565b5061207892915061207c565b5090565b5b80821115612078576000815560010161207d565b600067ffffffffffffffff808411156120ac576120ac6126fb565b604051601f8501601f19908116603f011681019082821181831017156120d4576120d46126fb565b816040528093508581528686860111156120ed57600080fd5b858560208301376000602087830101525050509392505050565b80356001600160a01b038116811461211e57600080fd5b919050565b8035801515811461211e57600080fd5b600082601f830112612143578081fd5b6119eb83833560208501612091565b600060208284031215612163578081fd5b6119eb82612107565b6000806040838503121561217e578081fd5b61218783612107565b915061219560208401612107565b90509250929050565b6000806000606084860312156121b2578081fd5b6121bb84612107565b92506121c960208501612107565b9150604084013590509250925092565b600080600080608085870312156121ee578081fd5b6121f785612107565b935061220560208601612107565b925060408501359150606085013567ffffffffffffffff811115612227578182fd5b8501601f81018713612237578182fd5b61224687823560208401612091565b91505092959194509250565b60008060408385031215612264578182fd5b61226d83612107565b915061219560208401612123565b6000806040838503121561228d578182fd5b61229683612107565b946020939093013593505050565b6000602082840312156122b5578081fd5b81356119eb81612711565b6000602082840312156122d1578081fd5b81516119eb81612711565b6000806000606084860312156122f0578283fd5b833567ffffffffffffffff811115612306578384fd5b61231286828701612133565b9350506020840135915061232860408501612123565b90509250925092565b600060208284031215612342578081fd5b5035919050565b6000806000806080858703121561235e578384fd5b84359350602085013567ffffffffffffffff81111561237b578384fd5b61238787828801612133565b9350506040850135915061239d60608601612123565b905092959194509250565b600080604083850312156123ba578182fd5b50508035926020909101359150565b600081518084526123e1816020860160208601612663565b601f01601f19169290920160200192915050565b805182526020808201516001600160a01b039081169184019190915260408083015190911690830152606080820151908301526080908101511515910152565b60008351612447818460208801612663565b83519083019061245b818360208801612663565b01949350505050565b6001600160a01b0394851681529290931660208301526040820152901515606082015260800190565b6001600160a01b03858116825284166020820152604081018390526080606082018190526000906124c0908301846123c9565b9695505050505050565b6020808252825182820181905260009190848201906040850190845b8181101561250c576124f98385516123f5565b9284019260a092909201916001016124e6565b50909695505050505050565b6020815260006119eb60208301846123c9565b6020808252602d908201527f4552433732313a2063616c6c6572206973206e6f7420746f6b656e206f776e6560408201526c1c881bdc88185c1c1c9bdd9959609a1b606082015260800190565b60208082526032908201527f4552433732313a207472616e7366657220746f206e6f6e20455243373231526560408201527131b2b4bb32b91034b6b83632b6b2b73a32b960711b606082015260800190565b60208082526025908201527f4552433732313a207472616e736665722066726f6d20696e636f72726563742060408201526437bbb732b960d91b606082015260800190565b602080825260149082015273151bdad95b88191bd95cc81b9bdd08195e1a5cdd60621b604082015260600190565b60a0810161048282846123f5565b6000821982111561265e5761265e6126e5565b500190565b60005b8381101561267e578181015183820152602001612666565b83811115610f1a5750506000910152565b600181811c908216806126a357607f821691505b602082108114156126c457634e487b7160e01b600052602260045260246000fd5b50919050565b60006000198214156126de576126de6126e5565b5060010190565b634e487b7160e01b600052601160045260246000fd5b634e487b7160e01b600052604160045260246000fd5b6001600160e01b0319811681146116ea57600080fdfea2646970667358221220edaed17f2c7f448e952ebed928e2b54ff38b54d07819382d5a03f6b6cd396b5064736f6c63430008040033",
  "linkReferences": {},
  "deployedLinkReferences": {}
}