{
  "_format": "hh-sol-artifact-1",
  "contractName": "NFTMarketplace",
  "sourceName": "contracts/NFTMarketplace.sol",
  "abi": [
    {
      "inputs": [],
      "stateMutability": "nonpayable",
      "type": "constructor"
    },
    {
      "anonymous": false,
      "inputs": [
        {
          "indexed": true,
          "internalType": "address",
          "name": "owner",
          "type": "address"
        },
        {
          "indexed": true,
          "internalType": "address",
          "name": "approved",
          "type": "address"
        },
        {
          "indexed": true,
          "internalType": "uint256",
          "name": "tokenId",
          "type": "uint256"
        }
      ],
      "name": "Approval",
      "type": "event"
    },
    {
      "anonymous": false,
      "inputs": [
        {
          "indexed": true,
          "internalType": "address",
          "name": "owner",
          "type": "address"
        },
        {
          "indexed": true,
          "internalType": "address",
          "name": "operator",
          "type": "address"
        },
        {
          "indexed": false,
          "internalType": "bool",
          "name": "approved",
          "type": "bool"
        }
      ],
      "name": "ApprovalForAll",
      "type": "event"
    },
    {
      "anonymous": false,
      "inputs": [
        {
          "indexed": false,
          "internalType": "uint256",
          "name": "_fromTokenId",
          "type": "uint256"
        },
        {
          "indexed": false,
          "internalType": "uint256",
          "name": "_toTokenId",
          "type": "uint256"
        }
      ],
      "name": "BatchMetadataUpdate",
      "type": "event"
    },
    {
      "anonymous": false,
      "inputs": [
        {
          "indexed": false,
          "internalType": "uint256",
          "name": "_tokenId",
          "type": "uint256"
        }
      ],
      "name": "MetadataUpdate",
      "type": "event"
    },
    {
      "anonymous": false,
      "inputs": [
        {
          "indexed": true,
          "internalType": "uint256",
          "name": "tokenId",
          "type": "uint256"
        },
        {
          "indexed": false,
          "internalType": "address",
          "name": "buyer",
          "type": "address"
        },
        {
          "indexed": false,
          "internalType": "address",
          "name": "seller",
          "type": "address"
        },
        {
          "indexed": false,
          "internalType": "uint256",
          "name": "price",
          "type": "uint256"
        }
      ],
      "name": "NFTSold",
      "type": "event"
    },
    {
      "anonymous": false,
      "inputs": [
        {
          "indexed": true,
          "internalType": "uint256",
          "name": "tokenId",
          "type": "uint256"
        },
        {
          "indexed": false,
          "internalType": "address",
          "name": "owner",
          "type": "address"
        },
        {
          "indexed": false,
          "internalType": "address",
          "name": "seller",
          "type": "address"
        },
        {
          "indexed": false,
          "internalType": "uint256",
          "name": "price",
          "type": "uint256"
        },
        {
          "indexed": false,
          "internalType": "bool",
          "name": "currentlyListed",
          "type": "bool"
        }
      ],
      "name": "TokenDeListedSuccess",
      "type": "event"
    },
    {
      "anonymous": false,
      "inputs": [
        {
          "indexed": true,
          "internalType": "uint256",
          "name": "tokenId",
          "type": "uint256"
        },
        {
          "indexed": false,
          "internalType": "address",
          "name": "owner",
          "type": "address"
        },
        {
          "indexed": false,
          "internalType": "address",
          "name": "seller",
          "type": "address"
        },
        {
          "indexed": false,
          "internalType": "uint256",
          "name": "price",
          "type": "uint256"
        },
        {
          "indexed": false,
          "internalType": "bool",
          "name": "currentlyListed",
          "type": "bool"
        }
      ],
      "name": "TokenListedSuccess",
      "type": "event"
    },
    {
      "anonymous": false,
      "inputs": [
        {
          "indexed": true,
          "internalType": "uint256",
          "name": "tokenId",
          "type": "uint256"
        },
        {
          "indexed": false,
          "internalType": "address",
          "name": "owner",
          "type": "address"
        },
        {
          "indexed": false,
          "internalType": "address",
          "name": "seller",
          "type": "address"
        },
        {
          "indexed": false,
          "internalType": "uint256",
          "name": "price",
          "type": "uint256"
        },
        {
          "indexed": false,
          "internalType": "bool",
          "name": "currentlyListed",
          "type": "bool"
        }
      ],
      "name": "TokenMintAndListSuccess",
      "type": "event"
    },
    {
      "anonymous": false,
      "inputs": [
        {
          "indexed": true,
          "internalType": "uint256",
          "name": "tokenId",
          "type": "uint256"
        },
        {
          "indexed": false,
          "internalType": "address",
          "name": "owner",
          "type": "address"
        },
        {
          "indexed": false,
          "internalType": "address",
          "name": "seller",
          "type": "address"
        },
        {
          "indexed": false,
          "internalType": "uint256",
          "name": "price",
          "type": "uint256"
        },
        {
          "indexed": false,
          "internalType": "bool",
          "name": "currentlyListed",
          "type": "bool"
        }
      ],
      "name": "TokenMintSuccess",
      "type": "event"
    },
    {
      "anonymous": false,
      "inputs": [
        {
          "indexed": true,
          "internalType": "address",
          "name": "from",
          "type": "address"
        },
        {
          "indexed": true,
          "internalType": "address",
          "name": "to",
          "type": "address"
        },
        {
          "indexed": true,
          "internalType": "uint256",
          "name": "tokenId",
          "type": "uint256"
        }
      ],
      "name": "Transfer",
      "type": "event"
    },
    {
      "inputs": [
        {
          "internalType": "address",
          "name": "to",
          "type": "address"
        },
        {
          "internalType": "uint256",
          "name": "tokenId",
          "type": "uint256"
        }
      ],
      "name": "approve",
      "outputs": [],
      "stateMutability": "nonpayable",
      "type": "function"
    },
    {
      "inputs": [
        {
          "internalType": "address",
          "name": "owner",
          "type": "address"
        }
      ],
      "name": "balanceOf",
      "outputs": [
        {
          "internalType": "uint256",
          "name": "",
          "type": "uint256"
        }
      ],
      "stateMutability": "view",
      "type": "function"
    },
    {
      "inputs": [
        {
          "internalType": "string",
          "name": "tokenURI",
          "type": "string"
        },
        {
          "internalType": "uint256",
          "name": "price",
          "type": "uint256"
        },
        {
          "internalType": "bool",
          "name": "listNFT",
          "type": "bool"
        }
      ],
      "name": "createToken",
      "outputs": [
        {
          "internalType": "uint256",
          "name": "",
          "type": "uint256"
        }
      ],
      "stateMutability": "payable",
      "type": "function"
    },
    {
      "inputs": [
        {
          "internalType": "uint256",
          "name": "tokenId",
          "type": "uint256"
        },
        {
          "internalType": "uint256",
          "name": "price",
          "type": "uint256"
        }
      ],
      "name": "delistTokenFromMarketplace",
      "outputs": [],
      "stateMutability": "nonpayable",
      "type": "function"
    },
    {
      "inputs": [
        {
          "internalType": "uint256",
          "name": "tokenId",
          "type": "uint256"
        }
      ],
      "name": "executeSale",
      "outputs": [],
      "stateMutability": "payable",
      "type": "function"
    },
    {
      "inputs": [],
      "name": "getAllNFTs",
      "outputs": [
        {
          "components": [
            {
              "internalType": "uint256",
              "name": "tokenId",
              "type": "uint256"
            },
            {
              "internalType": "address payable",
              "name": "owner",
              "type": "address"
            },
            {
              "internalType": "address payable",
              "name": "seller",
              "type": "address"
            },
            {
              "internalType": "uint256",
              "name": "price",
              "type": "uint256"
            },
            {
              "internalType": "bool",
              "name": "currentlyListed",
              "type": "bool"
            }
          ],
          "internalType": "struct NFTMarketplace.ListedToken[]",
          "name": "",
          "type": "tuple[]"
        }
      ],
      "stateMutability": "view",
      "type": "function"
    },
    {
      "inputs": [
        {
          "internalType": "uint256",
          "name": "tokenId",
          "type": "uint256"
        }
      ],
      "name": "getApproved",
      "outputs": [
        {
          "internalType": "address",
          "name": "",
          "type": "address"
        }
      ],
      "stateMutability": "view",
      "type": "function"
    },
    {
      "inputs": [],
      "name": "getCurrentToken",
      "outputs": [
        {
          "internalType": "uint256",
          "name": "",
          "type": "uint256"
        }
      ],
      "stateMutability": "view",
      "type": "function"
    },
    {
      "inputs": [],
      "name": "getLatestIdToListedToken",
      "outputs": [
        {
          "components": [
            {
              "internalType": "uint256",
              "name": "tokenId",
              "type": "uint256"
            },
            {
              "internalType": "address payable",
              "name": "owner",
              "type": "address"
            },
            {
              "internalType": "address payable",
              "name": "seller",
              "type": "address"
            },
            {
              "internalType": "uint256",
              "name": "price",
              "type": "uint256"
            },
            {
              "internalType": "bool",
              "name": "currentlyListed",
              "type": "bool"
            }
          ],
          "internalType": "struct NFTMarketplace.ListedToken",
          "name": "",
          "type": "tuple"
        }
      ],
      "stateMutability": "view",
      "type": "function"
    },
    {
      "inputs": [],
      "name": "getListPrice",
      "outputs": [
        {
          "internalType": "uint256",
          "name": "",
          "type": "uint256"
        }
      ],
      "stateMutability": "view",
      "type": "function"
    },
    {
      "inputs": [
        {
          "internalType": "uint256",
          "name": "tokenId",
          "type": "uint256"
        }
      ],
      "name": "getListedTokenForId",
      "outputs": [
        {
          "components": [
            {
              "internalType": "uint256",
              "name": "tokenId",
              "type": "uint256"
            },
            {
              "internalType": "address payable",
              "name": "owner",
              "type": "address"
            },
            {
              "internalType": "address payable",
              "name": "seller",
              "type": "address"
            },
            {
              "internalType": "uint256",
              "name": "price",
              "type": "uint256"
            },
            {
              "internalType": "bool",
              "name": "currentlyListed",
              "type": "bool"
            }
          ],
          "internalType": "struct NFTMarketplace.ListedToken",
          "name": "",
          "type": "tuple"
        }
      ],
      "stateMutability": "view",
      "type": "function"
    },
    {
      "inputs": [],
      "name": "getMyNFTs",
      "outputs": [
        {
          "components": [
            {
              "internalType": "uint256",
              "name": "tokenId",
              "type": "uint256"
            },
            {
              "internalType": "address payable",
              "name": "owner",
              "type": "address"
            },
            {
              "internalType": "address payable",
              "name": "seller",
              "type": "address"
            },
            {
              "internalType": "uint256",
              "name": "price",
              "type": "uint256"
            },
            {
              "internalType": "bool",
              "name": "currentlyListed",
              "type": "bool"
            }
          ],
          "internalType": "struct NFTMarketplace.ListedToken[]",
          "name": "",
          "type": "tuple[]"
        }
      ],
      "stateMutability": "view",
      "type": "function"
    },
    {
      "inputs": [
        {
          "internalType": "address",
          "name": "owner",
          "type": "address"
        },
        {
          "internalType": "address",
          "name": "operator",
          "type": "address"
        }
      ],
      "name": "isApprovedForAll",
      "outputs": [
        {
          "internalType": "bool",
          "name": "",
          "type": "bool"
        }
      ],
      "stateMutability": "view",
      "type": "function"
    },
    {
      "inputs": [
        {
          "internalType": "uint256",
          "name": "tokenId",
          "type": "uint256"
        },
        {
          "internalType": "uint256",
          "name": "price",
          "type": "uint256"
        }
      ],
      "name": "listTokenOnMarketplace",
      "outputs": [],
      "stateMutability": "payable",
      "type": "function"
    },
    {
      "inputs": [],
      "name": "name",
      "outputs": [
        {
          "internalType": "string",
          "name": "",
          "type": "string"
        }
      ],
      "stateMutability": "view",
      "type": "function"
    },
    {
      "inputs": [
        {
          "internalType": "uint256",
          "name": "tokenId",
          "type": "uint256"
        }
      ],
      "name": "ownerOf",
      "outputs": [
        {
          "internalType": "address",
          "name": "",
          "type": "address"
        }
      ],
      "stateMutability": "view",
      "type": "function"
    },
    {
      "inputs": [
        {
          "internalType": "address",
          "name": "from",
          "type": "address"
        },
        {
          "internalType": "address",
          "name": "to",
          "type": "address"
        },
        {
          "internalType": "uint256",
          "name": "tokenId",
          "type": "uint256"
        }
      ],
      "name": "safeTransferFrom",
      "outputs": [],
      "stateMutability": "nonpayable",
      "type": "function"
    },
    {
      "inputs": [
        {
          "internalType": "address",
          "name": "from",
          "type": "address"
        },
        {
          "internalType": "address",
          "name": "to",
          "type": "address"
        },
        {
          "internalType": "uint256",
          "name": "tokenId",
          "type": "uint256"
        },
        {
          "internalType": "bytes",
          "name": "data",
          "type": "bytes"
        }
      ],
      "name": "safeTransferFrom",
      "outputs": [],
      "stateMutability": "nonpayable",
      "type": "function"
    },
    {
      "inputs": [
        {
          "internalType": "address",
          "name": "operator",
          "type": "address"
        },
        {
          "internalType": "bool",
          "name": "approved",
          "type": "bool"
        }
      ],
      "name": "setApprovalForAll",
      "outputs": [],
      "stateMutability": "nonpayable",
      "type": "function"
    },
    {
      "inputs": [
        {
          "internalType": "bytes4",
          "name": "interfaceId",
          "type": "bytes4"
        }
      ],
      "name": "supportsInterface",
      "outputs": [
        {
          "internalType": "bool",
          "name": "",
          "type": "bool"
        }
      ],
      "stateMutability": "view",
      "type": "function"
    },
    {
      "inputs": [],
      "name": "symbol",
      "outputs": [
        {
          "internalType": "string",
          "name": "",
          "type": "string"
        }
      ],
      "stateMutability": "view",
      "type": "function"
    },
    {
      "inputs": [
        {
          "internalType": "uint256",
          "name": "tokenId",
          "type": "uint256"
        }
      ],
      "name": "tokenURI",
      "outputs": [
        {
          "internalType": "string",
          "name": "",
          "type": "string"
        }
      ],
      "stateMutability": "view",
      "type": "function"
    },
    {
      "inputs": [
        {
          "internalType": "address",
          "name": "from",
          "type": "address"
        },
        {
          "internalType": "address",
          "name": "to",
          "type": "address"
        },
        {
          "internalType": "uint256",
          "name": "tokenId",
          "type": "uint256"
        }
      ],
      "name": "transferFrom",
      "outputs": [],
      "stateMutability": "nonpayable",
      "type": "function"
    },
    {
      "inputs": [
        {
          "internalType": "uint256",
          "name": "_listPrice",
          "type": "uint256"
        }
      ],
      "name": "updateListPrice",
      "outputs": [],
      "stateMutability": "payable",
      "type": "function"
    },
    {
      "inputs": [
        {
          "internalType": "uint256",
          "name": "tokenId",
          "type": "uint256"
        },
        {
          "internalType": "uint256",
          "name": "newPrice",
          "type": "uint256"
        }
      ],
      "name": "updateSellingPrice",
      "outputs": [],
      "stateMutability": "nonpayable",
      "type": "function"
    },
    {
      "inputs": [
        {
          "internalType": "uint256",
          "name": "tokenId",
          "type": "uint256"
        },
        {
          "internalType": "string",
          "name": "newTokenURI",
          "type": "string"
        }
      ],
      "name": "updateTokenURI",
      "outputs": [],
      "stateMutability": "nonpayable",
      "type": "function"
    },
    {
      "inputs": [
        {
          "internalType": "uint256",
          "name": "tokenId",
          "type": "uint256"
        },
        {
          "internalType": "string",
          "name": "newTokenURI",
          "type": "string"
        },
        {
          "internalType": "uint256",
          "name": "newPrice",
          "type": "uint256"
        }
      ],
      "name": "updateTokenURIForPriceUpdate",
      "outputs": [],
      "stateMutability": "nonpayable",
      "type": "function"
    }
  ],
  "bytecode": "0x6080604052662386f26fc10000600a553480156200001c57600080fd5b50604080518082018252600e81526d4e46544d61726b6574706c61636560901b6020808301918252835180850190945260048452634e46544d60e01b9084015281519192916200006f91600091620000a0565b50805162000085906001906020840190620000a0565b5050600980546001600160a01b031916331790555062000183565b828054620000ae9062000146565b90600052602060002090601f016020900481019282620000d257600085556200011d565b82601f10620000ed57805160ff19168380011785556200011d565b828001600101855582156200011d579182015b828111156200011d57825182559160200191906001019062000100565b506200012b9291506200012f565b5090565b5b808211156200012b576000815560010162000130565b600181811c908216806200015b57607f821691505b602082108114156200017d57634e487b7160e01b600052602260045260246000fd5b50919050565b61281880620001936000396000f3fe60806040526004361061019c5760003560e01c806370a08231116100ec578063c322579c1161008a578063e0391b0911610064578063e0391b0914610483578063e985e9c514610498578063ef2d1746146104b8578063fe97b82e146104cd57600080fd5b8063c322579c1461043b578063c87b56dd1461044e578063d1a88ae51461046e57600080fd5b80639b1225c4116100c65780639b1225c4146103c8578063a22cb465146103db578063a43d91d5146103fb578063b88d4fde1461041b57600080fd5b806370a08231146103665780638e2645901461038657806395d89b41146103b357600080fd5b806323b872dd11610159578063571a2b6f11610133578063571a2b6f146102e5578063629cb2e4146103055780636352211e1461032757806368f1945f1461034757600080fd5b806323b872dd146102855780633a355478146102a557806342842e0e146102c557600080fd5b806301ffc9a7146101a157806302b75eda146101d657806306fdde03146101eb578063081812fc1461020d578063095ea7b31461024557806318e97fd114610265575b600080fd5b3480156101ad57600080fd5b506101c16101bc3660046122bd565b6104e0565b60405190151581526020015b60405180910390f35b6101e96101e43660046123f5565b61050b565b005b3480156101f757600080fd5b5061020061068b565b6040516101cd9190612565565b34801561021957600080fd5b5061022d61022836600461234a565b61071d565b6040516001600160a01b0390911681526020016101cd565b34801561025157600080fd5b506101e9610260366004612294565b610744565b34801561027157600080fd5b506101e9610280366004612362565b61085a565b34801561029157600080fd5b506101e96102a03660046121b7565b6108c6565b3480156102b157600080fd5b506101e96102c03660046123a7565b6108f7565b3480156102d157600080fd5b506101e96102e03660046121b7565b610993565b3480156102f157600080fd5b506101e96103003660046123f5565b6109ae565b34801561031157600080fd5b5061031a610a98565b6040516101cd9190612517565b34801561033357600080fd5b5061022d61034236600461234a565b610cdb565b34801561035357600080fd5b50600a545b6040519081526020016101cd565b34801561037257600080fd5b5061035861038136600461216b565b610d3b565b34801561039257600080fd5b506103a66103a136600461234a565b610dc1565b6040516101cd91906126f8565b3480156103bf57600080fd5b50610200610e2b565b6101e96103d636600461234a565b610e3a565b3480156103e757600080fd5b506101e96103f636600461226b565b610fdd565b34801561040757600080fd5b506101e96104163660046123f5565b610fe8565b34801561042757600080fd5b506101e96104363660046121f2565b6110c1565b6101e961044936600461234a565b6110f9565b34801561045a57600080fd5b5061020061046936600461234a565b611164565b34801561047a57600080fd5b506103a6611275565b34801561048f57600080fd5b5061031a6112ec565b3480156104a457600080fd5b506101c16104b3366004612185565b611432565b3480156104c457600080fd5b50610358611460565b6103586104db3660046122f5565b611470565b60006001600160e01b03198216632483248360e11b14806105055750610505826114ac565b92915050565b610514826114fc565b6105395760405162461bcd60e51b815260040161053090612693565b60405180910390fd5b3361054383610cdb565b6001600160a01b0316146105995760405162461bcd60e51b815260206004820152601760248201527f43616c6c6572206973206e6f7420746865206f776e65720000000000000000006044820152606401610530565b600a5434146105ea5760405162461bcd60e51b815260206004820152601a60248201527f4d7573742070617920746865206c697374696e672070726963650000000000006044820152606401610530565b6000811161060a5760405162461bcd60e51b8152600401610530906125c5565b6000828152600b60205260409020600301819055610629333084611519565b6000828152600b602052604090819020600401805460ff19166001908117909155905183917f9339409317fd01fabff48b703019016f49159bacc801ae872d2ca637d226e4c09161067f913091339187916124b1565b60405180910390a25050565b60606000805461069a9061274a565b80601f01602080910402602001604051908101604052809291908181526020018280546106c69061274a565b80156107135780601f106106e857610100808354040283529160200191610713565b820191906000526020600020905b8154815290600101906020018083116106f657829003601f168201915b5050505050905090565b60006107288261167d565b506000908152600460205260409020546001600160a01b031690565b600061074f82610cdb565b9050806001600160a01b0316836001600160a01b031614156107bd5760405162461bcd60e51b815260206004820152602160248201527f4552433732313a20617070726f76616c20746f2063757272656e74206f776e656044820152603960f91b6064820152608401610530565b336001600160a01b03821614806107d957506107d98133611432565b61084b5760405162461bcd60e51b815260206004820152603d60248201527f4552433732313a20617070726f76652063616c6c6572206973206e6f7420746f60448201527f6b656e206f776e6572206f7220617070726f76656420666f7220616c6c0000006064820152608401610530565b61085583836116d0565b505050565b610863826114fc565b61087f5760405162461bcd60e51b815260040161053090612693565b6000828152600b60205260409020600201546001600160a01b031633146108b85760405162461bcd60e51b8152600401610530906126c1565b6108c2828261173e565b5050565b6108d03382611801565b6108ec5760405162461bcd60e51b815260040161053090612578565b610855838383611519565b610900836114fc565b61091c5760405162461bcd60e51b815260040161053090612693565b6000838152600b60205260409020600201546001600160a01b031633146109555760405162461bcd60e51b8152600401610530906126c1565b600081116109755760405162461bcd60e51b8152600401610530906125c5565b6000838152600b60205260409020600301819055610855838361173e565b610855838383604051806020016040528060008152506110c1565b6109b7826114fc565b6109d35760405162461bcd60e51b815260040161053090612693565b6000828152600b602052604090206004015460ff16610a2a5760405162461bcd60e51b8152602060048201526013602482015272151bdad95b881a5cc81b9bdd081b1a5cdd1959606a1b6044820152606401610530565b6000828152600b60205260409020600201546001600160a01b03163314610a635760405162461bcd60e51b8152600401610530906126c1565b60008111610a835760405162461bcd60e51b8152600401610530906125c5565b6000918252600b602052604090912060030155565b60606000610aa560075490565b905060008080805b84811015610b3d5733600b6000610ac5846001612706565b81526020810191909152604001600020600101546001600160a01b03161480610b18575033600b6000610af9846001612706565b81526020810191909152604001600020600201546001600160a01b0316145b15610b2b57610b28600185612706565b93505b80610b3581612785565b915050610aad565b5060008367ffffffffffffffff811115610b6757634e487b7160e01b600052604160045260246000fd5b604051908082528060200260200182016040528015610ba057816020015b610b8d611fe3565b815260200190600190039081610b855790505b50905060005b85811015610cd15733600b6000610bbe846001612706565b81526020810191909152604001600020600101546001600160a01b03161480610c11575033600b6000610bf2846001612706565b81526020810191909152604001600020600201546001600160a01b0316145b15610cbf57610c21816001612706565b6000818152600b6020908152604091829020825160a0810184528154815260018201546001600160a01b039081169382019390935260028201549092169282019290925260038201546060820152600482015460ff161515608082015284519295509091849087908110610ca557634e487b7160e01b600052603260045260246000fd5b6020908102919091010152610cbb600186612706565b9450505b80610cc981612785565b915050610ba6565b5095945050505050565b6000818152600260205260408120546001600160a01b0316806105055760405162461bcd60e51b8152602060048201526018602482015277115490cdcc8c4e881a5b9d985b1a59081d1bdad95b88125160421b6044820152606401610530565b60006001600160a01b038216610da55760405162461bcd60e51b815260206004820152602960248201527f4552433732313a2061646472657373207a65726f206973206e6f7420612076616044820152683634b21037bbb732b960b91b6064820152608401610530565b506001600160a01b031660009081526003602052604090205490565b610dc9611fe3565b506000908152600b6020908152604091829020825160a0810184528154815260018201546001600160a01b03908116938201939093526002820154909216928201929092526003820154606082015260049091015460ff161515608082015290565b60606001805461069a9061274a565b6000818152600b6020526040902060038101546002909101546001600160a01b0316348214610ed3576040805162461bcd60e51b81526020600482015260248101919091527f506c65617365207375626d6974207468652061736b696e67207072696365206960448201527f6e206f7264657220746f20636f6d706c657465207468652070757263686173656064820152608401610530565b6000838152600b6020526040902060048101805460ff1916905560020180546001600160a01b03191633179055610f0e600880546001019055565b610f19303385611519565b600954600a546040516001600160a01b039092169181156108fc0291906000818181858888f19350505050158015610f55573d6000803e3d6000fd5b506040516001600160a01b038216903480156108fc02916000818181858888f19350505050158015610f8b573d6000803e3d6000fd5b50604080513381526001600160a01b038316602082015290810183905283907f8562eb94748e30bb0071e932744ce902b460c683474fcb3bfd567ffa16b1afb2906060015b60405180910390a2505050565b6108c233838361185f565b610ff1826114fc565b61100d5760405162461bcd60e51b815260040161053090612693565b6000828152600b60205260409020600201546001600160a01b031633146110465760405162461bcd60e51b8152600401610530906126c1565b6000828152600b602052604090206004015460ff1661109d5760405162461bcd60e51b8152602060048201526013602482015272151bdad95b881a5cc81b9bdd081b1a5cdd1959606a1b6044820152606401610530565b6000828152600b60205260409020600401805460ff191690556108c2303384611519565b6110cb3383611801565b6110e75760405162461bcd60e51b815260040161053090612578565b6110f38484848461192e565b50505050565b6009546001600160a01b0316331461115f5760405162461bcd60e51b815260206004820152602360248201527f4f6e6c79206f776e65722063616e20757064617465206c697374696e6720707260448201526269636560e81b6064820152608401610530565b600a55565b606061116f8261167d565b600082815260066020526040812080546111889061274a565b80601f01602080910402602001604051908101604052809291908181526020018280546111b49061274a565b80156112015780601f106111d657610100808354040283529160200191611201565b820191906000526020600020905b8154815290600101906020018083116111e457829003601f168201915b50505050509050600061121f60408051602081019091526000815290565b9050805160001415611232575092915050565b81511561126457808260405160200161124c929190612482565b60405160208183030381529060405292505050919050565b61126d84611961565b949350505050565b61127d611fe3565b600061128860075490565b6000908152600b6020908152604091829020825160a0810184528154815260018201546001600160a01b03908116938201939093526002820154909216928201929092526003820154606082015260049091015460ff161515608082015292915050565b606060006112f960075490565b905060008167ffffffffffffffff81111561132457634e487b7160e01b600052604160045260246000fd5b60405190808252806020026020018201604052801561135d57816020015b61134a611fe3565b8152602001906001900390816113425790505b509050600080805b8481101561142857611378816001612706565b6000818152600b6020908152604091829020825160a0810184528154815260018201546001600160a01b039081169382019390935260028201549092169282019290925260038201546060820152600482015460ff1615156080820152865192945090918690869081106113fc57634e487b7160e01b600052603260045260246000fd5b6020908102919091010152611412600185612706565b935050808061142090612785565b915050611365565b5091949350505050565b6001600160a01b03918216600090815260056020908152604080832093909416825291909152205460ff1690565b600061146b60075490565b905090565b6000611480600780546001019055565b600061148b60075490565b905061149733826119d5565b6114a1818661173e565b61126d8185856119ef565b60006001600160e01b031982166380ac58cd60e01b14806114dd57506001600160e01b03198216635b5e139f60e01b145b8061050557506301ffc9a760e01b6001600160e01b0319831614610505565b6000908152600260205260409020546001600160a01b0316151590565b826001600160a01b031661152c82610cdb565b6001600160a01b0316146115525760405162461bcd60e51b81526004016105309061264e565b6001600160a01b0382166115b45760405162461bcd60e51b8152602060048201526024808201527f4552433732313a207472616e7366657220746f20746865207a65726f206164646044820152637265737360e01b6064820152608401610530565b826001600160a01b03166115c782610cdb565b6001600160a01b0316146115ed5760405162461bcd60e51b81526004016105309061264e565b600081815260046020908152604080832080546001600160a01b03199081169091556001600160a01b0387811680865260038552838620805460001901905590871680865283862080546001019055868652600290945282852080549092168417909155905184937fddf252ad1be2c89b69c2b068fc378daa952ba7f163c4a11628f55a4df523b3ef91a4505050565b611686816114fc565b6116cd5760405162461bcd60e51b8152602060048201526018602482015277115490cdcc8c4e881a5b9d985b1a59081d1bdad95b88125160421b6044820152606401610530565b50565b600081815260046020526040902080546001600160a01b0319166001600160a01b038416908117909155819061170582610cdb565b6001600160a01b03167f8c5be1e5ebec7d5bd14f71427d1e84f3dd0314c0f7b2291e5b200ac8c7c3b92560405160405180910390a45050565b611747826114fc565b6117aa5760405162461bcd60e51b815260206004820152602e60248201527f45524337323155524953746f726167653a2055524920736574206f66206e6f6e60448201526d32bc34b9ba32b73a103a37b5b2b760911b6064820152608401610530565b600082815260066020908152604090912082516117c992840190612011565b506040518281527ff8e1a15aba9398e019f0b49df1a4fde98ee17ae345cb5f6b5e2c27f5033e8ce79060200160405180910390a15050565b60008061180d83610cdb565b9050806001600160a01b0316846001600160a01b0316148061183457506118348185611432565b8061126d5750836001600160a01b031661184d8461071d565b6001600160a01b031614949350505050565b816001600160a01b0316836001600160a01b031614156118c15760405162461bcd60e51b815260206004820152601960248201527f4552433732313a20617070726f766520746f2063616c6c6572000000000000006044820152606401610530565b6001600160a01b03838116600081815260056020908152604080832094871680845294825291829020805460ff191686151590811790915591519182527f17307eab39ab6107e8899845ad3d59bd9653f200f220920489ca2b5937696c31910160405180910390a3505050565b611939848484611519565b61194584848484611bb3565b6110f35760405162461bcd60e51b8152600401610530906125fc565b606061196c8261167d565b600061198360408051602081019091526000815290565b905060008151116119a357604051806020016040528060008152506119ce565b806119ad84611cc0565b6040516020016119be929190612482565b6040516020818303038152906040525b9392505050565b6108c2828260405180602001604052806000815250611d6b565b600a543414611a4c5760405162461bcd60e51b815260206004820152602360248201527f486f706566756c6c792073656e64696e672074686520636f727265637420707260448201526269636560e81b6064820152608401610530565b60008211611aa75760405162461bcd60e51b815260206004820152602260248201527f4d616b652073757265207468652070726963652069736e2774206e6567617469604482015261766560f01b6064820152608401610530565b6040805160a0810182528481523060208083019182523383850190815260608401878152861580156080870190815260008b8152600b909552969093209451855592516001850180546001600160a01b03199081166001600160a01b0393841617909155915160028601805490931691161790559051600383015591516004909101805460ff1916911515919091179055611b7d57611b47333085611519565b827f2668c39fc8c733f56bd5307f551e4057d27338a6a5df3d3a45f840cd73ca183130338585604051610fd094939291906124b1565b827f493045677b3910c4555111111fcc27e7da2686ef7e08ecdb35bb338bb60e9cd230338585604051610fd094939291906124b1565b60006001600160a01b0384163b15611cb557604051630a85bd0160e11b81526001600160a01b0385169063150b7a0290611bf79033908990889088906004016124da565b602060405180830381600087803b158015611c1157600080fd5b505af1925050508015611c41575060408051601f3d908101601f19168201909252611c3e918101906122d9565b60015b611c9b573d808015611c6f576040519150601f19603f3d011682016040523d82523d6000602084013e611c74565b606091505b508051611c935760405162461bcd60e51b8152600401610530906125fc565b805181602001fd5b6001600160e01b031916630a85bd0160e11b14905061126d565b506001949350505050565b60606000611ccd83611d9e565b600101905060008167ffffffffffffffff811115611cfb57634e487b7160e01b600052604160045260246000fd5b6040519080825280601f01601f191660200182016040528015611d25576020820181803683370190505b5090508181016020015b600019016f181899199a1a9b1b9c1cb0b131b232b360811b600a86061a8153600a8504945084611d5e57611d63565b611d2f565b509392505050565b611d758383611e76565b611d826000848484611bb3565b6108555760405162461bcd60e51b8152600401610530906125fc565b60008072184f03e93ff9f4daa797ed6e38ed64bf6a1f0160401b8310611ddd5772184f03e93ff9f4daa797ed6e38ed64bf6a1f0160401b830492506040015b6d04ee2d6d415b85acef81000000008310611e09576d04ee2d6d415b85acef8100000000830492506020015b662386f26fc100008310611e2757662386f26fc10000830492506010015b6305f5e1008310611e3f576305f5e100830492506008015b6127108310611e5357612710830492506004015b60648310611e65576064830492506002015b600a83106105055760010192915050565b6001600160a01b038216611ecc5760405162461bcd60e51b815260206004820181905260248201527f4552433732313a206d696e7420746f20746865207a65726f20616464726573736044820152606401610530565b611ed5816114fc565b15611f225760405162461bcd60e51b815260206004820152601c60248201527f4552433732313a20746f6b656e20616c7265616479206d696e746564000000006044820152606401610530565b611f2b816114fc565b15611f785760405162461bcd60e51b815260206004820152601c60248201527f4552433732313a20746f6b656e20616c7265616479206d696e746564000000006044820152606401610530565b6001600160a01b038216600081815260036020908152604080832080546001019055848352600290915280822080546001600160a01b0319168417905551839291907fddf252ad1be2c89b69c2b068fc378daa952ba7f163c4a11628f55a4df523b3ef908290a45050565b6040805160a08101825260008082526020820181905291810182905260608101829052608081019190915290565b82805461201d9061274a565b90600052602060002090601f01602090048101928261203f5760008555612085565b82601f1061205857805160ff1916838001178555612085565b82800160010185558215612085579182015b8281111561208557825182559160200191906001019061206a565b50612091929150612095565b5090565b5b808211156120915760008155600101612096565b600067ffffffffffffffff808411156120c5576120c56127b6565b604051601f8501601f19908116603f011681019082821181831017156120ed576120ed6127b6565b8160405280935085815286868601111561210657600080fd5b858560208301376000602087830101525050509392505050565b80356001600160a01b038116811461213757600080fd5b919050565b8035801515811461213757600080fd5b600082601f83011261215c578081fd5b6119ce838335602085016120aa565b60006020828403121561217c578081fd5b6119ce82612120565b60008060408385031215612197578081fd5b6121a083612120565b91506121ae60208401612120565b90509250929050565b6000806000606084860312156121cb578081fd5b6121d484612120565b92506121e260208501612120565b9150604084013590509250925092565b60008060008060808587031215612207578081fd5b61221085612120565b935061221e60208601612120565b925060408501359150606085013567ffffffffffffffff811115612240578182fd5b8501601f81018713612250578182fd5b61225f878235602084016120aa565b91505092959194509250565b6000806040838503121561227d578182fd5b61228683612120565b91506121ae6020840161213c565b600080604083850312156122a6578182fd5b6122af83612120565b946020939093013593505050565b6000602082840312156122ce578081fd5b81356119ce816127cc565b6000602082840312156122ea578081fd5b81516119ce816127cc565b600080600060608486031215612309578283fd5b833567ffffffffffffffff81111561231f578384fd5b61232b8682870161214c565b935050602084013591506123416040850161213c565b90509250925092565b60006020828403121561235b578081fd5b5035919050565b60008060408385031215612374578182fd5b82359150602083013567ffffffffffffffff811115612391578182fd5b61239d8582860161214c565b9150509250929050565b6000806000606084860312156123bb578283fd5b83359250602084013567ffffffffffffffff8111156123d8578283fd5b6123e48682870161214c565b925050604084013590509250925092565b60008060408385031215612407578182fd5b50508035926020909101359150565b6000815180845261242e81602086016020860161271e565b601f01601f19169290920160200192915050565b805182526020808201516001600160a01b039081169184019190915260408083015190911690830152606080820151908301526080908101511515910152565b6000835161249481846020880161271e565b8351908301906124a881836020880161271e565b01949350505050565b6001600160a01b0394851681529290931660208301526040820152901515606082015260800190565b6001600160a01b038581168252841660208201526040810183905260806060820181905260009061250d90830184612416565b9695505050505050565b6020808252825182820181905260009190848201906040850190845b8181101561255957612546838551612442565b9284019260a09290920191600101612533565b50909695505050505050565b6020815260006119ce6020830184612416565b6020808252602d908201527f4552433732313a2063616c6c6572206973206e6f7420746f6b656e206f776e6560408201526c1c881bdc88185c1c1c9bdd9959609a1b606082015260800190565b6020808252601f908201527f5072696365206d7573742062652067726561746572207468616e207a65726f00604082015260600190565b60208082526032908201527f4552433732313a207472616e7366657220746f206e6f6e20455243373231526560408201527131b2b4bb32b91034b6b83632b6b2b73a32b960711b606082015260800190565b60208082526025908201527f4552433732313a207472616e736665722066726f6d20696e636f72726563742060408201526437bbb732b960d91b606082015260800190565b602080825260149082015273151bdad95b88191bd95cc81b9bdd08195e1a5cdd60621b604082015260600190565b60208082526018908201527f43616c6c6572206973206e6f74207468652073656c6c65720000000000000000604082015260600190565b60a081016105058284612442565b60008219821115612719576127196127a0565b500190565b60005b83811015612739578181015183820152602001612721565b838111156110f35750506000910152565b600181811c9082168061275e57607f821691505b6020821081141561277f57634e487b7160e01b600052602260045260246000fd5b50919050565b6000600019821415612799576127996127a0565b5060010190565b634e487b7160e01b600052601160045260246000fd5b634e487b7160e01b600052604160045260246000fd5b6001600160e01b0319811681146116cd57600080fdfea2646970667358221220798a726859f793370f927f00e9b109629b9490a2fb7beeec4212d172ed7881c864736f6c63430008040033",
  "linkReferences": {},
  "deployedLinkReferences": {}
}