{
  "_format": "hh-sol-artifact-1",
  "contractName": "NFTMarketplace",
  "sourceName": "contracts/NFTMarketplace.sol",
  "abi": [
    {
      "inputs": [],
      "stateMutability": "nonpayable",
      "type": "constructor"
    },
    {
      "anonymous": false,
      "inputs": [
        {
          "indexed": true,
          "internalType": "address",
          "name": "owner",
          "type": "address"
        },
        {
          "indexed": true,
          "internalType": "address",
          "name": "approved",
          "type": "address"
        },
        {
          "indexed": true,
          "internalType": "uint256",
          "name": "tokenId",
          "type": "uint256"
        }
      ],
      "name": "Approval",
      "type": "event"
    },
    {
      "anonymous": false,
      "inputs": [
        {
          "indexed": true,
          "internalType": "address",
          "name": "owner",
          "type": "address"
        },
        {
          "indexed": true,
          "internalType": "address",
          "name": "operator",
          "type": "address"
        },
        {
          "indexed": false,
          "internalType": "bool",
          "name": "approved",
          "type": "bool"
        }
      ],
      "name": "ApprovalForAll",
      "type": "event"
    },
    {
      "anonymous": false,
      "inputs": [
        {
          "indexed": false,
          "internalType": "uint256",
          "name": "_fromTokenId",
          "type": "uint256"
        },
        {
          "indexed": false,
          "internalType": "uint256",
          "name": "_toTokenId",
          "type": "uint256"
        }
      ],
      "name": "BatchMetadataUpdate",
      "type": "event"
    },
    {
      "anonymous": false,
      "inputs": [
        {
          "indexed": false,
          "internalType": "uint256",
          "name": "_tokenId",
          "type": "uint256"
        }
      ],
      "name": "MetadataUpdate",
      "type": "event"
    },
    {
      "anonymous": false,
      "inputs": [
        {
          "indexed": true,
          "internalType": "uint256",
          "name": "tokenId",
          "type": "uint256"
        },
        {
          "indexed": false,
          "internalType": "address",
          "name": "buyer",
          "type": "address"
        },
        {
          "indexed": false,
          "internalType": "address",
          "name": "seller",
          "type": "address"
        },
        {
          "indexed": false,
          "internalType": "uint256",
          "name": "price",
          "type": "uint256"
        }
      ],
      "name": "NFTSold",
      "type": "event"
    },
    {
      "anonymous": false,
      "inputs": [
        {
          "indexed": true,
          "internalType": "uint256",
          "name": "tokenId",
          "type": "uint256"
        },
        {
          "indexed": false,
          "internalType": "address",
          "name": "owner",
          "type": "address"
        },
        {
          "indexed": false,
          "internalType": "address",
          "name": "seller",
          "type": "address"
        },
        {
          "indexed": false,
          "internalType": "uint256",
          "name": "price",
          "type": "uint256"
        },
        {
          "indexed": false,
          "internalType": "bool",
          "name": "currentlyListed",
          "type": "bool"
        }
      ],
      "name": "TokenDeListedSuccess",
      "type": "event"
    },
    {
      "anonymous": false,
      "inputs": [
        {
          "indexed": true,
          "internalType": "uint256",
          "name": "tokenId",
          "type": "uint256"
        },
        {
          "indexed": false,
          "internalType": "address",
          "name": "owner",
          "type": "address"
        },
        {
          "indexed": false,
          "internalType": "address",
          "name": "seller",
          "type": "address"
        },
        {
          "indexed": false,
          "internalType": "uint256",
          "name": "price",
          "type": "uint256"
        },
        {
          "indexed": false,
          "internalType": "bool",
          "name": "currentlyListed",
          "type": "bool"
        }
      ],
      "name": "TokenListedSuccess",
      "type": "event"
    },
    {
      "anonymous": false,
      "inputs": [
        {
          "indexed": true,
          "internalType": "uint256",
          "name": "tokenId",
          "type": "uint256"
        },
        {
          "indexed": false,
          "internalType": "address",
          "name": "owner",
          "type": "address"
        },
        {
          "indexed": false,
          "internalType": "address",
          "name": "seller",
          "type": "address"
        },
        {
          "indexed": false,
          "internalType": "uint256",
          "name": "price",
          "type": "uint256"
        },
        {
          "indexed": false,
          "internalType": "bool",
          "name": "currentlyListed",
          "type": "bool"
        }
      ],
      "name": "TokenMintSuccess",
      "type": "event"
    },
    {
      "anonymous": false,
      "inputs": [
        {
          "indexed": true,
          "internalType": "address",
          "name": "from",
          "type": "address"
        },
        {
          "indexed": true,
          "internalType": "address",
          "name": "to",
          "type": "address"
        },
        {
          "indexed": true,
          "internalType": "uint256",
          "name": "tokenId",
          "type": "uint256"
        }
      ],
      "name": "Transfer",
      "type": "event"
    },
    {
      "inputs": [
        {
          "internalType": "address",
          "name": "to",
          "type": "address"
        },
        {
          "internalType": "uint256",
          "name": "tokenId",
          "type": "uint256"
        }
      ],
      "name": "approve",
      "outputs": [],
      "stateMutability": "nonpayable",
      "type": "function"
    },
    {
      "inputs": [
        {
          "internalType": "address",
          "name": "owner",
          "type": "address"
        }
      ],
      "name": "balanceOf",
      "outputs": [
        {
          "internalType": "uint256",
          "name": "",
          "type": "uint256"
        }
      ],
      "stateMutability": "view",
      "type": "function"
    },
    {
      "inputs": [
        {
          "internalType": "string",
          "name": "tokenURI",
          "type": "string"
        },
        {
          "internalType": "uint256",
          "name": "price",
          "type": "uint256"
        },
        {
          "internalType": "bool",
          "name": "listNFT",
          "type": "bool"
        }
      ],
      "name": "createToken",
      "outputs": [
        {
          "internalType": "uint256",
          "name": "",
          "type": "uint256"
        }
      ],
      "stateMutability": "payable",
      "type": "function"
    },
    {
      "inputs": [
        {
          "internalType": "uint256",
          "name": "tokenId",
          "type": "uint256"
        }
      ],
      "name": "delistTokenFromMarketplace",
      "outputs": [],
      "stateMutability": "nonpayable",
      "type": "function"
    },
    {
      "inputs": [
        {
          "internalType": "uint256",
          "name": "tokenId",
          "type": "uint256"
        }
      ],
      "name": "executeSale",
      "outputs": [],
      "stateMutability": "payable",
      "type": "function"
    },
    {
      "inputs": [],
      "name": "getAllNFTs",
      "outputs": [
        {
          "components": [
            {
              "internalType": "uint256",
              "name": "tokenId",
              "type": "uint256"
            },
            {
              "internalType": "address payable",
              "name": "owner",
              "type": "address"
            },
            {
              "internalType": "address payable",
              "name": "seller",
              "type": "address"
            },
            {
              "internalType": "uint256",
              "name": "price",
              "type": "uint256"
            },
            {
              "internalType": "bool",
              "name": "currentlyListed",
              "type": "bool"
            }
          ],
          "internalType": "struct NFTMarketplace.ListedToken[]",
          "name": "",
          "type": "tuple[]"
        }
      ],
      "stateMutability": "view",
      "type": "function"
    },
    {
      "inputs": [
        {
          "internalType": "uint256",
          "name": "tokenId",
          "type": "uint256"
        }
      ],
      "name": "getApproved",
      "outputs": [
        {
          "internalType": "address",
          "name": "",
          "type": "address"
        }
      ],
      "stateMutability": "view",
      "type": "function"
    },
    {
      "inputs": [],
      "name": "getCurrentToken",
      "outputs": [
        {
          "internalType": "uint256",
          "name": "",
          "type": "uint256"
        }
      ],
      "stateMutability": "view",
      "type": "function"
    },
    {
      "inputs": [],
      "name": "getLatestIdToListedToken",
      "outputs": [
        {
          "components": [
            {
              "internalType": "uint256",
              "name": "tokenId",
              "type": "uint256"
            },
            {
              "internalType": "address payable",
              "name": "owner",
              "type": "address"
            },
            {
              "internalType": "address payable",
              "name": "seller",
              "type": "address"
            },
            {
              "internalType": "uint256",
              "name": "price",
              "type": "uint256"
            },
            {
              "internalType": "bool",
              "name": "currentlyListed",
              "type": "bool"
            }
          ],
          "internalType": "struct NFTMarketplace.ListedToken",
          "name": "",
          "type": "tuple"
        }
      ],
      "stateMutability": "view",
      "type": "function"
    },
    {
      "inputs": [],
      "name": "getListPrice",
      "outputs": [
        {
          "internalType": "uint256",
          "name": "",
          "type": "uint256"
        }
      ],
      "stateMutability": "view",
      "type": "function"
    },
    {
      "inputs": [
        {
          "internalType": "uint256",
          "name": "tokenId",
          "type": "uint256"
        }
      ],
      "name": "getListedTokenForId",
      "outputs": [
        {
          "components": [
            {
              "internalType": "uint256",
              "name": "tokenId",
              "type": "uint256"
            },
            {
              "internalType": "address payable",
              "name": "owner",
              "type": "address"
            },
            {
              "internalType": "address payable",
              "name": "seller",
              "type": "address"
            },
            {
              "internalType": "uint256",
              "name": "price",
              "type": "uint256"
            },
            {
              "internalType": "bool",
              "name": "currentlyListed",
              "type": "bool"
            }
          ],
          "internalType": "struct NFTMarketplace.ListedToken",
          "name": "",
          "type": "tuple"
        }
      ],
      "stateMutability": "view",
      "type": "function"
    },
    {
      "inputs": [],
      "name": "getMyNFTs",
      "outputs": [
        {
          "components": [
            {
              "internalType": "uint256",
              "name": "tokenId",
              "type": "uint256"
            },
            {
              "internalType": "address payable",
              "name": "owner",
              "type": "address"
            },
            {
              "internalType": "address payable",
              "name": "seller",
              "type": "address"
            },
            {
              "internalType": "uint256",
              "name": "price",
              "type": "uint256"
            },
            {
              "internalType": "bool",
              "name": "currentlyListed",
              "type": "bool"
            }
          ],
          "internalType": "struct NFTMarketplace.ListedToken[]",
          "name": "",
          "type": "tuple[]"
        }
      ],
      "stateMutability": "view",
      "type": "function"
    },
    {
      "inputs": [
        {
          "internalType": "address",
          "name": "owner",
          "type": "address"
        },
        {
          "internalType": "address",
          "name": "operator",
          "type": "address"
        }
      ],
      "name": "isApprovedForAll",
      "outputs": [
        {
          "internalType": "bool",
          "name": "",
          "type": "bool"
        }
      ],
      "stateMutability": "view",
      "type": "function"
    },
    {
      "inputs": [
        {
          "internalType": "uint256",
          "name": "tokenId",
          "type": "uint256"
        },
        {
          "internalType": "uint256",
          "name": "price",
          "type": "uint256"
        }
      ],
      "name": "listTokenOnMarketplace",
      "outputs": [],
      "stateMutability": "payable",
      "type": "function"
    },
    {
      "inputs": [],
      "name": "name",
      "outputs": [
        {
          "internalType": "string",
          "name": "",
          "type": "string"
        }
      ],
      "stateMutability": "view",
      "type": "function"
    },
    {
      "inputs": [
        {
          "internalType": "uint256",
          "name": "tokenId",
          "type": "uint256"
        }
      ],
      "name": "ownerOf",
      "outputs": [
        {
          "internalType": "address",
          "name": "",
          "type": "address"
        }
      ],
      "stateMutability": "view",
      "type": "function"
    },
    {
      "inputs": [
        {
          "internalType": "address",
          "name": "from",
          "type": "address"
        },
        {
          "internalType": "address",
          "name": "to",
          "type": "address"
        },
        {
          "internalType": "uint256",
          "name": "tokenId",
          "type": "uint256"
        }
      ],
      "name": "safeTransferFrom",
      "outputs": [],
      "stateMutability": "nonpayable",
      "type": "function"
    },
    {
      "inputs": [
        {
          "internalType": "address",
          "name": "from",
          "type": "address"
        },
        {
          "internalType": "address",
          "name": "to",
          "type": "address"
        },
        {
          "internalType": "uint256",
          "name": "tokenId",
          "type": "uint256"
        },
        {
          "internalType": "bytes",
          "name": "data",
          "type": "bytes"
        }
      ],
      "name": "safeTransferFrom",
      "outputs": [],
      "stateMutability": "nonpayable",
      "type": "function"
    },
    {
      "inputs": [
        {
          "internalType": "address",
          "name": "operator",
          "type": "address"
        },
        {
          "internalType": "bool",
          "name": "approved",
          "type": "bool"
        }
      ],
      "name": "setApprovalForAll",
      "outputs": [],
      "stateMutability": "nonpayable",
      "type": "function"
    },
    {
      "inputs": [
        {
          "internalType": "bytes4",
          "name": "interfaceId",
          "type": "bytes4"
        }
      ],
      "name": "supportsInterface",
      "outputs": [
        {
          "internalType": "bool",
          "name": "",
          "type": "bool"
        }
      ],
      "stateMutability": "view",
      "type": "function"
    },
    {
      "inputs": [],
      "name": "symbol",
      "outputs": [
        {
          "internalType": "string",
          "name": "",
          "type": "string"
        }
      ],
      "stateMutability": "view",
      "type": "function"
    },
    {
      "inputs": [
        {
          "internalType": "uint256",
          "name": "tokenId",
          "type": "uint256"
        }
      ],
      "name": "tokenURI",
      "outputs": [
        {
          "internalType": "string",
          "name": "",
          "type": "string"
        }
      ],
      "stateMutability": "view",
      "type": "function"
    },
    {
      "inputs": [
        {
          "internalType": "address",
          "name": "from",
          "type": "address"
        },
        {
          "internalType": "address",
          "name": "to",
          "type": "address"
        },
        {
          "internalType": "uint256",
          "name": "tokenId",
          "type": "uint256"
        }
      ],
      "name": "transferFrom",
      "outputs": [],
      "stateMutability": "nonpayable",
      "type": "function"
    },
    {
      "inputs": [
        {
          "internalType": "uint256",
          "name": "_listPrice",
          "type": "uint256"
        }
      ],
      "name": "updateListPrice",
      "outputs": [],
      "stateMutability": "payable",
      "type": "function"
    },
    {
      "inputs": [
        {
          "internalType": "uint256",
          "name": "tokenId",
          "type": "uint256"
        },
        {
          "internalType": "uint256",
          "name": "newPrice",
          "type": "uint256"
        }
      ],
      "name": "updateSellingPrice",
      "outputs": [],
      "stateMutability": "nonpayable",
      "type": "function"
    }
  ],
  "bytecode": "0x6080604052662386f26fc10000600a553480156200001c57600080fd5b50604080518082018252600e81526d4e46544d61726b6574706c61636560901b6020808301918252835180850190945260048452634e46544d60e01b9084015281519192916200006f91600091620000a0565b50805162000085906001906020840190620000a0565b5050600980546001600160a01b031916331790555062000183565b828054620000ae9062000146565b90600052602060002090601f016020900481019282620000d257600085556200011d565b82601f10620000ed57805160ff19168380011785556200011d565b828001600101855582156200011d579182015b828111156200011d57825182559160200191906001019062000100565b506200012b9291506200012f565b5090565b5b808211156200012b576000815560010162000130565b600181811c908216806200015b57607f821691505b602082108114156200017d57634e487b7160e01b600052602260045260246000fd5b50919050565b6126b480620001936000396000f3fe6080604052600436106101665760003560e01c80638e264590116100d1578063c322579c1161008a578063e0391b0911610064578063e0391b091461040d578063e985e9c514610422578063ef2d174614610442578063fe97b82e1461045757600080fd5b8063c322579c146103c5578063c87b56dd146103d8578063d1a88ae5146103f857600080fd5b80638e2645901461031057806395d89b411461033d5780639b1225c414610352578063a22cb46514610365578063ae31bd9a14610385578063b88d4fde146103a557600080fd5b806342842e0e1161012357806342842e0e1461024f578063571a2b6f1461026f578063629cb2e41461028f5780636352211e146102b157806368f1945f146102d157806370a08231146102f057600080fd5b806301ffc9a71461016b57806302b75eda146101a057806306fdde03146101b5578063081812fc146101d7578063095ea7b31461020f57806323b872dd1461022f575b600080fd5b34801561017757600080fd5b5061018b610186366004612247565b61046a565b60405190151581526020015b60405180910390f35b6101b36101ae3660046122ff565b610495565b005b3480156101c157600080fd5b506101ca61069e565b604051610197919061246f565b3480156101e357600080fd5b506101f76101f23660046122e7565b610730565b6040516001600160a01b039091168152602001610197565b34801561021b57600080fd5b506101b361022a36600461221e565b610757565b34801561023b57600080fd5b506101b361024a366004612141565b61086d565b34801561025b57600080fd5b506101b361026a366004612141565b61089e565b34801561027b57600080fd5b506101b361028a3660046122ff565b6108b9565b34801561029b57600080fd5b506102a4610a03565b6040516101979190612421565b3480156102bd57600080fd5b506101f76102cc3660046122e7565b610c46565b3480156102dd57600080fd5b50600a545b604051908152602001610197565b3480156102fc57600080fd5b506102e261030b3660046120f5565b610ca6565b34801561031c57600080fd5b5061033061032b3660046122e7565b610d2c565b6040516101979190612594565b34801561034957600080fd5b506101ca610d96565b6101b36103603660046122e7565b610da5565b34801561037157600080fd5b506101b36103803660046121f5565b610f55565b34801561039157600080fd5b506101b36103a03660046122e7565b610f64565b3480156103b157600080fd5b506101b36103c036600461217c565b6110a0565b6101b36103d33660046122e7565b6110d8565b3480156103e457600080fd5b506101ca6103f33660046122e7565b611143565b34801561040457600080fd5b50610330611254565b34801561041957600080fd5b506102a46112cb565b34801561042e57600080fd5b5061018b61043d36600461210f565b611411565b34801561044e57600080fd5b506102e261143f565b6102e261046536600461227f565b61144f565b60006001600160e01b03198216632483248360e11b148061048f575061048f8261148b565b92915050565b61049e826114db565b6104c35760405162461bcd60e51b81526004016104ba90612566565b60405180910390fd5b336104cd83610c46565b6001600160a01b03161461051d5760405162461bcd60e51b815260206004820152601760248201527621b0b63632b91034b9903737ba103a34329037bbb732b960491b60448201526064016104ba565b600a54341461056e5760405162461bcd60e51b815260206004820152601a60248201527f4d7573742070617920746865206c697374696e6720707269636500000000000060448201526064016104ba565b600081116105be5760405162461bcd60e51b815260206004820152601f60248201527f5072696365206d7573742062652067726561746572207468616e207a65726f0060448201526064016104ba565b6040805160a081018252838152306020808301828152338486018181526060860188815260016080880181815260008c8152600b9097529890952096518755925193860180546001600160a01b039586166001600160a01b03199182161790915590516002870180549190951691161790925551600384015592516004909201805492151560ff199093169290921790915561065b9190846114f8565b817f9339409317fd01fabff48b703019016f49159bacc801ae872d2ca637d226e4c0303384600160405161069294939291906123bb565b60405180910390a25050565b6060600080546106ad906125e6565b80601f01602080910402602001604051908101604052809291908181526020018280546106d9906125e6565b80156107265780601f106106fb57610100808354040283529160200191610726565b820191906000526020600020905b81548152906001019060200180831161070957829003601f168201915b5050505050905090565b600061073b8261165c565b506000908152600460205260409020546001600160a01b031690565b600061076282610c46565b9050806001600160a01b0316836001600160a01b031614156107d05760405162461bcd60e51b815260206004820152602160248201527f4552433732313a20617070726f76616c20746f2063757272656e74206f776e656044820152603960f91b60648201526084016104ba565b336001600160a01b03821614806107ec57506107ec8133611411565b61085e5760405162461bcd60e51b815260206004820152603d60248201527f4552433732313a20617070726f76652063616c6c6572206973206e6f7420746f60448201527f6b656e206f776e6572206f7220617070726f76656420666f7220616c6c00000060648201526084016104ba565b61086883836116af565b505050565b610877338261171d565b6108935760405162461bcd60e51b81526004016104ba90612482565b6108688383836114f8565b610868838383604051806020016040528060008152506110a0565b6108c2826114db565b6108de5760405162461bcd60e51b81526004016104ba90612566565b6000828152600b602052604090206004015460ff166109355760405162461bcd60e51b8152602060048201526013602482015272151bdad95b881a5cc81b9bdd081b1a5cdd1959606a1b60448201526064016104ba565b6000828152600b60205260409020600201546001600160a01b0316331461099e5760405162461bcd60e51b815260206004820152601860248201527f43616c6c6572206973206e6f74207468652073656c6c6572000000000000000060448201526064016104ba565b600081116109ee5760405162461bcd60e51b815260206004820152601f60248201527f5072696365206d7573742062652067726561746572207468616e207a65726f0060448201526064016104ba565b6000918252600b602052604090912060030155565b60606000610a1060075490565b905060008080805b84811015610aa85733600b6000610a308460016125a2565b81526020810191909152604001600020600101546001600160a01b03161480610a83575033600b6000610a648460016125a2565b81526020810191909152604001600020600201546001600160a01b0316145b15610a9657610a936001856125a2565b93505b80610aa081612621565b915050610a18565b5060008367ffffffffffffffff811115610ad257634e487b7160e01b600052604160045260246000fd5b604051908082528060200260200182016040528015610b0b57816020015b610af8611f8c565b815260200190600190039081610af05790505b50905060005b85811015610c3c5733600b6000610b298460016125a2565b81526020810191909152604001600020600101546001600160a01b03161480610b7c575033600b6000610b5d8460016125a2565b81526020810191909152604001600020600201546001600160a01b0316145b15610c2a57610b8c8160016125a2565b6000818152600b6020908152604091829020825160a0810184528154815260018201546001600160a01b039081169382019390935260028201549092169282019290925260038201546060820152600482015460ff161515608082015284519295509091849087908110610c1057634e487b7160e01b600052603260045260246000fd5b6020908102919091010152610c266001866125a2565b9450505b80610c3481612621565b915050610b11565b5095945050505050565b6000818152600260205260408120546001600160a01b03168061048f5760405162461bcd60e51b8152602060048201526018602482015277115490cdcc8c4e881a5b9d985b1a59081d1bdad95b88125160421b60448201526064016104ba565b60006001600160a01b038216610d105760405162461bcd60e51b815260206004820152602960248201527f4552433732313a2061646472657373207a65726f206973206e6f7420612076616044820152683634b21037bbb732b960b91b60648201526084016104ba565b506001600160a01b031660009081526003602052604090205490565b610d34611f8c565b506000908152600b6020908152604091829020825160a0810184528154815260018201546001600160a01b03908116938201939093526002820154909216928201929092526003820154606082015260049091015460ff161515608082015290565b6060600180546106ad906125e6565b6000818152600b6020526040902060038101546002909101546001600160a01b0316348214610e3e576040805162461bcd60e51b81526020600482015260248101919091527f506c65617365207375626d6974207468652061736b696e67207072696365206960448201527f6e206f7264657220746f20636f6d706c6574652074686520707572636861736560648201526084016104ba565b6000838152600b6020526040902060048101805460ff1916600117905560020180546001600160a01b03191633179055610e7c600880546001019055565b610e873033856114f8565b610e913084610757565b600954600a546040516001600160a01b039092169181156108fc0291906000818181858888f19350505050158015610ecd573d6000803e3d6000fd5b506040516001600160a01b038216903480156108fc02916000818181858888f19350505050158015610f03573d6000803e3d6000fd5b50604080513381526001600160a01b038316602082015290810183905283907f8562eb94748e30bb0071e932744ce902b460c683474fcb3bfd567ffa16b1afb2906060015b60405180910390a2505050565b610f6033838361177b565b5050565b610f6d816114db565b610f895760405162461bcd60e51b81526004016104ba90612566565b33610f9382610c46565b6001600160a01b031614610fe35760405162461bcd60e51b815260206004820152601760248201527621b0b63632b91034b9903737ba103a34329037bbb732b960491b60448201526064016104ba565b6000818152600b602052604090206004015460ff1661103a5760405162461bcd60e51b8152602060048201526013602482015272151bdad95b881a5cc81b9bdd081b1a5cdd1959606a1b60448201526064016104ba565b6000818152600b60205260409020600401805460ff1916905561105e3033836114f8565b807f75bda7021f29b232c380d85e698be6efc8fc238a86afd357b8d609778a5a71fe303360008060405161109594939291906123bb565b60405180910390a250565b6110aa338361171d565b6110c65760405162461bcd60e51b81526004016104ba90612482565b6110d28484848461184a565b50505050565b6009546001600160a01b0316331461113e5760405162461bcd60e51b815260206004820152602360248201527f4f6e6c79206f776e65722063616e20757064617465206c697374696e6720707260448201526269636560e81b60648201526084016104ba565b600a55565b606061114e8261165c565b60008281526006602052604081208054611167906125e6565b80601f0160208091040260200160405190810160405280929190818152602001828054611193906125e6565b80156111e05780601f106111b5576101008083540402835291602001916111e0565b820191906000526020600020905b8154815290600101906020018083116111c357829003601f168201915b5050505050905060006111fe60408051602081019091526000815290565b9050805160001415611211575092915050565b81511561124357808260405160200161122b92919061238c565b60405160208183030381529060405292505050919050565b61124c8461187d565b949350505050565b61125c611f8c565b600061126760075490565b6000908152600b6020908152604091829020825160a0810184528154815260018201546001600160a01b03908116938201939093526002820154909216928201929092526003820154606082015260049091015460ff161515608082015292915050565b606060006112d860075490565b905060008167ffffffffffffffff81111561130357634e487b7160e01b600052604160045260246000fd5b60405190808252806020026020018201604052801561133c57816020015b611329611f8c565b8152602001906001900390816113215790505b509050600080805b84811015611407576113578160016125a2565b6000818152600b6020908152604091829020825160a0810184528154815260018201546001600160a01b039081169382019390935260028201549092169282019290925260038201546060820152600482015460ff1615156080820152865192945090918690869081106113db57634e487b7160e01b600052603260045260246000fd5b60209081029190910101526113f16001856125a2565b93505080806113ff90612621565b915050611344565b5091949350505050565b6001600160a01b03918216600090815260056020908152604080832093909416825291909152205460ff1690565b600061144a60075490565b905090565b600061145f600780546001019055565b600061146a60075490565b905061147633826118f1565b611480818661190b565b61124c8185856119ce565b60006001600160e01b031982166380ac58cd60e01b14806114bc57506001600160e01b03198216635b5e139f60e01b145b8061048f57506301ffc9a760e01b6001600160e01b031983161461048f565b6000908152600260205260409020546001600160a01b0316151590565b826001600160a01b031661150b82610c46565b6001600160a01b0316146115315760405162461bcd60e51b81526004016104ba90612521565b6001600160a01b0382166115935760405162461bcd60e51b8152602060048201526024808201527f4552433732313a207472616e7366657220746f20746865207a65726f206164646044820152637265737360e01b60648201526084016104ba565b826001600160a01b03166115a682610c46565b6001600160a01b0316146115cc5760405162461bcd60e51b81526004016104ba90612521565b600081815260046020908152604080832080546001600160a01b03199081169091556001600160a01b0387811680865260038552838620805460001901905590871680865283862080546001019055868652600290945282852080549092168417909155905184937fddf252ad1be2c89b69c2b068fc378daa952ba7f163c4a11628f55a4df523b3ef91a4505050565b611665816114db565b6116ac5760405162461bcd60e51b8152602060048201526018602482015277115490cdcc8c4e881a5b9d985b1a59081d1bdad95b88125160421b60448201526064016104ba565b50565b600081815260046020526040902080546001600160a01b0319166001600160a01b03841690811790915581906116e482610c46565b6001600160a01b03167f8c5be1e5ebec7d5bd14f71427d1e84f3dd0314c0f7b2291e5b200ac8c7c3b92560405160405180910390a45050565b60008061172983610c46565b9050806001600160a01b0316846001600160a01b0316148061175057506117508185611411565b8061124c5750836001600160a01b031661176984610730565b6001600160a01b031614949350505050565b816001600160a01b0316836001600160a01b031614156117dd5760405162461bcd60e51b815260206004820152601960248201527f4552433732313a20617070726f766520746f2063616c6c65720000000000000060448201526064016104ba565b6001600160a01b03838116600081815260056020908152604080832094871680845294825291829020805460ff191686151590811790915591519182527f17307eab39ab6107e8899845ad3d59bd9653f200f220920489ca2b5937696c31910160405180910390a3505050565b6118558484846114f8565b61186184848484611b5c565b6110d25760405162461bcd60e51b81526004016104ba906124cf565b60606118888261165c565b600061189f60408051602081019091526000815290565b905060008151116118bf57604051806020016040528060008152506118ea565b806118c984611c69565b6040516020016118da92919061238c565b6040516020818303038152906040525b9392505050565b610f60828260405180602001604052806000815250611d14565b611914826114db565b6119775760405162461bcd60e51b815260206004820152602e60248201527f45524337323155524953746f726167653a2055524920736574206f66206e6f6e60448201526d32bc34b9ba32b73a103a37b5b2b760911b60648201526084016104ba565b6000828152600660209081526040909120825161199692840190611fba565b506040518281527ff8e1a15aba9398e019f0b49df1a4fde98ee17ae345cb5f6b5e2c27f5033e8ce79060200160405180910390a15050565b600a543414611a2b5760405162461bcd60e51b815260206004820152602360248201527f486f706566756c6c792073656e64696e672074686520636f727265637420707260448201526269636560e81b60648201526084016104ba565b60008211611a865760405162461bcd60e51b815260206004820152602260248201527f4d616b652073757265207468652070726963652069736e2774206e6567617469604482015261766560f01b60648201526084016104ba565b6040805160a0810182528481523060208083019182523383850190815260608401878152861580156080870190815260008b8152600b909552969093209451855592516001850180546001600160a01b03199081166001600160a01b0393841617909155915160028601805490931691161790559051600383015591516004909101805460ff1916911515919091179055611b2657611b263330856114f8565b827f9339409317fd01fabff48b703019016f49159bacc801ae872d2ca637d226e4c030338585604051610f4894939291906123bb565b60006001600160a01b0384163b15611c5e57604051630a85bd0160e11b81526001600160a01b0385169063150b7a0290611ba09033908990889088906004016123e4565b602060405180830381600087803b158015611bba57600080fd5b505af1925050508015611bea575060408051601f3d908101601f19168201909252611be791810190612263565b60015b611c44573d808015611c18576040519150601f19603f3d011682016040523d82523d6000602084013e611c1d565b606091505b508051611c3c5760405162461bcd60e51b81526004016104ba906124cf565b805181602001fd5b6001600160e01b031916630a85bd0160e11b14905061124c565b506001949350505050565b60606000611c7683611d47565b600101905060008167ffffffffffffffff811115611ca457634e487b7160e01b600052604160045260246000fd5b6040519080825280601f01601f191660200182016040528015611cce576020820181803683370190505b5090508181016020015b600019016f181899199a1a9b1b9c1cb0b131b232b360811b600a86061a8153600a8504945084611d0757611d0c565b611cd8565b509392505050565b611d1e8383611e1f565b611d2b6000848484611b5c565b6108685760405162461bcd60e51b81526004016104ba906124cf565b60008072184f03e93ff9f4daa797ed6e38ed64bf6a1f0160401b8310611d865772184f03e93ff9f4daa797ed6e38ed64bf6a1f0160401b830492506040015b6d04ee2d6d415b85acef81000000008310611db2576d04ee2d6d415b85acef8100000000830492506020015b662386f26fc100008310611dd057662386f26fc10000830492506010015b6305f5e1008310611de8576305f5e100830492506008015b6127108310611dfc57612710830492506004015b60648310611e0e576064830492506002015b600a831061048f5760010192915050565b6001600160a01b038216611e755760405162461bcd60e51b815260206004820181905260248201527f4552433732313a206d696e7420746f20746865207a65726f206164647265737360448201526064016104ba565b611e7e816114db565b15611ecb5760405162461bcd60e51b815260206004820152601c60248201527f4552433732313a20746f6b656e20616c7265616479206d696e7465640000000060448201526064016104ba565b611ed4816114db565b15611f215760405162461bcd60e51b815260206004820152601c60248201527f4552433732313a20746f6b656e20616c7265616479206d696e7465640000000060448201526064016104ba565b6001600160a01b038216600081815260036020908152604080832080546001019055848352600290915280822080546001600160a01b0319168417905551839291907fddf252ad1be2c89b69c2b068fc378daa952ba7f163c4a11628f55a4df523b3ef908290a45050565b6040805160a08101825260008082526020820181905291810182905260608101829052608081019190915290565b828054611fc6906125e6565b90600052602060002090601f016020900481019282611fe8576000855561202e565b82601f1061200157805160ff191683800117855561202e565b8280016001018555821561202e579182015b8281111561202e578251825591602001919060010190612013565b5061203a92915061203e565b5090565b5b8082111561203a576000815560010161203f565b600067ffffffffffffffff8084111561206e5761206e612652565b604051601f8501601f19908116603f0116810190828211818310171561209657612096612652565b816040528093508581528686860111156120af57600080fd5b858560208301376000602087830101525050509392505050565b80356001600160a01b03811681146120e057600080fd5b919050565b803580151581146120e057600080fd5b600060208284031215612106578081fd5b6118ea826120c9565b60008060408385031215612121578081fd5b61212a836120c9565b9150612138602084016120c9565b90509250929050565b600080600060608486031215612155578081fd5b61215e846120c9565b925061216c602085016120c9565b9150604084013590509250925092565b60008060008060808587031215612191578081fd5b61219a856120c9565b93506121a8602086016120c9565b925060408501359150606085013567ffffffffffffffff8111156121ca578182fd5b8501601f810187136121da578182fd5b6121e987823560208401612053565b91505092959194509250565b60008060408385031215612207578182fd5b612210836120c9565b9150612138602084016120e5565b60008060408385031215612230578182fd5b612239836120c9565b946020939093013593505050565b600060208284031215612258578081fd5b81356118ea81612668565b600060208284031215612274578081fd5b81516118ea81612668565b600080600060608486031215612293578283fd5b833567ffffffffffffffff8111156122a9578384fd5b8401601f810186136122b9578384fd5b6122c886823560208401612053565b935050602084013591506122de604085016120e5565b90509250925092565b6000602082840312156122f8578081fd5b5035919050565b60008060408385031215612311578182fd5b50508035926020909101359150565b600081518084526123388160208601602086016125ba565b601f01601f19169290920160200192915050565b805182526020808201516001600160a01b039081169184019190915260408083015190911690830152606080820151908301526080908101511515910152565b6000835161239e8184602088016125ba565b8351908301906123b28183602088016125ba565b01949350505050565b6001600160a01b0394851681529290931660208301526040820152901515606082015260800190565b6001600160a01b038581168252841660208201526040810183905260806060820181905260009061241790830184612320565b9695505050505050565b6020808252825182820181905260009190848201906040850190845b818110156124635761245083855161234c565b9284019260a0929092019160010161243d565b50909695505050505050565b6020815260006118ea6020830184612320565b6020808252602d908201527f4552433732313a2063616c6c6572206973206e6f7420746f6b656e206f776e6560408201526c1c881bdc88185c1c1c9bdd9959609a1b606082015260800190565b60208082526032908201527f4552433732313a207472616e7366657220746f206e6f6e20455243373231526560408201527131b2b4bb32b91034b6b83632b6b2b73a32b960711b606082015260800190565b60208082526025908201527f4552433732313a207472616e736665722066726f6d20696e636f72726563742060408201526437bbb732b960d91b606082015260800190565b602080825260149082015273151bdad95b88191bd95cc81b9bdd08195e1a5cdd60621b604082015260600190565b60a0810161048f828461234c565b600082198211156125b5576125b561263c565b500190565b60005b838110156125d55781810151838201526020016125bd565b838111156110d25750506000910152565b600181811c908216806125fa57607f821691505b6020821081141561261b57634e487b7160e01b600052602260045260246000fd5b50919050565b60006000198214156126355761263561263c565b5060010190565b634e487b7160e01b600052601160045260246000fd5b634e487b7160e01b600052604160045260246000fd5b6001600160e01b0319811681146116ac57600080fdfea2646970667358221220d347237a875ca08aca11ac5f038612c77d0aa57681f462e16709bf4c9b71b19664736f6c63430008040033",
  "linkReferences": {},
  "deployedLinkReferences": {}
}