{
  "_format": "hh-sol-artifact-1",
  "contractName": "NFTMarketplace",
  "sourceName": "contracts/NFTMarketplace.sol",
  "abi": [
    {
      "inputs": [],
      "stateMutability": "nonpayable",
      "type": "constructor"
    },
    {
      "anonymous": false,
      "inputs": [
        {
          "indexed": true,
          "internalType": "address",
          "name": "owner",
          "type": "address"
        },
        {
          "indexed": true,
          "internalType": "address",
          "name": "approved",
          "type": "address"
        },
        {
          "indexed": true,
          "internalType": "uint256",
          "name": "tokenId",
          "type": "uint256"
        }
      ],
      "name": "Approval",
      "type": "event"
    },
    {
      "anonymous": false,
      "inputs": [
        {
          "indexed": true,
          "internalType": "address",
          "name": "owner",
          "type": "address"
        },
        {
          "indexed": true,
          "internalType": "address",
          "name": "operator",
          "type": "address"
        },
        {
          "indexed": false,
          "internalType": "bool",
          "name": "approved",
          "type": "bool"
        }
      ],
      "name": "ApprovalForAll",
      "type": "event"
    },
    {
      "anonymous": false,
      "inputs": [
        {
          "indexed": false,
          "internalType": "uint256",
          "name": "_fromTokenId",
          "type": "uint256"
        },
        {
          "indexed": false,
          "internalType": "uint256",
          "name": "_toTokenId",
          "type": "uint256"
        }
      ],
      "name": "BatchMetadataUpdate",
      "type": "event"
    },
    {
      "anonymous": false,
      "inputs": [
        {
          "indexed": false,
          "internalType": "uint256",
          "name": "_tokenId",
          "type": "uint256"
        }
      ],
      "name": "MetadataUpdate",
      "type": "event"
    },
    {
      "anonymous": false,
      "inputs": [
        {
          "indexed": true,
          "internalType": "uint256",
          "name": "tokenId",
          "type": "uint256"
        },
        {
          "indexed": false,
          "internalType": "address",
          "name": "owner",
          "type": "address"
        },
        {
          "indexed": false,
          "internalType": "address",
          "name": "seller",
          "type": "address"
        },
        {
          "indexed": false,
          "internalType": "uint256",
          "name": "price",
          "type": "uint256"
        },
        {
          "indexed": false,
          "internalType": "bool",
          "name": "currentlyListed",
          "type": "bool"
        }
      ],
      "name": "TokenDeListedSuccess",
      "type": "event"
    },
    {
      "anonymous": false,
      "inputs": [
        {
          "indexed": true,
          "internalType": "uint256",
          "name": "tokenId",
          "type": "uint256"
        },
        {
          "indexed": false,
          "internalType": "address",
          "name": "owner",
          "type": "address"
        },
        {
          "indexed": false,
          "internalType": "address",
          "name": "seller",
          "type": "address"
        },
        {
          "indexed": false,
          "internalType": "uint256",
          "name": "price",
          "type": "uint256"
        },
        {
          "indexed": false,
          "internalType": "bool",
          "name": "currentlyListed",
          "type": "bool"
        }
      ],
      "name": "TokenListedSuccess",
      "type": "event"
    },
    {
      "anonymous": false,
      "inputs": [
        {
          "indexed": true,
          "internalType": "uint256",
          "name": "tokenId",
          "type": "uint256"
        },
        {
          "indexed": false,
          "internalType": "address",
          "name": "owner",
          "type": "address"
        },
        {
          "indexed": false,
          "internalType": "address",
          "name": "seller",
          "type": "address"
        },
        {
          "indexed": false,
          "internalType": "uint256",
          "name": "price",
          "type": "uint256"
        },
        {
          "indexed": false,
          "internalType": "bool",
          "name": "currentlyListed",
          "type": "bool"
        }
      ],
      "name": "TokenMintSuccess",
      "type": "event"
    },
    {
      "anonymous": false,
      "inputs": [
        {
          "indexed": true,
          "internalType": "address",
          "name": "from",
          "type": "address"
        },
        {
          "indexed": true,
          "internalType": "address",
          "name": "to",
          "type": "address"
        },
        {
          "indexed": true,
          "internalType": "uint256",
          "name": "tokenId",
          "type": "uint256"
        }
      ],
      "name": "Transfer",
      "type": "event"
    },
    {
      "inputs": [
        {
          "internalType": "address",
          "name": "to",
          "type": "address"
        },
        {
          "internalType": "uint256",
          "name": "tokenId",
          "type": "uint256"
        }
      ],
      "name": "approve",
      "outputs": [],
      "stateMutability": "nonpayable",
      "type": "function"
    },
    {
      "inputs": [
        {
          "internalType": "address",
          "name": "owner",
          "type": "address"
        }
      ],
      "name": "balanceOf",
      "outputs": [
        {
          "internalType": "uint256",
          "name": "",
          "type": "uint256"
        }
      ],
      "stateMutability": "view",
      "type": "function"
    },
    {
      "inputs": [
        {
          "internalType": "string",
          "name": "tokenURI",
          "type": "string"
        },
        {
          "internalType": "uint256",
          "name": "price",
          "type": "uint256"
        },
        {
          "internalType": "bool",
          "name": "listNFT",
          "type": "bool"
        }
      ],
      "name": "createToken",
      "outputs": [
        {
          "internalType": "uint256",
          "name": "",
          "type": "uint256"
        }
      ],
      "stateMutability": "payable",
      "type": "function"
    },
    {
      "inputs": [
        {
          "internalType": "uint256",
          "name": "tokenId",
          "type": "uint256"
        }
      ],
      "name": "delistTokenFromMarketplace",
      "outputs": [],
      "stateMutability": "nonpayable",
      "type": "function"
    },
    {
      "inputs": [
        {
          "internalType": "uint256",
          "name": "tokenId",
          "type": "uint256"
        }
      ],
      "name": "executeSale",
      "outputs": [],
      "stateMutability": "payable",
      "type": "function"
    },
    {
      "inputs": [],
      "name": "getAllNFTs",
      "outputs": [
        {
          "components": [
            {
              "internalType": "uint256",
              "name": "tokenId",
              "type": "uint256"
            },
            {
              "internalType": "address payable",
              "name": "owner",
              "type": "address"
            },
            {
              "internalType": "address payable",
              "name": "seller",
              "type": "address"
            },
            {
              "internalType": "uint256",
              "name": "price",
              "type": "uint256"
            },
            {
              "internalType": "bool",
              "name": "currentlyListed",
              "type": "bool"
            }
          ],
          "internalType": "struct NFTMarketplace.ListedToken[]",
          "name": "",
          "type": "tuple[]"
        }
      ],
      "stateMutability": "view",
      "type": "function"
    },
    {
      "inputs": [
        {
          "internalType": "uint256",
          "name": "tokenId",
          "type": "uint256"
        }
      ],
      "name": "getApproved",
      "outputs": [
        {
          "internalType": "address",
          "name": "",
          "type": "address"
        }
      ],
      "stateMutability": "view",
      "type": "function"
    },
    {
      "inputs": [],
      "name": "getCurrentToken",
      "outputs": [
        {
          "internalType": "uint256",
          "name": "",
          "type": "uint256"
        }
      ],
      "stateMutability": "view",
      "type": "function"
    },
    {
      "inputs": [],
      "name": "getLatestIdToListedToken",
      "outputs": [
        {
          "components": [
            {
              "internalType": "uint256",
              "name": "tokenId",
              "type": "uint256"
            },
            {
              "internalType": "address payable",
              "name": "owner",
              "type": "address"
            },
            {
              "internalType": "address payable",
              "name": "seller",
              "type": "address"
            },
            {
              "internalType": "uint256",
              "name": "price",
              "type": "uint256"
            },
            {
              "internalType": "bool",
              "name": "currentlyListed",
              "type": "bool"
            }
          ],
          "internalType": "struct NFTMarketplace.ListedToken",
          "name": "",
          "type": "tuple"
        }
      ],
      "stateMutability": "view",
      "type": "function"
    },
    {
      "inputs": [],
      "name": "getListPrice",
      "outputs": [
        {
          "internalType": "uint256",
          "name": "",
          "type": "uint256"
        }
      ],
      "stateMutability": "view",
      "type": "function"
    },
    {
      "inputs": [
        {
          "internalType": "uint256",
          "name": "tokenId",
          "type": "uint256"
        }
      ],
      "name": "getListedTokenForId",
      "outputs": [
        {
          "components": [
            {
              "internalType": "uint256",
              "name": "tokenId",
              "type": "uint256"
            },
            {
              "internalType": "address payable",
              "name": "owner",
              "type": "address"
            },
            {
              "internalType": "address payable",
              "name": "seller",
              "type": "address"
            },
            {
              "internalType": "uint256",
              "name": "price",
              "type": "uint256"
            },
            {
              "internalType": "bool",
              "name": "currentlyListed",
              "type": "bool"
            }
          ],
          "internalType": "struct NFTMarketplace.ListedToken",
          "name": "",
          "type": "tuple"
        }
      ],
      "stateMutability": "view",
      "type": "function"
    },
    {
      "inputs": [],
      "name": "getMyNFTs",
      "outputs": [
        {
          "components": [
            {
              "internalType": "uint256",
              "name": "tokenId",
              "type": "uint256"
            },
            {
              "internalType": "address payable",
              "name": "owner",
              "type": "address"
            },
            {
              "internalType": "address payable",
              "name": "seller",
              "type": "address"
            },
            {
              "internalType": "uint256",
              "name": "price",
              "type": "uint256"
            },
            {
              "internalType": "bool",
              "name": "currentlyListed",
              "type": "bool"
            }
          ],
          "internalType": "struct NFTMarketplace.ListedToken[]",
          "name": "",
          "type": "tuple[]"
        }
      ],
      "stateMutability": "view",
      "type": "function"
    },
    {
      "inputs": [
        {
          "internalType": "address",
          "name": "owner",
          "type": "address"
        },
        {
          "internalType": "address",
          "name": "operator",
          "type": "address"
        }
      ],
      "name": "isApprovedForAll",
      "outputs": [
        {
          "internalType": "bool",
          "name": "",
          "type": "bool"
        }
      ],
      "stateMutability": "view",
      "type": "function"
    },
    {
      "inputs": [
        {
          "internalType": "uint256",
          "name": "tokenId",
          "type": "uint256"
        },
        {
          "internalType": "uint256",
          "name": "price",
          "type": "uint256"
        }
      ],
      "name": "listTokenOnMarketplace",
      "outputs": [],
      "stateMutability": "payable",
      "type": "function"
    },
    {
      "inputs": [],
      "name": "name",
      "outputs": [
        {
          "internalType": "string",
          "name": "",
          "type": "string"
        }
      ],
      "stateMutability": "view",
      "type": "function"
    },
    {
      "inputs": [
        {
          "internalType": "uint256",
          "name": "tokenId",
          "type": "uint256"
        }
      ],
      "name": "ownerOf",
      "outputs": [
        {
          "internalType": "address",
          "name": "",
          "type": "address"
        }
      ],
      "stateMutability": "view",
      "type": "function"
    },
    {
      "inputs": [
        {
          "internalType": "address",
          "name": "from",
          "type": "address"
        },
        {
          "internalType": "address",
          "name": "to",
          "type": "address"
        },
        {
          "internalType": "uint256",
          "name": "tokenId",
          "type": "uint256"
        }
      ],
      "name": "safeTransferFrom",
      "outputs": [],
      "stateMutability": "nonpayable",
      "type": "function"
    },
    {
      "inputs": [
        {
          "internalType": "address",
          "name": "from",
          "type": "address"
        },
        {
          "internalType": "address",
          "name": "to",
          "type": "address"
        },
        {
          "internalType": "uint256",
          "name": "tokenId",
          "type": "uint256"
        },
        {
          "internalType": "bytes",
          "name": "data",
          "type": "bytes"
        }
      ],
      "name": "safeTransferFrom",
      "outputs": [],
      "stateMutability": "nonpayable",
      "type": "function"
    },
    {
      "inputs": [
        {
          "internalType": "address",
          "name": "operator",
          "type": "address"
        },
        {
          "internalType": "bool",
          "name": "approved",
          "type": "bool"
        }
      ],
      "name": "setApprovalForAll",
      "outputs": [],
      "stateMutability": "nonpayable",
      "type": "function"
    },
    {
      "inputs": [
        {
          "internalType": "bytes4",
          "name": "interfaceId",
          "type": "bytes4"
        }
      ],
      "name": "supportsInterface",
      "outputs": [
        {
          "internalType": "bool",
          "name": "",
          "type": "bool"
        }
      ],
      "stateMutability": "view",
      "type": "function"
    },
    {
      "inputs": [],
      "name": "symbol",
      "outputs": [
        {
          "internalType": "string",
          "name": "",
          "type": "string"
        }
      ],
      "stateMutability": "view",
      "type": "function"
    },
    {
      "inputs": [
        {
          "internalType": "uint256",
          "name": "tokenId",
          "type": "uint256"
        }
      ],
      "name": "tokenURI",
      "outputs": [
        {
          "internalType": "string",
          "name": "",
          "type": "string"
        }
      ],
      "stateMutability": "view",
      "type": "function"
    },
    {
      "inputs": [
        {
          "internalType": "address",
          "name": "from",
          "type": "address"
        },
        {
          "internalType": "address",
          "name": "to",
          "type": "address"
        },
        {
          "internalType": "uint256",
          "name": "tokenId",
          "type": "uint256"
        }
      ],
      "name": "transferFrom",
      "outputs": [],
      "stateMutability": "nonpayable",
      "type": "function"
    },
    {
      "inputs": [
        {
          "internalType": "uint256",
          "name": "_listPrice",
          "type": "uint256"
        }
      ],
      "name": "updateListPrice",
      "outputs": [],
      "stateMutability": "payable",
      "type": "function"
    },
    {
      "inputs": [
        {
          "internalType": "uint256",
          "name": "tokenId",
          "type": "uint256"
        },
        {
          "internalType": "uint256",
          "name": "newPrice",
          "type": "uint256"
        }
      ],
      "name": "updateSellingPrice",
      "outputs": [],
      "stateMutability": "nonpayable",
      "type": "function"
    }
  ],
  "bytecode": "0x6080604052662386f26fc10000600a553480156200001c57600080fd5b50604080518082018252600e81526d4e46544d61726b6574706c61636560901b6020808301918252835180850190945260048452634e46544d60e01b9084015281519192916200006f91600091620000a0565b50805162000085906001906020840190620000a0565b5050600980546001600160a01b031916331790555062000183565b828054620000ae9062000146565b90600052602060002090601f016020900481019282620000d257600085556200011d565b82601f10620000ed57805160ff19168380011785556200011d565b828001600101855582156200011d579182015b828111156200011d57825182559160200191906001019062000100565b506200012b9291506200012f565b5090565b5b808211156200012b576000815560010162000130565b600181811c908216806200015b57607f821691505b602082108114156200017d57634e487b7160e01b600052602260045260246000fd5b50919050565b61266f80620001936000396000f3fe6080604052600436106101665760003560e01c80638e264590116100d1578063c322579c1161008a578063e0391b0911610064578063e0391b091461040d578063e985e9c514610422578063ef2d174614610442578063fe97b82e1461045757600080fd5b8063c322579c146103c5578063c87b56dd146103d8578063d1a88ae5146103f857600080fd5b80638e2645901461031057806395d89b411461033d5780639b1225c414610352578063a22cb46514610365578063ae31bd9a14610385578063b88d4fde146103a557600080fd5b806342842e0e1161012357806342842e0e1461024f578063571a2b6f1461026f578063629cb2e41461028f5780636352211e146102b157806368f1945f146102d157806370a08231146102f057600080fd5b806301ffc9a71461016b57806302b75eda146101a057806306fdde03146101b5578063081812fc146101d7578063095ea7b31461020f57806323b872dd1461022f575b600080fd5b34801561017757600080fd5b5061018b610186366004612202565b61046a565b60405190151581526020015b60405180910390f35b6101b36101ae3660046122ba565b610495565b005b3480156101c157600080fd5b506101ca61069e565b604051610197919061242a565b3480156101e357600080fd5b506101f76101f23660046122a2565b610730565b6040516001600160a01b039091168152602001610197565b34801561021b57600080fd5b506101b361022a3660046121d9565b610757565b34801561023b57600080fd5b506101b361024a3660046120fc565b61086d565b34801561025b57600080fd5b506101b361026a3660046120fc565b61089e565b34801561027b57600080fd5b506101b361028a3660046122ba565b6108b9565b34801561029b57600080fd5b506102a4610a03565b60405161019791906123dc565b3480156102bd57600080fd5b506101f76102cc3660046122a2565b610c46565b3480156102dd57600080fd5b50600a545b604051908152602001610197565b3480156102fc57600080fd5b506102e261030b3660046120b0565b610ca6565b34801561031c57600080fd5b5061033061032b3660046122a2565b610d2c565b604051610197919061254f565b34801561034957600080fd5b506101ca610d96565b6101b36103603660046122a2565b610da5565b34801561037157600080fd5b506101b36103803660046121b0565b610f09565b34801561039157600080fd5b506101b36103a03660046122a2565b610f18565b3480156103b157600080fd5b506101b36103c0366004612137565b611054565b6101b36103d33660046122a2565b611086565b3480156103e457600080fd5b506101ca6103f33660046122a2565b6110f1565b34801561040457600080fd5b50610330611202565b34801561041957600080fd5b506102a4611279565b34801561042e57600080fd5b5061018b61043d3660046120ca565b6113bf565b34801561044e57600080fd5b506102e26113ed565b6102e261046536600461223a565b6113fd565b60006001600160e01b03198216632483248360e11b148061048f575061048f82611439565b92915050565b61049e82611489565b6104c35760405162461bcd60e51b81526004016104ba90612521565b60405180910390fd5b336104cd83610c46565b6001600160a01b03161461051d5760405162461bcd60e51b815260206004820152601760248201527621b0b63632b91034b9903737ba103a34329037bbb732b960491b60448201526064016104ba565b600a54341461056e5760405162461bcd60e51b815260206004820152601a60248201527f4d7573742070617920746865206c697374696e6720707269636500000000000060448201526064016104ba565b600081116105be5760405162461bcd60e51b815260206004820152601f60248201527f5072696365206d7573742062652067726561746572207468616e207a65726f0060448201526064016104ba565b6040805160a081018252838152306020808301828152338486018181526060860188815260016080880181815260008c8152600b9097529890952096518755925193860180546001600160a01b039586166001600160a01b03199182161790915590516002870180549190951691161790925551600384015592516004909201805492151560ff199093169290921790915561065b9190846114a6565b817f9339409317fd01fabff48b703019016f49159bacc801ae872d2ca637d226e4c030338460016040516106929493929190612376565b60405180910390a25050565b6060600080546106ad906125a1565b80601f01602080910402602001604051908101604052809291908181526020018280546106d9906125a1565b80156107265780601f106106fb57610100808354040283529160200191610726565b820191906000526020600020905b81548152906001019060200180831161070957829003601f168201915b5050505050905090565b600061073b8261160a565b506000908152600460205260409020546001600160a01b031690565b600061076282610c46565b9050806001600160a01b0316836001600160a01b031614156107d05760405162461bcd60e51b815260206004820152602160248201527f4552433732313a20617070726f76616c20746f2063757272656e74206f776e656044820152603960f91b60648201526084016104ba565b336001600160a01b03821614806107ec57506107ec81336113bf565b61085e5760405162461bcd60e51b815260206004820152603d60248201527f4552433732313a20617070726f76652063616c6c6572206973206e6f7420746f60448201527f6b656e206f776e6572206f7220617070726f76656420666f7220616c6c00000060648201526084016104ba565b610868838361165d565b505050565b61087733826116cb565b6108935760405162461bcd60e51b81526004016104ba9061243d565b6108688383836114a6565b61086883838360405180602001604052806000815250611054565b6108c282611489565b6108de5760405162461bcd60e51b81526004016104ba90612521565b6000828152600b602052604090206004015460ff166109355760405162461bcd60e51b8152602060048201526013602482015272151bdad95b881a5cc81b9bdd081b1a5cdd1959606a1b60448201526064016104ba565b6000828152600b60205260409020600201546001600160a01b0316331461099e5760405162461bcd60e51b815260206004820152601860248201527f43616c6c6572206973206e6f74207468652073656c6c6572000000000000000060448201526064016104ba565b600081116109ee5760405162461bcd60e51b815260206004820152601f60248201527f5072696365206d7573742062652067726561746572207468616e207a65726f0060448201526064016104ba565b6000918252600b602052604090912060030155565b60606000610a1060075490565b905060008080805b84811015610aa85733600b6000610a3084600161255d565b81526020810191909152604001600020600101546001600160a01b03161480610a83575033600b6000610a6484600161255d565b81526020810191909152604001600020600201546001600160a01b0316145b15610a9657610a9360018561255d565b93505b80610aa0816125dc565b915050610a18565b5060008367ffffffffffffffff811115610ad257634e487b7160e01b600052604160045260246000fd5b604051908082528060200260200182016040528015610b0b57816020015b610af8611f47565b815260200190600190039081610af05790505b50905060005b85811015610c3c5733600b6000610b2984600161255d565b81526020810191909152604001600020600101546001600160a01b03161480610b7c575033600b6000610b5d84600161255d565b81526020810191909152604001600020600201546001600160a01b0316145b15610c2a57610b8c81600161255d565b6000818152600b6020908152604091829020825160a0810184528154815260018201546001600160a01b039081169382019390935260028201549092169282019290925260038201546060820152600482015460ff161515608082015284519295509091849087908110610c1057634e487b7160e01b600052603260045260246000fd5b6020908102919091010152610c2660018661255d565b9450505b80610c34816125dc565b915050610b11565b5095945050505050565b6000818152600260205260408120546001600160a01b03168061048f5760405162461bcd60e51b8152602060048201526018602482015277115490cdcc8c4e881a5b9d985b1a59081d1bdad95b88125160421b60448201526064016104ba565b60006001600160a01b038216610d105760405162461bcd60e51b815260206004820152602960248201527f4552433732313a2061646472657373207a65726f206973206e6f7420612076616044820152683634b21037bbb732b960b91b60648201526084016104ba565b506001600160a01b031660009081526003602052604090205490565b610d34611f47565b506000908152600b6020908152604091829020825160a0810184528154815260018201546001600160a01b03908116938201939093526002820154909216928201929092526003820154606082015260049091015460ff161515608082015290565b6060600180546106ad906125a1565b6000818152600b6020526040902060038101546002909101546001600160a01b0316348214610e3e576040805162461bcd60e51b81526020600482015260248101919091527f506c65617365207375626d6974207468652061736b696e67207072696365206960448201527f6e206f7264657220746f20636f6d706c6574652074686520707572636861736560648201526084016104ba565b6000838152600b6020526040902060048101805460ff1916600117905560020180546001600160a01b03191633179055610e7c600880546001019055565b610e873033856114a6565b610e913084610757565b600954600a546040516001600160a01b039092169181156108fc0291906000818181858888f19350505050158015610ecd573d6000803e3d6000fd5b506040516001600160a01b038216903480156108fc02916000818181858888f19350505050158015610f03573d6000803e3d6000fd5b50505050565b610f14338383611729565b5050565b610f2181611489565b610f3d5760405162461bcd60e51b81526004016104ba90612521565b33610f4782610c46565b6001600160a01b031614610f975760405162461bcd60e51b815260206004820152601760248201527621b0b63632b91034b9903737ba103a34329037bbb732b960491b60448201526064016104ba565b6000818152600b602052604090206004015460ff16610fee5760405162461bcd60e51b8152602060048201526013602482015272151bdad95b881a5cc81b9bdd081b1a5cdd1959606a1b60448201526064016104ba565b6000818152600b60205260409020600401805460ff191690556110123033836114a6565b807f75bda7021f29b232c380d85e698be6efc8fc238a86afd357b8d609778a5a71fe30336000806040516110499493929190612376565b60405180910390a250565b61105e33836116cb565b61107a5760405162461bcd60e51b81526004016104ba9061243d565b610f03848484846117f8565b6009546001600160a01b031633146110ec5760405162461bcd60e51b815260206004820152602360248201527f4f6e6c79206f776e65722063616e20757064617465206c697374696e6720707260448201526269636560e81b60648201526084016104ba565b600a55565b60606110fc8261160a565b60008281526006602052604081208054611115906125a1565b80601f0160208091040260200160405190810160405280929190818152602001828054611141906125a1565b801561118e5780601f106111635761010080835404028352916020019161118e565b820191906000526020600020905b81548152906001019060200180831161117157829003601f168201915b5050505050905060006111ac60408051602081019091526000815290565b90508051600014156111bf575092915050565b8151156111f15780826040516020016111d9929190612347565b60405160208183030381529060405292505050919050565b6111fa8461182b565b949350505050565b61120a611f47565b600061121560075490565b6000908152600b6020908152604091829020825160a0810184528154815260018201546001600160a01b03908116938201939093526002820154909216928201929092526003820154606082015260049091015460ff161515608082015292915050565b6060600061128660075490565b905060008167ffffffffffffffff8111156112b157634e487b7160e01b600052604160045260246000fd5b6040519080825280602002602001820160405280156112ea57816020015b6112d7611f47565b8152602001906001900390816112cf5790505b509050600080805b848110156113b55761130581600161255d565b6000818152600b6020908152604091829020825160a0810184528154815260018201546001600160a01b039081169382019390935260028201549092169282019290925260038201546060820152600482015460ff16151560808201528651929450909186908690811061138957634e487b7160e01b600052603260045260246000fd5b602090810291909101015261139f60018561255d565b93505080806113ad906125dc565b9150506112f2565b5091949350505050565b6001600160a01b03918216600090815260056020908152604080832093909416825291909152205460ff1690565b60006113f860075490565b905090565b600061140d600780546001019055565b600061141860075490565b9050611424338261189f565b61142e81866118b9565b6111fa81858561197c565b60006001600160e01b031982166380ac58cd60e01b148061146a57506001600160e01b03198216635b5e139f60e01b145b8061048f57506301ffc9a760e01b6001600160e01b031983161461048f565b6000908152600260205260409020546001600160a01b0316151590565b826001600160a01b03166114b982610c46565b6001600160a01b0316146114df5760405162461bcd60e51b81526004016104ba906124dc565b6001600160a01b0382166115415760405162461bcd60e51b8152602060048201526024808201527f4552433732313a207472616e7366657220746f20746865207a65726f206164646044820152637265737360e01b60648201526084016104ba565b826001600160a01b031661155482610c46565b6001600160a01b03161461157a5760405162461bcd60e51b81526004016104ba906124dc565b600081815260046020908152604080832080546001600160a01b03199081169091556001600160a01b0387811680865260038552838620805460001901905590871680865283862080546001019055868652600290945282852080549092168417909155905184937fddf252ad1be2c89b69c2b068fc378daa952ba7f163c4a11628f55a4df523b3ef91a4505050565b61161381611489565b61165a5760405162461bcd60e51b8152602060048201526018602482015277115490cdcc8c4e881a5b9d985b1a59081d1bdad95b88125160421b60448201526064016104ba565b50565b600081815260046020526040902080546001600160a01b0319166001600160a01b038416908117909155819061169282610c46565b6001600160a01b03167f8c5be1e5ebec7d5bd14f71427d1e84f3dd0314c0f7b2291e5b200ac8c7c3b92560405160405180910390a45050565b6000806116d783610c46565b9050806001600160a01b0316846001600160a01b031614806116fe57506116fe81856113bf565b806111fa5750836001600160a01b031661171784610730565b6001600160a01b031614949350505050565b816001600160a01b0316836001600160a01b0316141561178b5760405162461bcd60e51b815260206004820152601960248201527f4552433732313a20617070726f766520746f2063616c6c65720000000000000060448201526064016104ba565b6001600160a01b03838116600081815260056020908152604080832094871680845294825291829020805460ff191686151590811790915591519182527f17307eab39ab6107e8899845ad3d59bd9653f200f220920489ca2b5937696c31910160405180910390a3505050565b6118038484846114a6565b61180f84848484611b17565b610f035760405162461bcd60e51b81526004016104ba9061248a565b60606118368261160a565b600061184d60408051602081019091526000815290565b9050600081511161186d5760405180602001604052806000815250611898565b8061187784611c24565b604051602001611888929190612347565b6040516020818303038152906040525b9392505050565b610f14828260405180602001604052806000815250611ccf565b6118c282611489565b6119255760405162461bcd60e51b815260206004820152602e60248201527f45524337323155524953746f726167653a2055524920736574206f66206e6f6e60448201526d32bc34b9ba32b73a103a37b5b2b760911b60648201526084016104ba565b6000828152600660209081526040909120825161194492840190611f75565b506040518281527ff8e1a15aba9398e019f0b49df1a4fde98ee17ae345cb5f6b5e2c27f5033e8ce79060200160405180910390a15050565b600a5434146119d95760405162461bcd60e51b815260206004820152602360248201527f486f706566756c6c792073656e64696e672074686520636f727265637420707260448201526269636560e81b60648201526084016104ba565b60008211611a345760405162461bcd60e51b815260206004820152602260248201527f4d616b652073757265207468652070726963652069736e2774206e6567617469604482015261766560f01b60648201526084016104ba565b6040805160a0810182528481523060208083019182523383850190815260608401878152861580156080870190815260008b8152600b909552969093209451855592516001850180546001600160a01b03199081166001600160a01b0393841617909155915160028601805490931691161790559051600383015591516004909101805460ff1916911515919091179055611ad457611ad43330856114a6565b827f9339409317fd01fabff48b703019016f49159bacc801ae872d2ca637d226e4c030338585604051611b0a9493929190612376565b60405180910390a2505050565b60006001600160a01b0384163b15611c1957604051630a85bd0160e11b81526001600160a01b0385169063150b7a0290611b5b90339089908890889060040161239f565b602060405180830381600087803b158015611b7557600080fd5b505af1925050508015611ba5575060408051601f3d908101601f19168201909252611ba29181019061221e565b60015b611bff573d808015611bd3576040519150601f19603f3d011682016040523d82523d6000602084013e611bd8565b606091505b508051611bf75760405162461bcd60e51b81526004016104ba9061248a565b805181602001fd5b6001600160e01b031916630a85bd0160e11b1490506111fa565b506001949350505050565b60606000611c3183611d02565b600101905060008167ffffffffffffffff811115611c5f57634e487b7160e01b600052604160045260246000fd5b6040519080825280601f01601f191660200182016040528015611c89576020820181803683370190505b5090508181016020015b600019016f181899199a1a9b1b9c1cb0b131b232b360811b600a86061a8153600a8504945084611cc257611cc7565b611c93565b509392505050565b611cd98383611dda565b611ce66000848484611b17565b6108685760405162461bcd60e51b81526004016104ba9061248a565b60008072184f03e93ff9f4daa797ed6e38ed64bf6a1f0160401b8310611d415772184f03e93ff9f4daa797ed6e38ed64bf6a1f0160401b830492506040015b6d04ee2d6d415b85acef81000000008310611d6d576d04ee2d6d415b85acef8100000000830492506020015b662386f26fc100008310611d8b57662386f26fc10000830492506010015b6305f5e1008310611da3576305f5e100830492506008015b6127108310611db757612710830492506004015b60648310611dc9576064830492506002015b600a831061048f5760010192915050565b6001600160a01b038216611e305760405162461bcd60e51b815260206004820181905260248201527f4552433732313a206d696e7420746f20746865207a65726f206164647265737360448201526064016104ba565b611e3981611489565b15611e865760405162461bcd60e51b815260206004820152601c60248201527f4552433732313a20746f6b656e20616c7265616479206d696e7465640000000060448201526064016104ba565b611e8f81611489565b15611edc5760405162461bcd60e51b815260206004820152601c60248201527f4552433732313a20746f6b656e20616c7265616479206d696e7465640000000060448201526064016104ba565b6001600160a01b038216600081815260036020908152604080832080546001019055848352600290915280822080546001600160a01b0319168417905551839291907fddf252ad1be2c89b69c2b068fc378daa952ba7f163c4a11628f55a4df523b3ef908290a45050565b6040805160a08101825260008082526020820181905291810182905260608101829052608081019190915290565b828054611f81906125a1565b90600052602060002090601f016020900481019282611fa35760008555611fe9565b82601f10611fbc57805160ff1916838001178555611fe9565b82800160010185558215611fe9579182015b82811115611fe9578251825591602001919060010190611fce565b50611ff5929150611ff9565b5090565b5b80821115611ff55760008155600101611ffa565b600067ffffffffffffffff808411156120295761202961260d565b604051601f8501601f19908116603f011681019082821181831017156120515761205161260d565b8160405280935085815286868601111561206a57600080fd5b858560208301376000602087830101525050509392505050565b80356001600160a01b038116811461209b57600080fd5b919050565b8035801515811461209b57600080fd5b6000602082840312156120c1578081fd5b61189882612084565b600080604083850312156120dc578081fd5b6120e583612084565b91506120f360208401612084565b90509250929050565b600080600060608486031215612110578081fd5b61211984612084565b925061212760208501612084565b9150604084013590509250925092565b6000806000806080858703121561214c578081fd5b61215585612084565b935061216360208601612084565b925060408501359150606085013567ffffffffffffffff811115612185578182fd5b8501601f81018713612195578182fd5b6121a48782356020840161200e565b91505092959194509250565b600080604083850312156121c2578182fd5b6121cb83612084565b91506120f3602084016120a0565b600080604083850312156121eb578182fd5b6121f483612084565b946020939093013593505050565b600060208284031215612213578081fd5b813561189881612623565b60006020828403121561222f578081fd5b815161189881612623565b60008060006060848603121561224e578283fd5b833567ffffffffffffffff811115612264578384fd5b8401601f81018613612274578384fd5b6122838682356020840161200e565b93505060208401359150612299604085016120a0565b90509250925092565b6000602082840312156122b3578081fd5b5035919050565b600080604083850312156122cc578182fd5b50508035926020909101359150565b600081518084526122f3816020860160208601612575565b601f01601f19169290920160200192915050565b805182526020808201516001600160a01b039081169184019190915260408083015190911690830152606080820151908301526080908101511515910152565b60008351612359818460208801612575565b83519083019061236d818360208801612575565b01949350505050565b6001600160a01b0394851681529290931660208301526040820152901515606082015260800190565b6001600160a01b03858116825284166020820152604081018390526080606082018190526000906123d2908301846122db565b9695505050505050565b6020808252825182820181905260009190848201906040850190845b8181101561241e5761240b838551612307565b9284019260a092909201916001016123f8565b50909695505050505050565b60208152600061189860208301846122db565b6020808252602d908201527f4552433732313a2063616c6c6572206973206e6f7420746f6b656e206f776e6560408201526c1c881bdc88185c1c1c9bdd9959609a1b606082015260800190565b60208082526032908201527f4552433732313a207472616e7366657220746f206e6f6e20455243373231526560408201527131b2b4bb32b91034b6b83632b6b2b73a32b960711b606082015260800190565b60208082526025908201527f4552433732313a207472616e736665722066726f6d20696e636f72726563742060408201526437bbb732b960d91b606082015260800190565b602080825260149082015273151bdad95b88191bd95cc81b9bdd08195e1a5cdd60621b604082015260600190565b60a0810161048f8284612307565b60008219821115612570576125706125f7565b500190565b60005b83811015612590578181015183820152602001612578565b83811115610f035750506000910152565b600181811c908216806125b557607f821691505b602082108114156125d657634e487b7160e01b600052602260045260246000fd5b50919050565b60006000198214156125f0576125f06125f7565b5060010190565b634e487b7160e01b600052601160045260246000fd5b634e487b7160e01b600052604160045260246000fd5b6001600160e01b03198116811461165a57600080fdfea2646970667358221220d037d87fddd2f4e5ec5a073f420c73111e28932ffa7d902815cbee092c1016ca64736f6c63430008040033",
  "linkReferences": {},
  "deployedLinkReferences": {}
}