{
  "_format": "hh-sol-artifact-1",
  "contractName": "NFTMarketplace",
  "sourceName": "contracts/NFTMarketplace.sol",
  "abi": [
    {
      "inputs": [],
      "stateMutability": "nonpayable",
      "type": "constructor"
    },
    {
      "anonymous": false,
      "inputs": [
        {
          "indexed": true,
          "internalType": "address",
          "name": "owner",
          "type": "address"
        },
        {
          "indexed": true,
          "internalType": "address",
          "name": "approved",
          "type": "address"
        },
        {
          "indexed": true,
          "internalType": "uint256",
          "name": "tokenId",
          "type": "uint256"
        }
      ],
      "name": "Approval",
      "type": "event"
    },
    {
      "anonymous": false,
      "inputs": [
        {
          "indexed": true,
          "internalType": "address",
          "name": "owner",
          "type": "address"
        },
        {
          "indexed": true,
          "internalType": "address",
          "name": "operator",
          "type": "address"
        },
        {
          "indexed": false,
          "internalType": "bool",
          "name": "approved",
          "type": "bool"
        }
      ],
      "name": "ApprovalForAll",
      "type": "event"
    },
    {
      "anonymous": false,
      "inputs": [
        {
          "indexed": false,
          "internalType": "uint256",
          "name": "_fromTokenId",
          "type": "uint256"
        },
        {
          "indexed": false,
          "internalType": "uint256",
          "name": "_toTokenId",
          "type": "uint256"
        }
      ],
      "name": "BatchMetadataUpdate",
      "type": "event"
    },
    {
      "anonymous": false,
      "inputs": [
        {
          "indexed": false,
          "internalType": "uint256",
          "name": "_tokenId",
          "type": "uint256"
        }
      ],
      "name": "MetadataUpdate",
      "type": "event"
    },
    {
      "anonymous": false,
      "inputs": [
        {
          "indexed": true,
          "internalType": "uint256",
          "name": "tokenId",
          "type": "uint256"
        },
        {
          "indexed": false,
          "internalType": "address",
          "name": "owner",
          "type": "address"
        },
        {
          "indexed": false,
          "internalType": "address",
          "name": "seller",
          "type": "address"
        },
        {
          "indexed": false,
          "internalType": "uint256",
          "name": "price",
          "type": "uint256"
        },
        {
          "indexed": false,
          "internalType": "bool",
          "name": "currentlyListed",
          "type": "bool"
        }
      ],
      "name": "TokenDeListedSuccess",
      "type": "event"
    },
    {
      "anonymous": false,
      "inputs": [
        {
          "indexed": true,
          "internalType": "uint256",
          "name": "tokenId",
          "type": "uint256"
        },
        {
          "indexed": false,
          "internalType": "address",
          "name": "owner",
          "type": "address"
        },
        {
          "indexed": false,
          "internalType": "address",
          "name": "seller",
          "type": "address"
        },
        {
          "indexed": false,
          "internalType": "uint256",
          "name": "price",
          "type": "uint256"
        },
        {
          "indexed": false,
          "internalType": "bool",
          "name": "currentlyListed",
          "type": "bool"
        }
      ],
      "name": "TokenListedSuccess",
      "type": "event"
    },
    {
      "anonymous": false,
      "inputs": [
        {
          "indexed": true,
          "internalType": "uint256",
          "name": "tokenId",
          "type": "uint256"
        },
        {
          "indexed": false,
          "internalType": "address",
          "name": "owner",
          "type": "address"
        },
        {
          "indexed": false,
          "internalType": "address",
          "name": "seller",
          "type": "address"
        },
        {
          "indexed": false,
          "internalType": "uint256",
          "name": "price",
          "type": "uint256"
        },
        {
          "indexed": false,
          "internalType": "bool",
          "name": "currentlyListed",
          "type": "bool"
        }
      ],
      "name": "TokenMintSuccess",
      "type": "event"
    },
    {
      "anonymous": false,
      "inputs": [
        {
          "indexed": true,
          "internalType": "address",
          "name": "from",
          "type": "address"
        },
        {
          "indexed": true,
          "internalType": "address",
          "name": "to",
          "type": "address"
        },
        {
          "indexed": true,
          "internalType": "uint256",
          "name": "tokenId",
          "type": "uint256"
        }
      ],
      "name": "Transfer",
      "type": "event"
    },
    {
      "inputs": [
        {
          "internalType": "address",
          "name": "to",
          "type": "address"
        },
        {
          "internalType": "uint256",
          "name": "tokenId",
          "type": "uint256"
        }
      ],
      "name": "approve",
      "outputs": [],
      "stateMutability": "nonpayable",
      "type": "function"
    },
    {
      "inputs": [
        {
          "internalType": "address",
          "name": "owner",
          "type": "address"
        }
      ],
      "name": "balanceOf",
      "outputs": [
        {
          "internalType": "uint256",
          "name": "",
          "type": "uint256"
        }
      ],
      "stateMutability": "view",
      "type": "function"
    },
    {
      "inputs": [
        {
          "internalType": "string",
          "name": "tokenURI",
          "type": "string"
        }
      ],
      "name": "createToken",
      "outputs": [
        {
          "internalType": "uint256",
          "name": "",
          "type": "uint256"
        }
      ],
      "stateMutability": "payable",
      "type": "function"
    },
    {
      "inputs": [
        {
          "internalType": "string",
          "name": "tokenURI",
          "type": "string"
        },
        {
          "internalType": "uint256",
          "name": "price",
          "type": "uint256"
        }
      ],
      "name": "createTokenAndList",
      "outputs": [
        {
          "internalType": "uint256",
          "name": "",
          "type": "uint256"
        }
      ],
      "stateMutability": "payable",
      "type": "function"
    },
    {
      "inputs": [
        {
          "internalType": "uint256",
          "name": "tokenId",
          "type": "uint256"
        }
      ],
      "name": "delistTokenFromMarketplace",
      "outputs": [],
      "stateMutability": "nonpayable",
      "type": "function"
    },
    {
      "inputs": [
        {
          "internalType": "uint256",
          "name": "tokenId",
          "type": "uint256"
        }
      ],
      "name": "executeSale",
      "outputs": [],
      "stateMutability": "payable",
      "type": "function"
    },
    {
      "inputs": [],
      "name": "getAllNFTs",
      "outputs": [
        {
          "components": [
            {
              "internalType": "uint256",
              "name": "tokenId",
              "type": "uint256"
            },
            {
              "internalType": "address payable",
              "name": "owner",
              "type": "address"
            },
            {
              "internalType": "address payable",
              "name": "seller",
              "type": "address"
            },
            {
              "internalType": "uint256",
              "name": "price",
              "type": "uint256"
            },
            {
              "internalType": "bool",
              "name": "currentlyListed",
              "type": "bool"
            }
          ],
          "internalType": "struct NFTMarketplace.ListedToken[]",
          "name": "",
          "type": "tuple[]"
        }
      ],
      "stateMutability": "view",
      "type": "function"
    },
    {
      "inputs": [
        {
          "internalType": "uint256",
          "name": "tokenId",
          "type": "uint256"
        }
      ],
      "name": "getApproved",
      "outputs": [
        {
          "internalType": "address",
          "name": "",
          "type": "address"
        }
      ],
      "stateMutability": "view",
      "type": "function"
    },
    {
      "inputs": [],
      "name": "getCurrentToken",
      "outputs": [
        {
          "internalType": "uint256",
          "name": "",
          "type": "uint256"
        }
      ],
      "stateMutability": "view",
      "type": "function"
    },
    {
      "inputs": [],
      "name": "getLatestIdToListedToken",
      "outputs": [
        {
          "components": [
            {
              "internalType": "uint256",
              "name": "tokenId",
              "type": "uint256"
            },
            {
              "internalType": "address payable",
              "name": "owner",
              "type": "address"
            },
            {
              "internalType": "address payable",
              "name": "seller",
              "type": "address"
            },
            {
              "internalType": "uint256",
              "name": "price",
              "type": "uint256"
            },
            {
              "internalType": "bool",
              "name": "currentlyListed",
              "type": "bool"
            }
          ],
          "internalType": "struct NFTMarketplace.ListedToken",
          "name": "",
          "type": "tuple"
        }
      ],
      "stateMutability": "view",
      "type": "function"
    },
    {
      "inputs": [],
      "name": "getListPrice",
      "outputs": [
        {
          "internalType": "uint256",
          "name": "",
          "type": "uint256"
        }
      ],
      "stateMutability": "view",
      "type": "function"
    },
    {
      "inputs": [
        {
          "internalType": "uint256",
          "name": "tokenId",
          "type": "uint256"
        }
      ],
      "name": "getListedTokenForId",
      "outputs": [
        {
          "components": [
            {
              "internalType": "uint256",
              "name": "tokenId",
              "type": "uint256"
            },
            {
              "internalType": "address payable",
              "name": "owner",
              "type": "address"
            },
            {
              "internalType": "address payable",
              "name": "seller",
              "type": "address"
            },
            {
              "internalType": "uint256",
              "name": "price",
              "type": "uint256"
            },
            {
              "internalType": "bool",
              "name": "currentlyListed",
              "type": "bool"
            }
          ],
          "internalType": "struct NFTMarketplace.ListedToken",
          "name": "",
          "type": "tuple"
        }
      ],
      "stateMutability": "view",
      "type": "function"
    },
    {
      "inputs": [],
      "name": "getMyNFTs",
      "outputs": [
        {
          "components": [
            {
              "internalType": "uint256",
              "name": "tokenId",
              "type": "uint256"
            },
            {
              "internalType": "address payable",
              "name": "owner",
              "type": "address"
            },
            {
              "internalType": "address payable",
              "name": "seller",
              "type": "address"
            },
            {
              "internalType": "uint256",
              "name": "price",
              "type": "uint256"
            },
            {
              "internalType": "bool",
              "name": "currentlyListed",
              "type": "bool"
            }
          ],
          "internalType": "struct NFTMarketplace.ListedToken[]",
          "name": "",
          "type": "tuple[]"
        }
      ],
      "stateMutability": "view",
      "type": "function"
    },
    {
      "inputs": [
        {
          "internalType": "address",
          "name": "owner",
          "type": "address"
        },
        {
          "internalType": "address",
          "name": "operator",
          "type": "address"
        }
      ],
      "name": "isApprovedForAll",
      "outputs": [
        {
          "internalType": "bool",
          "name": "",
          "type": "bool"
        }
      ],
      "stateMutability": "view",
      "type": "function"
    },
    {
      "inputs": [
        {
          "internalType": "uint256",
          "name": "tokenId",
          "type": "uint256"
        },
        {
          "internalType": "uint256",
          "name": "price",
          "type": "uint256"
        }
      ],
      "name": "listTokenOnMarketplace",
      "outputs": [],
      "stateMutability": "payable",
      "type": "function"
    },
    {
      "inputs": [],
      "name": "name",
      "outputs": [
        {
          "internalType": "string",
          "name": "",
          "type": "string"
        }
      ],
      "stateMutability": "view",
      "type": "function"
    },
    {
      "inputs": [
        {
          "internalType": "uint256",
          "name": "tokenId",
          "type": "uint256"
        }
      ],
      "name": "ownerOf",
      "outputs": [
        {
          "internalType": "address",
          "name": "",
          "type": "address"
        }
      ],
      "stateMutability": "view",
      "type": "function"
    },
    {
      "inputs": [
        {
          "internalType": "address",
          "name": "from",
          "type": "address"
        },
        {
          "internalType": "address",
          "name": "to",
          "type": "address"
        },
        {
          "internalType": "uint256",
          "name": "tokenId",
          "type": "uint256"
        }
      ],
      "name": "safeTransferFrom",
      "outputs": [],
      "stateMutability": "nonpayable",
      "type": "function"
    },
    {
      "inputs": [
        {
          "internalType": "address",
          "name": "from",
          "type": "address"
        },
        {
          "internalType": "address",
          "name": "to",
          "type": "address"
        },
        {
          "internalType": "uint256",
          "name": "tokenId",
          "type": "uint256"
        },
        {
          "internalType": "bytes",
          "name": "data",
          "type": "bytes"
        }
      ],
      "name": "safeTransferFrom",
      "outputs": [],
      "stateMutability": "nonpayable",
      "type": "function"
    },
    {
      "inputs": [
        {
          "internalType": "address",
          "name": "operator",
          "type": "address"
        },
        {
          "internalType": "bool",
          "name": "approved",
          "type": "bool"
        }
      ],
      "name": "setApprovalForAll",
      "outputs": [],
      "stateMutability": "nonpayable",
      "type": "function"
    },
    {
      "inputs": [
        {
          "internalType": "bytes4",
          "name": "interfaceId",
          "type": "bytes4"
        }
      ],
      "name": "supportsInterface",
      "outputs": [
        {
          "internalType": "bool",
          "name": "",
          "type": "bool"
        }
      ],
      "stateMutability": "view",
      "type": "function"
    },
    {
      "inputs": [],
      "name": "symbol",
      "outputs": [
        {
          "internalType": "string",
          "name": "",
          "type": "string"
        }
      ],
      "stateMutability": "view",
      "type": "function"
    },
    {
      "inputs": [
        {
          "internalType": "uint256",
          "name": "tokenId",
          "type": "uint256"
        }
      ],
      "name": "tokenURI",
      "outputs": [
        {
          "internalType": "string",
          "name": "",
          "type": "string"
        }
      ],
      "stateMutability": "view",
      "type": "function"
    },
    {
      "inputs": [
        {
          "internalType": "address",
          "name": "from",
          "type": "address"
        },
        {
          "internalType": "address",
          "name": "to",
          "type": "address"
        },
        {
          "internalType": "uint256",
          "name": "tokenId",
          "type": "uint256"
        }
      ],
      "name": "transferFrom",
      "outputs": [],
      "stateMutability": "nonpayable",
      "type": "function"
    },
    {
      "inputs": [
        {
          "internalType": "uint256",
          "name": "_listPrice",
          "type": "uint256"
        }
      ],
      "name": "updateListPrice",
      "outputs": [],
      "stateMutability": "payable",
      "type": "function"
    },
    {
      "inputs": [
        {
          "internalType": "uint256",
          "name": "tokenId",
          "type": "uint256"
        },
        {
          "internalType": "uint256",
          "name": "newPrice",
          "type": "uint256"
        }
      ],
      "name": "updateSellingPrice",
      "outputs": [],
      "stateMutability": "nonpayable",
      "type": "function"
    }
  ],
  "bytecode": "0x6080604052662386f26fc10000600a553480156200001c57600080fd5b50604080518082018252600e81526d4e46544d61726b6574706c61636560901b6020808301918252835180850190945260048452634e46544d60e01b9084015281519192916200006f91600091620000a0565b50805162000085906001906020840190620000a0565b5050600980546001600160a01b031916331790555062000183565b828054620000ae9062000146565b90600052602060002090601f016020900481019282620000d257600085556200011d565b82601f10620000ed57805160ff19168380011785556200011d565b828001600101855582156200011d579182015b828111156200011d57825182559160200191906001019062000100565b506200012b9291506200012f565b5090565b5b808211156200012b576000815560010162000130565b600181811c908216806200015b57607f821691505b602082108114156200017d57634e487b7160e01b600052602260045260246000fd5b50919050565b61263180620001936000396000f3fe6080604052600436106101815760003560e01c80638d91f62e116100d1578063b88d4fde1161008a578063d1a88ae511610064578063d1a88ae51461043d578063e0391b0914610452578063e985e9c514610467578063ef2d1746146104b057600080fd5b8063b88d4fde146103ea578063c322579c1461040a578063c87b56dd1461041d57600080fd5b80638d91f62e146103425780638e2645901461035557806395d89b41146103825780639b1225c414610397578063a22cb465146103aa578063ae31bd9a146103ca57600080fd5b806342842e0e1161013e578063629cb2e411610118578063629cb2e4146102cb5780636352211e146102ed57806368f1945f1461030d57806370a082311461032257600080fd5b806342842e0e1461026a57806345576f941461028a578063571a2b6f146102ab57600080fd5b806301ffc9a71461018657806302b75eda146101bb57806306fdde03146101d0578063081812fc146101f2578063095ea7b31461022a57806323b872dd1461024a575b600080fd5b34801561019257600080fd5b506101a66101a13660046121b6565b6104c5565b60405190151581526020015b60405180910390f35b6101ce6101c936600461227c565b6104f0565b005b3480156101dc57600080fd5b506101e56106f9565b6040516101b291906123ec565b3480156101fe57600080fd5b5061021261020d366004612264565b61078b565b6040516001600160a01b0390911681526020016101b2565b34801561023657600080fd5b506101ce61024536600461218d565b6107b2565b34801561025657600080fd5b506101ce61026536600461209f565b6108c8565b34801561027657600080fd5b506101ce61028536600461209f565b6108f9565b61029d6102983660046121ee565b610914565b6040519081526020016101b2565b3480156102b757600080fd5b506101ce6102c636600461227c565b610a14565b3480156102d757600080fd5b506102e0610b5e565b6040516101b2919061239e565b3480156102f957600080fd5b50610212610308366004612264565b610da1565b34801561031957600080fd5b50600a5461029d565b34801561032e57600080fd5b5061029d61033d366004612053565b610e01565b61029d610350366004612221565b610e87565b34801561036157600080fd5b50610375610370366004612264565b610ea6565b6040516101b29190612511565b34801561038e57600080fd5b506101e5610f10565b6101ce6103a5366004612264565b610f1f565b3480156103b657600080fd5b506101ce6103c5366004612153565b611083565b3480156103d657600080fd5b506101ce6103e5366004612264565b611092565b3480156103f657600080fd5b506101ce6104053660046120da565b6111ce565b6101ce610418366004612264565b611200565b34801561042957600080fd5b506101e5610438366004612264565b61126b565b34801561044957600080fd5b5061037561137c565b34801561045e57600080fd5b506102e06113f3565b34801561047357600080fd5b506101a661048236600461206d565b6001600160a01b03918216600090815260056020908152604080832093909416825291909152205460ff1690565b3480156104bc57600080fd5b5061029d611539565b60006001600160e01b03198216632483248360e11b14806104ea57506104ea82611549565b92915050565b6104f982611599565b61051e5760405162461bcd60e51b8152600401610515906124e3565b60405180910390fd5b3361052883610da1565b6001600160a01b0316146105785760405162461bcd60e51b815260206004820152601760248201527621b0b63632b91034b9903737ba103a34329037bbb732b960491b6044820152606401610515565b600a5434146105c95760405162461bcd60e51b815260206004820152601a60248201527f4d7573742070617920746865206c697374696e672070726963650000000000006044820152606401610515565b600081116106195760405162461bcd60e51b815260206004820152601f60248201527f5072696365206d7573742062652067726561746572207468616e207a65726f006044820152606401610515565b6040805160a081018252838152306020808301828152338486018181526060860188815260016080880181815260008c8152600b9097529890952096518755925193860180546001600160a01b039586166001600160a01b03199182161790915590516002870180549190951691161790925551600384015592516004909201805492151560ff19909316929092179091556106b69190846115b6565b817f9339409317fd01fabff48b703019016f49159bacc801ae872d2ca637d226e4c030338460016040516106ed9493929190612338565b60405180910390a25050565b60606000805461070890612563565b80601f016020809104026020016040519081016040528092919081815260200182805461073490612563565b80156107815780601f1061075657610100808354040283529160200191610781565b820191906000526020600020905b81548152906001019060200180831161076457829003601f168201915b5050505050905090565b60006107968261171a565b506000908152600460205260409020546001600160a01b031690565b60006107bd82610da1565b9050806001600160a01b0316836001600160a01b0316141561082b5760405162461bcd60e51b815260206004820152602160248201527f4552433732313a20617070726f76616c20746f2063757272656e74206f776e656044820152603960f91b6064820152608401610515565b336001600160a01b038216148061084757506108478133610482565b6108b95760405162461bcd60e51b815260206004820152603d60248201527f4552433732313a20617070726f76652063616c6c6572206973206e6f7420746f60448201527f6b656e206f776e6572206f7220617070726f76656420666f7220616c6c0000006064820152608401610515565b6108c3838361176d565b505050565b6108d233826117db565b6108ee5760405162461bcd60e51b8152600401610515906123ff565b6108c38383836115b6565b6108c3838383604051806020016040528060008152506111ce565b6000610924600780546001019055565b600061092f60075490565b905061093b3382611859565b6109458184611873565b6040805160a08101825282815233602080830182815283850183815260006060860181815260808701828152898352600b9095528782209651875592516001870180546001600160a01b03199081166001600160a01b039384161790915592516002880180549094169116179091559051600385015590516004909301805460ff191693151593909317909255915183927f493045677b3910c4555111111fcc27e7da2686ef7e08ecdb35bb338bb60e9cd292610a06928291908190612338565b60405180910390a292915050565b610a1d82611599565b610a395760405162461bcd60e51b8152600401610515906124e3565b6000828152600b602052604090206004015460ff16610a905760405162461bcd60e51b8152602060048201526013602482015272151bdad95b881a5cc81b9bdd081b1a5cdd1959606a1b6044820152606401610515565b6000828152600b60205260409020600201546001600160a01b03163314610af95760405162461bcd60e51b815260206004820152601860248201527f43616c6c6572206973206e6f74207468652073656c6c657200000000000000006044820152606401610515565b60008111610b495760405162461bcd60e51b815260206004820152601f60248201527f5072696365206d7573742062652067726561746572207468616e207a65726f006044820152606401610515565b6000918252600b602052604090912060030155565b60606000610b6b60075490565b905060008080805b84811015610c035733600b6000610b8b84600161251f565b81526020810191909152604001600020600101546001600160a01b03161480610bde575033600b6000610bbf84600161251f565b81526020810191909152604001600020600201546001600160a01b0316145b15610bf157610bee60018561251f565b93505b80610bfb8161259e565b915050610b73565b5060008367ffffffffffffffff811115610c2d57634e487b7160e01b600052604160045260246000fd5b604051908082528060200260200182016040528015610c6657816020015b610c53611edb565b815260200190600190039081610c4b5790505b50905060005b85811015610d975733600b6000610c8484600161251f565b81526020810191909152604001600020600101546001600160a01b03161480610cd7575033600b6000610cb884600161251f565b81526020810191909152604001600020600201546001600160a01b0316145b15610d8557610ce781600161251f565b6000818152600b6020908152604091829020825160a0810184528154815260018201546001600160a01b039081169382019390935260028201549092169282019290925260038201546060820152600482015460ff161515608082015284519295509091849087908110610d6b57634e487b7160e01b600052603260045260246000fd5b6020908102919091010152610d8160018661251f565b9450505b80610d8f8161259e565b915050610c6c565b5095945050505050565b6000818152600260205260408120546001600160a01b0316806104ea5760405162461bcd60e51b8152602060048201526018602482015277115490cdcc8c4e881a5b9d985b1a59081d1bdad95b88125160421b6044820152606401610515565b60006001600160a01b038216610e6b5760405162461bcd60e51b815260206004820152602960248201527f4552433732313a2061646472657373207a65726f206973206e6f7420612076616044820152683634b21037bbb732b960b91b6064820152608401610515565b506001600160a01b031660009081526003602052604090205490565b600080610e9384610914565b9050610e9f81846104f0565b9392505050565b610eae611edb565b506000908152600b6020908152604091829020825160a0810184528154815260018201546001600160a01b03908116938201939093526002820154909216928201929092526003820154606082015260049091015460ff161515608082015290565b60606001805461070890612563565b6000818152600b6020526040902060038101546002909101546001600160a01b0316348214610fb8576040805162461bcd60e51b81526020600482015260248101919091527f506c65617365207375626d6974207468652061736b696e67207072696365206960448201527f6e206f7264657220746f20636f6d706c657465207468652070757263686173656064820152608401610515565b6000838152600b6020526040902060048101805460ff1916600117905560020180546001600160a01b03191633179055610ff6600880546001019055565b6110013033856115b6565b61100b30846107b2565b600954600a546040516001600160a01b039092169181156108fc0291906000818181858888f19350505050158015611047573d6000803e3d6000fd5b506040516001600160a01b038216903480156108fc02916000818181858888f1935050505015801561107d573d6000803e3d6000fd5b50505050565b61108e338383611936565b5050565b61109b81611599565b6110b75760405162461bcd60e51b8152600401610515906124e3565b336110c182610da1565b6001600160a01b0316146111115760405162461bcd60e51b815260206004820152601760248201527621b0b63632b91034b9903737ba103a34329037bbb732b960491b6044820152606401610515565b6000818152600b602052604090206004015460ff166111685760405162461bcd60e51b8152602060048201526013602482015272151bdad95b881a5cc81b9bdd081b1a5cdd1959606a1b6044820152606401610515565b6000818152600b60205260409020600401805460ff1916905561118c3033836115b6565b807f75bda7021f29b232c380d85e698be6efc8fc238a86afd357b8d609778a5a71fe30336000806040516111c39493929190612338565b60405180910390a250565b6111d833836117db565b6111f45760405162461bcd60e51b8152600401610515906123ff565b61107d84848484611a05565b6009546001600160a01b031633146112665760405162461bcd60e51b815260206004820152602360248201527f4f6e6c79206f776e65722063616e20757064617465206c697374696e6720707260448201526269636560e81b6064820152608401610515565b600a55565b60606112768261171a565b6000828152600660205260408120805461128f90612563565b80601f01602080910402602001604051908101604052809291908181526020018280546112bb90612563565b80156113085780601f106112dd57610100808354040283529160200191611308565b820191906000526020600020905b8154815290600101906020018083116112eb57829003601f168201915b50505050509050600061132660408051602081019091526000815290565b9050805160001415611339575092915050565b81511561136b578082604051602001611353929190612309565b60405160208183030381529060405292505050919050565b61137484611a38565b949350505050565b611384611edb565b600061138f60075490565b6000908152600b6020908152604091829020825160a0810184528154815260018201546001600160a01b03908116938201939093526002820154909216928201929092526003820154606082015260049091015460ff161515608082015292915050565b6060600061140060075490565b905060008167ffffffffffffffff81111561142b57634e487b7160e01b600052604160045260246000fd5b60405190808252806020026020018201604052801561146457816020015b611451611edb565b8152602001906001900390816114495790505b509050600080805b8481101561152f5761147f81600161251f565b6000818152600b6020908152604091829020825160a0810184528154815260018201546001600160a01b039081169382019390935260028201549092169282019290925260038201546060820152600482015460ff16151560808201528651929450909186908690811061150357634e487b7160e01b600052603260045260246000fd5b602090810291909101015261151960018561251f565b93505080806115279061259e565b91505061146c565b5091949350505050565b600061154460075490565b905090565b60006001600160e01b031982166380ac58cd60e01b148061157a57506001600160e01b03198216635b5e139f60e01b145b806104ea57506301ffc9a760e01b6001600160e01b03198316146104ea565b6000908152600260205260409020546001600160a01b0316151590565b826001600160a01b03166115c982610da1565b6001600160a01b0316146115ef5760405162461bcd60e51b81526004016105159061249e565b6001600160a01b0382166116515760405162461bcd60e51b8152602060048201526024808201527f4552433732313a207472616e7366657220746f20746865207a65726f206164646044820152637265737360e01b6064820152608401610515565b826001600160a01b031661166482610da1565b6001600160a01b03161461168a5760405162461bcd60e51b81526004016105159061249e565b600081815260046020908152604080832080546001600160a01b03199081169091556001600160a01b0387811680865260038552838620805460001901905590871680865283862080546001019055868652600290945282852080549092168417909155905184937fddf252ad1be2c89b69c2b068fc378daa952ba7f163c4a11628f55a4df523b3ef91a4505050565b61172381611599565b61176a5760405162461bcd60e51b8152602060048201526018602482015277115490cdcc8c4e881a5b9d985b1a59081d1bdad95b88125160421b6044820152606401610515565b50565b600081815260046020526040902080546001600160a01b0319166001600160a01b03841690811790915581906117a282610da1565b6001600160a01b03167f8c5be1e5ebec7d5bd14f71427d1e84f3dd0314c0f7b2291e5b200ac8c7c3b92560405160405180910390a45050565b6000806117e783610da1565b9050806001600160a01b0316846001600160a01b0316148061182e57506001600160a01b0380821660009081526005602090815260408083209388168352929052205460ff165b806113745750836001600160a01b03166118478461078b565b6001600160a01b031614949350505050565b61108e828260405180602001604052806000815250611aab565b61187c82611599565b6118df5760405162461bcd60e51b815260206004820152602e60248201527f45524337323155524953746f726167653a2055524920736574206f66206e6f6e60448201526d32bc34b9ba32b73a103a37b5b2b760911b6064820152608401610515565b600082815260066020908152604090912082516118fe92840190611f09565b506040518281527ff8e1a15aba9398e019f0b49df1a4fde98ee17ae345cb5f6b5e2c27f5033e8ce79060200160405180910390a15050565b816001600160a01b0316836001600160a01b031614156119985760405162461bcd60e51b815260206004820152601960248201527f4552433732313a20617070726f766520746f2063616c6c6572000000000000006044820152606401610515565b6001600160a01b03838116600081815260056020908152604080832094871680845294825291829020805460ff191686151590811790915591519182527f17307eab39ab6107e8899845ad3d59bd9653f200f220920489ca2b5937696c31910160405180910390a3505050565b611a108484846115b6565b611a1c84848484611ade565b61107d5760405162461bcd60e51b81526004016105159061244c565b6060611a438261171a565b6000611a5a60408051602081019091526000815290565b90506000815111611a7a5760405180602001604052806000815250610e9f565b80611a8484611beb565b604051602001611a95929190612309565b6040516020818303038152906040529392505050565b611ab58383611c96565b611ac26000848484611ade565b6108c35760405162461bcd60e51b81526004016105159061244c565b60006001600160a01b0384163b15611be057604051630a85bd0160e11b81526001600160a01b0385169063150b7a0290611b22903390899088908890600401612361565b602060405180830381600087803b158015611b3c57600080fd5b505af1925050508015611b6c575060408051601f3d908101601f19168201909252611b69918101906121d2565b60015b611bc6573d808015611b9a576040519150601f19603f3d011682016040523d82523d6000602084013e611b9f565b606091505b508051611bbe5760405162461bcd60e51b81526004016105159061244c565b805181602001fd5b6001600160e01b031916630a85bd0160e11b149050611374565b506001949350505050565b60606000611bf883611e03565b600101905060008167ffffffffffffffff811115611c2657634e487b7160e01b600052604160045260246000fd5b6040519080825280601f01601f191660200182016040528015611c50576020820181803683370190505b5090508181016020015b600019016f181899199a1a9b1b9c1cb0b131b232b360811b600a86061a8153600a8504945084611c8957611c8e565b611c5a565b509392505050565b6001600160a01b038216611cec5760405162461bcd60e51b815260206004820181905260248201527f4552433732313a206d696e7420746f20746865207a65726f20616464726573736044820152606401610515565b611cf581611599565b15611d425760405162461bcd60e51b815260206004820152601c60248201527f4552433732313a20746f6b656e20616c7265616479206d696e746564000000006044820152606401610515565b611d4b81611599565b15611d985760405162461bcd60e51b815260206004820152601c60248201527f4552433732313a20746f6b656e20616c7265616479206d696e746564000000006044820152606401610515565b6001600160a01b038216600081815260036020908152604080832080546001019055848352600290915280822080546001600160a01b0319168417905551839291907fddf252ad1be2c89b69c2b068fc378daa952ba7f163c4a11628f55a4df523b3ef908290a45050565b60008072184f03e93ff9f4daa797ed6e38ed64bf6a1f0160401b8310611e425772184f03e93ff9f4daa797ed6e38ed64bf6a1f0160401b830492506040015b6d04ee2d6d415b85acef81000000008310611e6e576d04ee2d6d415b85acef8100000000830492506020015b662386f26fc100008310611e8c57662386f26fc10000830492506010015b6305f5e1008310611ea4576305f5e100830492506008015b6127108310611eb857612710830492506004015b60648310611eca576064830492506002015b600a83106104ea5760010192915050565b6040805160a08101825260008082526020820181905291810182905260608101829052608081019190915290565b828054611f1590612563565b90600052602060002090601f016020900481019282611f375760008555611f7d565b82601f10611f5057805160ff1916838001178555611f7d565b82800160010185558215611f7d579182015b82811115611f7d578251825591602001919060010190611f62565b50611f89929150611f8d565b5090565b5b80821115611f895760008155600101611f8e565b600067ffffffffffffffff80841115611fbd57611fbd6125cf565b604051601f8501601f19908116603f01168101908282118183101715611fe557611fe56125cf565b81604052809350858152868686011115611ffe57600080fd5b858560208301376000602087830101525050509392505050565b80356001600160a01b038116811461202f57600080fd5b919050565b600082601f830112612044578081fd5b610e9f83833560208501611fa2565b600060208284031215612064578081fd5b610e9f82612018565b6000806040838503121561207f578081fd5b61208883612018565b915061209660208401612018565b90509250929050565b6000806000606084860312156120b3578081fd5b6120bc84612018565b92506120ca60208501612018565b9150604084013590509250925092565b600080600080608085870312156120ef578081fd5b6120f885612018565b935061210660208601612018565b925060408501359150606085013567ffffffffffffffff811115612128578182fd5b8501601f81018713612138578182fd5b61214787823560208401611fa2565b91505092959194509250565b60008060408385031215612165578182fd5b61216e83612018565b915060208301358015158114612182578182fd5b809150509250929050565b6000806040838503121561219f578182fd5b6121a883612018565b946020939093013593505050565b6000602082840312156121c7578081fd5b8135610e9f816125e5565b6000602082840312156121e3578081fd5b8151610e9f816125e5565b6000602082840312156121ff578081fd5b813567ffffffffffffffff811115612215578182fd5b61137484828501612034565b60008060408385031215612233578182fd5b823567ffffffffffffffff811115612249578283fd5b61225585828601612034565b95602094909401359450505050565b600060208284031215612275578081fd5b5035919050565b6000806040838503121561228e578182fd5b50508035926020909101359150565b600081518084526122b5816020860160208601612537565b601f01601f19169290920160200192915050565b805182526020808201516001600160a01b039081169184019190915260408083015190911690830152606080820151908301526080908101511515910152565b6000835161231b818460208801612537565b83519083019061232f818360208801612537565b01949350505050565b6001600160a01b0394851681529290931660208301526040820152901515606082015260800190565b6001600160a01b03858116825284166020820152604081018390526080606082018190526000906123949083018461229d565b9695505050505050565b6020808252825182820181905260009190848201906040850190845b818110156123e0576123cd8385516122c9565b9284019260a092909201916001016123ba565b50909695505050505050565b602081526000610e9f602083018461229d565b6020808252602d908201527f4552433732313a2063616c6c6572206973206e6f7420746f6b656e206f776e6560408201526c1c881bdc88185c1c1c9bdd9959609a1b606082015260800190565b60208082526032908201527f4552433732313a207472616e7366657220746f206e6f6e20455243373231526560408201527131b2b4bb32b91034b6b83632b6b2b73a32b960711b606082015260800190565b60208082526025908201527f4552433732313a207472616e736665722066726f6d20696e636f72726563742060408201526437bbb732b960d91b606082015260800190565b602080825260149082015273151bdad95b88191bd95cc81b9bdd08195e1a5cdd60621b604082015260600190565b60a081016104ea82846122c9565b60008219821115612532576125326125b9565b500190565b60005b8381101561255257818101518382015260200161253a565b8381111561107d5750506000910152565b600181811c9082168061257757607f821691505b6020821081141561259857634e487b7160e01b600052602260045260246000fd5b50919050565b60006000198214156125b2576125b26125b9565b5060010190565b634e487b7160e01b600052601160045260246000fd5b634e487b7160e01b600052604160045260246000fd5b6001600160e01b03198116811461176a57600080fdfea2646970667358221220eef0bc78083c81712a8c1a937f12223b4623c4f8ac3dc0924b344676703d397064736f6c63430008040033",
  "linkReferences": {},
  "deployedLinkReferences": {}
}