{
  "_format": "hh-sol-artifact-1",
  "contractName": "NFTMarketplace",
  "sourceName": "contracts/NFTMarketplace.sol",
  "abi": [
    {
      "inputs": [],
      "stateMutability": "nonpayable",
      "type": "constructor"
    },
    {
      "anonymous": false,
      "inputs": [
        {
          "indexed": true,
          "internalType": "address",
          "name": "owner",
          "type": "address"
        },
        {
          "indexed": true,
          "internalType": "address",
          "name": "approved",
          "type": "address"
        },
        {
          "indexed": true,
          "internalType": "uint256",
          "name": "tokenId",
          "type": "uint256"
        }
      ],
      "name": "Approval",
      "type": "event"
    },
    {
      "anonymous": false,
      "inputs": [
        {
          "indexed": true,
          "internalType": "address",
          "name": "owner",
          "type": "address"
        },
        {
          "indexed": true,
          "internalType": "address",
          "name": "operator",
          "type": "address"
        },
        {
          "indexed": false,
          "internalType": "bool",
          "name": "approved",
          "type": "bool"
        }
      ],
      "name": "ApprovalForAll",
      "type": "event"
    },
    {
      "anonymous": false,
      "inputs": [
        {
          "indexed": false,
          "internalType": "uint256",
          "name": "_fromTokenId",
          "type": "uint256"
        },
        {
          "indexed": false,
          "internalType": "uint256",
          "name": "_toTokenId",
          "type": "uint256"
        }
      ],
      "name": "BatchMetadataUpdate",
      "type": "event"
    },
    {
      "anonymous": false,
      "inputs": [
        {
          "indexed": false,
          "internalType": "uint256",
          "name": "_tokenId",
          "type": "uint256"
        }
      ],
      "name": "MetadataUpdate",
      "type": "event"
    },
    {
      "anonymous": false,
      "inputs": [
        {
          "indexed": true,
          "internalType": "uint256",
          "name": "tokenId",
          "type": "uint256"
        },
        {
          "indexed": false,
          "internalType": "address",
          "name": "owner",
          "type": "address"
        },
        {
          "indexed": false,
          "internalType": "address",
          "name": "seller",
          "type": "address"
        },
        {
          "indexed": false,
          "internalType": "uint256",
          "name": "price",
          "type": "uint256"
        },
        {
          "indexed": false,
          "internalType": "bool",
          "name": "currentlyListed",
          "type": "bool"
        }
      ],
      "name": "TokenListedSuccess",
      "type": "event"
    },
    {
      "anonymous": false,
      "inputs": [
        {
          "indexed": true,
          "internalType": "uint256",
          "name": "tokenId",
          "type": "uint256"
        },
        {
          "indexed": false,
          "internalType": "address",
          "name": "owner",
          "type": "address"
        },
        {
          "indexed": false,
          "internalType": "address",
          "name": "seller",
          "type": "address"
        },
        {
          "indexed": false,
          "internalType": "bool",
          "name": "currentlyListed",
          "type": "bool"
        }
      ],
      "name": "TokenMintSuccess",
      "type": "event"
    },
    {
      "anonymous": false,
      "inputs": [
        {
          "indexed": true,
          "internalType": "address",
          "name": "from",
          "type": "address"
        },
        {
          "indexed": true,
          "internalType": "address",
          "name": "to",
          "type": "address"
        },
        {
          "indexed": true,
          "internalType": "uint256",
          "name": "tokenId",
          "type": "uint256"
        }
      ],
      "name": "Transfer",
      "type": "event"
    },
    {
      "inputs": [
        {
          "internalType": "address",
          "name": "to",
          "type": "address"
        },
        {
          "internalType": "uint256",
          "name": "tokenId",
          "type": "uint256"
        }
      ],
      "name": "approve",
      "outputs": [],
      "stateMutability": "nonpayable",
      "type": "function"
    },
    {
      "inputs": [
        {
          "internalType": "address",
          "name": "owner",
          "type": "address"
        }
      ],
      "name": "balanceOf",
      "outputs": [
        {
          "internalType": "uint256",
          "name": "",
          "type": "uint256"
        }
      ],
      "stateMutability": "view",
      "type": "function"
    },
    {
      "inputs": [
        {
          "internalType": "string",
          "name": "tokenURI",
          "type": "string"
        }
      ],
      "name": "createTokenAndAcceptOnly",
      "outputs": [
        {
          "internalType": "uint256",
          "name": "",
          "type": "uint256"
        }
      ],
      "stateMutability": "payable",
      "type": "function"
    },
    {
      "inputs": [
        {
          "internalType": "string",
          "name": "tokenURI",
          "type": "string"
        },
        {
          "internalType": "uint256",
          "name": "price",
          "type": "uint256"
        }
      ],
      "name": "createTokenAndList",
      "outputs": [
        {
          "internalType": "uint256",
          "name": "",
          "type": "uint256"
        }
      ],
      "stateMutability": "payable",
      "type": "function"
    },
    {
      "inputs": [
        {
          "internalType": "uint256",
          "name": "tokenId",
          "type": "uint256"
        }
      ],
      "name": "executeSale",
      "outputs": [],
      "stateMutability": "payable",
      "type": "function"
    },
    {
      "inputs": [],
      "name": "getAllNFTs",
      "outputs": [
        {
          "components": [
            {
              "internalType": "uint256",
              "name": "tokenId",
              "type": "uint256"
            },
            {
              "internalType": "address payable",
              "name": "owner",
              "type": "address"
            },
            {
              "internalType": "address payable",
              "name": "seller",
              "type": "address"
            },
            {
              "internalType": "uint256",
              "name": "price",
              "type": "uint256"
            },
            {
              "internalType": "bool",
              "name": "currentlyListed",
              "type": "bool"
            }
          ],
          "internalType": "struct NFTMarketplace.ListedToken[]",
          "name": "",
          "type": "tuple[]"
        }
      ],
      "stateMutability": "view",
      "type": "function"
    },
    {
      "inputs": [
        {
          "internalType": "uint256",
          "name": "tokenId",
          "type": "uint256"
        }
      ],
      "name": "getApproved",
      "outputs": [
        {
          "internalType": "address",
          "name": "",
          "type": "address"
        }
      ],
      "stateMutability": "view",
      "type": "function"
    },
    {
      "inputs": [],
      "name": "getCurrentToken",
      "outputs": [
        {
          "internalType": "uint256",
          "name": "",
          "type": "uint256"
        }
      ],
      "stateMutability": "view",
      "type": "function"
    },
    {
      "inputs": [],
      "name": "getLatestIdToListedToken",
      "outputs": [
        {
          "components": [
            {
              "internalType": "uint256",
              "name": "tokenId",
              "type": "uint256"
            },
            {
              "internalType": "address payable",
              "name": "owner",
              "type": "address"
            },
            {
              "internalType": "address payable",
              "name": "seller",
              "type": "address"
            },
            {
              "internalType": "uint256",
              "name": "price",
              "type": "uint256"
            },
            {
              "internalType": "bool",
              "name": "currentlyListed",
              "type": "bool"
            }
          ],
          "internalType": "struct NFTMarketplace.ListedToken",
          "name": "",
          "type": "tuple"
        }
      ],
      "stateMutability": "view",
      "type": "function"
    },
    {
      "inputs": [],
      "name": "getListPrice",
      "outputs": [
        {
          "internalType": "uint256",
          "name": "",
          "type": "uint256"
        }
      ],
      "stateMutability": "view",
      "type": "function"
    },
    {
      "inputs": [
        {
          "internalType": "uint256",
          "name": "tokenId",
          "type": "uint256"
        }
      ],
      "name": "getListedTokenForId",
      "outputs": [
        {
          "components": [
            {
              "internalType": "uint256",
              "name": "tokenId",
              "type": "uint256"
            },
            {
              "internalType": "address payable",
              "name": "owner",
              "type": "address"
            },
            {
              "internalType": "address payable",
              "name": "seller",
              "type": "address"
            },
            {
              "internalType": "uint256",
              "name": "price",
              "type": "uint256"
            },
            {
              "internalType": "bool",
              "name": "currentlyListed",
              "type": "bool"
            }
          ],
          "internalType": "struct NFTMarketplace.ListedToken",
          "name": "",
          "type": "tuple"
        }
      ],
      "stateMutability": "view",
      "type": "function"
    },
    {
      "inputs": [],
      "name": "getMyNFTs",
      "outputs": [
        {
          "components": [
            {
              "internalType": "uint256",
              "name": "tokenId",
              "type": "uint256"
            },
            {
              "internalType": "address payable",
              "name": "owner",
              "type": "address"
            },
            {
              "internalType": "address payable",
              "name": "seller",
              "type": "address"
            },
            {
              "internalType": "uint256",
              "name": "price",
              "type": "uint256"
            },
            {
              "internalType": "bool",
              "name": "currentlyListed",
              "type": "bool"
            }
          ],
          "internalType": "struct NFTMarketplace.ListedToken[]",
          "name": "",
          "type": "tuple[]"
        }
      ],
      "stateMutability": "view",
      "type": "function"
    },
    {
      "inputs": [
        {
          "internalType": "address",
          "name": "owner",
          "type": "address"
        },
        {
          "internalType": "address",
          "name": "operator",
          "type": "address"
        }
      ],
      "name": "isApprovedForAll",
      "outputs": [
        {
          "internalType": "bool",
          "name": "",
          "type": "bool"
        }
      ],
      "stateMutability": "view",
      "type": "function"
    },
    {
      "inputs": [
        {
          "internalType": "uint256",
          "name": "tokenId",
          "type": "uint256"
        },
        {
          "internalType": "uint256",
          "name": "price",
          "type": "uint256"
        }
      ],
      "name": "listTokenOnMarketplace",
      "outputs": [],
      "stateMutability": "payable",
      "type": "function"
    },
    {
      "inputs": [],
      "name": "name",
      "outputs": [
        {
          "internalType": "string",
          "name": "",
          "type": "string"
        }
      ],
      "stateMutability": "view",
      "type": "function"
    },
    {
      "inputs": [
        {
          "internalType": "uint256",
          "name": "tokenId",
          "type": "uint256"
        }
      ],
      "name": "ownerOf",
      "outputs": [
        {
          "internalType": "address",
          "name": "",
          "type": "address"
        }
      ],
      "stateMutability": "view",
      "type": "function"
    },
    {
      "inputs": [
        {
          "internalType": "address",
          "name": "from",
          "type": "address"
        },
        {
          "internalType": "address",
          "name": "to",
          "type": "address"
        },
        {
          "internalType": "uint256",
          "name": "tokenId",
          "type": "uint256"
        }
      ],
      "name": "safeTransferFrom",
      "outputs": [],
      "stateMutability": "nonpayable",
      "type": "function"
    },
    {
      "inputs": [
        {
          "internalType": "address",
          "name": "from",
          "type": "address"
        },
        {
          "internalType": "address",
          "name": "to",
          "type": "address"
        },
        {
          "internalType": "uint256",
          "name": "tokenId",
          "type": "uint256"
        },
        {
          "internalType": "bytes",
          "name": "data",
          "type": "bytes"
        }
      ],
      "name": "safeTransferFrom",
      "outputs": [],
      "stateMutability": "nonpayable",
      "type": "function"
    },
    {
      "inputs": [
        {
          "internalType": "address",
          "name": "operator",
          "type": "address"
        },
        {
          "internalType": "bool",
          "name": "approved",
          "type": "bool"
        }
      ],
      "name": "setApprovalForAll",
      "outputs": [],
      "stateMutability": "nonpayable",
      "type": "function"
    },
    {
      "inputs": [
        {
          "internalType": "bytes4",
          "name": "interfaceId",
          "type": "bytes4"
        }
      ],
      "name": "supportsInterface",
      "outputs": [
        {
          "internalType": "bool",
          "name": "",
          "type": "bool"
        }
      ],
      "stateMutability": "view",
      "type": "function"
    },
    {
      "inputs": [],
      "name": "symbol",
      "outputs": [
        {
          "internalType": "string",
          "name": "",
          "type": "string"
        }
      ],
      "stateMutability": "view",
      "type": "function"
    },
    {
      "inputs": [
        {
          "internalType": "uint256",
          "name": "tokenId",
          "type": "uint256"
        }
      ],
      "name": "tokenURI",
      "outputs": [
        {
          "internalType": "string",
          "name": "",
          "type": "string"
        }
      ],
      "stateMutability": "view",
      "type": "function"
    },
    {
      "inputs": [
        {
          "internalType": "address",
          "name": "from",
          "type": "address"
        },
        {
          "internalType": "address",
          "name": "to",
          "type": "address"
        },
        {
          "internalType": "uint256",
          "name": "tokenId",
          "type": "uint256"
        }
      ],
      "name": "transferFrom",
      "outputs": [],
      "stateMutability": "nonpayable",
      "type": "function"
    },
    {
      "inputs": [
        {
          "internalType": "uint256",
          "name": "_listPrice",
          "type": "uint256"
        }
      ],
      "name": "updateListPrice",
      "outputs": [],
      "stateMutability": "payable",
      "type": "function"
    },
    {
      "inputs": [
        {
          "internalType": "uint256",
          "name": "tokenId",
          "type": "uint256"
        },
        {
          "internalType": "uint256",
          "name": "newPrice",
          "type": "uint256"
        }
      ],
      "name": "updateSellingPrice",
      "outputs": [],
      "stateMutability": "nonpayable",
      "type": "function"
    }
  ],
  "bytecode": "0x6080604052662386f26fc10000600a553480156200001c57600080fd5b50604080518082018252600e81526d4e46544d61726b6574706c61636560901b6020808301918252835180850190945260048452634e46544d60e01b9084015281519192916200006f91600091620000a0565b50805162000085906001906020840190620000a0565b5050600980546001600160a01b031916331790555062000183565b828054620000ae9062000146565b90600052602060002090601f016020900481019282620000d257600085556200011d565b82601f10620000ed57805160ff19168380011785556200011d565b828001600101855582156200011d579182015b828111156200011d57825182559160200191906001019062000100565b506200012b9291506200012f565b5090565b5b808211156200012b576000815560010162000130565b600181811c908216806200015b57607f821691505b602082108114156200017d57634e487b7160e01b600052602260045260246000fd5b50919050565b6125c880620001936000396000f3fe6080604052600436106101665760003560e01c806370a08231116100d1578063b88d4fde1161008a578063d1a88ae511610064578063d1a88ae5146103fe578063e0391b0914610413578063e985e9c514610428578063ef2d17461461047157600080fd5b8063b88d4fde146103ab578063c322579c146103cb578063c87b56dd146103de57600080fd5b806370a08231146103035780638d91f62e146103235780638e2645901461033657806395d89b41146103635780639b1225c414610378578063a22cb4651461038b57600080fd5b806342842e0e1161012357806342842e0e1461024f578063571a2b6f1461026f578063629cb2e41461028f5780636352211e146102b157806368f1945f146102d15780636b6d4f24146102f057600080fd5b806301ffc9a71461016b57806302b75eda146101a057806306fdde03146101b5578063081812fc146101d7578063095ea7b31461020f57806323b872dd1461022f575b600080fd5b34801561017757600080fd5b5061018b610186366004612161565b610486565b60405190151581526020015b60405180910390f35b6101b36101ae366004612227565b6104b1565b005b3480156101c157600080fd5b506101ca6106ed565b604051610197919061236e565b3480156101e357600080fd5b506101f76101f236600461220f565b61077f565b6040516001600160a01b039091168152602001610197565b34801561021b57600080fd5b506101b361022a366004612138565b6107a6565b34801561023b57600080fd5b506101b361024a36600461204a565b6108bc565b34801561025b57600080fd5b506101b361026a36600461204a565b6108ed565b34801561027b57600080fd5b506101b361028a366004612227565b610908565b34801561029b57600080fd5b506102a4610a79565b6040516101979190612320565b3480156102bd57600080fd5b506101f76102cc36600461220f565b610cbc565b3480156102dd57600080fd5b50600a545b604051908152602001610197565b6102e26102fe366004612199565b610d1c565b34801561030f57600080fd5b506102e261031e366004611ffe565b610d56565b6102e26103313660046121cc565b610ddc565b34801561034257600080fd5b5061035661035136600461220f565b610e1e565b60405161019791906124a8565b34801561036f57600080fd5b506101ca610e88565b6101b361038636600461220f565b610e97565b34801561039757600080fd5b506101b36103a63660046120fe565b610ffb565b3480156103b757600080fd5b506101b36103c6366004612085565b61100a565b6101b36103d936600461220f565b61103c565b3480156103ea57600080fd5b506101ca6103f936600461220f565b6110a7565b34801561040a57600080fd5b506103566111b8565b34801561041f57600080fd5b506102a461122f565b34801561043457600080fd5b5061018b610443366004612018565b6001600160a01b03918216600090815260056020908152604080832093909416825291909152205460ff1690565b34801561047d57600080fd5b506102e2611375565b60006001600160e01b03198216632483248360e11b14806104ab57506104ab82611385565b92915050565b6104ba826113d5565b6105025760405162461bcd60e51b8152602060048201526014602482015273151bdad95b88191bd95cc81b9bdd08195e1a5cdd60621b60448201526064015b60405180910390fd5b3361050c83610cbc565b6001600160a01b0316146105625760405162461bcd60e51b815260206004820152601760248201527f43616c6c6572206973206e6f7420746865206f776e657200000000000000000060448201526064016104f9565b600a5434146105b35760405162461bcd60e51b815260206004820152601a60248201527f4d7573742070617920746865206c697374696e6720707269636500000000000060448201526064016104f9565b600081116106035760405162461bcd60e51b815260206004820152601f60248201527f5072696365206d7573742062652067726561746572207468616e207a65726f0060448201526064016104f9565b6040805160a081018252838152306020808301828152338486018181526060860188815260016080880181815260008c8152600b9097529890952096518755925193860180546001600160a01b039586166001600160a01b03199182161790915590516002870180549190951691161790925551600384015592516004909201805492151560ff19909316929092179091556106a09190846113f2565b604080513081523360208201529081018290526001606082015282907f9339409317fd01fabff48b703019016f49159bacc801ae872d2ca637d226e4c09060800160405180910390a25050565b6060600080546106fc906124fa565b80601f0160208091040260200160405190810160405280929190818152602001828054610728906124fa565b80156107755780601f1061074a57610100808354040283529160200191610775565b820191906000526020600020905b81548152906001019060200180831161075857829003601f168201915b5050505050905090565b600061078a82611556565b506000908152600460205260409020546001600160a01b031690565b60006107b182610cbc565b9050806001600160a01b0316836001600160a01b0316141561081f5760405162461bcd60e51b815260206004820152602160248201527f4552433732313a20617070726f76616c20746f2063757272656e74206f776e656044820152603960f91b60648201526084016104f9565b336001600160a01b038216148061083b575061083b8133610443565b6108ad5760405162461bcd60e51b815260206004820152603d60248201527f4552433732313a20617070726f76652063616c6c6572206973206e6f7420746f60448201527f6b656e206f776e6572206f7220617070726f76656420666f7220616c6c00000060648201526084016104f9565b6108b783836115a9565b505050565b6108c63382611617565b6108e25760405162461bcd60e51b81526004016104f990612381565b6108b78383836113f2565b6108b78383836040518060200160405280600081525061100a565b610911826113d5565b6109545760405162461bcd60e51b8152602060048201526014602482015273151bdad95b88191bd95cc81b9bdd08195e1a5cdd60621b60448201526064016104f9565b6000828152600b602052604090206004015460ff166109ab5760405162461bcd60e51b8152602060048201526013602482015272151bdad95b881a5cc81b9bdd081b1a5cdd1959606a1b60448201526064016104f9565b6000828152600b60205260409020600201546001600160a01b03163314610a145760405162461bcd60e51b815260206004820152601860248201527f43616c6c6572206973206e6f74207468652073656c6c6572000000000000000060448201526064016104f9565b60008111610a645760405162461bcd60e51b815260206004820152601f60248201527f5072696365206d7573742062652067726561746572207468616e207a65726f0060448201526064016104f9565b6000918252600b602052604090912060030155565b60606000610a8660075490565b905060008080805b84811015610b1e5733600b6000610aa68460016124b6565b81526020810191909152604001600020600101546001600160a01b03161480610af9575033600b6000610ada8460016124b6565b81526020810191909152604001600020600201546001600160a01b0316145b15610b0c57610b096001856124b6565b93505b80610b1681612535565b915050610a8e565b5060008367ffffffffffffffff811115610b4857634e487b7160e01b600052604160045260246000fd5b604051908082528060200260200182016040528015610b8157816020015b610b6e611e86565b815260200190600190039081610b665790505b50905060005b85811015610cb25733600b6000610b9f8460016124b6565b81526020810191909152604001600020600101546001600160a01b03161480610bf2575033600b6000610bd38460016124b6565b81526020810191909152604001600020600201546001600160a01b0316145b15610ca057610c028160016124b6565b6000818152600b6020908152604091829020825160a0810184528154815260018201546001600160a01b039081169382019390935260028201549092169282019290925260038201546060820152600482015460ff161515608082015284519295509091849087908110610c8657634e487b7160e01b600052603260045260246000fd5b6020908102919091010152610c9c6001866124b6565b9450505b80610caa81612535565b915050610b87565b5095945050505050565b6000818152600260205260408120546001600160a01b0316806104ab5760405162461bcd60e51b8152602060048201526018602482015277115490cdcc8c4e881a5b9d985b1a59081d1bdad95b88125160421b60448201526064016104f9565b6000610d2c600780546001019055565b6000610d3760075490565b9050610d433382611695565b610d4d81846116af565b6104ab81611772565b60006001600160a01b038216610dc05760405162461bcd60e51b815260206004820152602960248201527f4552433732313a2061646472657373207a65726f206973206e6f7420612076616044820152683634b21037bbb732b960b91b60648201526084016104f9565b506001600160a01b031660009081526003602052604090205490565b6000610dec600780546001019055565b6000610df760075490565b9050610e033382611695565b610e0d81856116af565b610e178184611865565b9392505050565b610e26611e86565b506000908152600b6020908152604091829020825160a0810184528154815260018201546001600160a01b03908116938201939093526002820154909216928201929092526003820154606082015260049091015460ff161515608082015290565b6060600180546106fc906124fa565b6000818152600b6020526040902060038101546002909101546001600160a01b0316348214610f30576040805162461bcd60e51b81526020600482015260248101919091527f506c65617365207375626d6974207468652061736b696e67207072696365206960448201527f6e206f7264657220746f20636f6d706c6574652074686520707572636861736560648201526084016104f9565b6000838152600b6020526040902060048101805460ff1916600117905560020180546001600160a01b03191633179055610f6e600880546001019055565b610f793033856113f2565b610f8330846107a6565b600954600a546040516001600160a01b039092169181156108fc0291906000818181858888f19350505050158015610fbf573d6000803e3d6000fd5b506040516001600160a01b038216903480156108fc02916000818181858888f19350505050158015610ff5573d6000803e3d6000fd5b50505050565b6110063383836118e1565b5050565b6110143383611617565b6110305760405162461bcd60e51b81526004016104f990612381565b610ff5848484846119b0565b6009546001600160a01b031633146110a25760405162461bcd60e51b815260206004820152602360248201527f4f6e6c79206f776e65722063616e20757064617465206c697374696e6720707260448201526269636560e81b60648201526084016104f9565b600a55565b60606110b282611556565b600082815260066020526040812080546110cb906124fa565b80601f01602080910402602001604051908101604052809291908181526020018280546110f7906124fa565b80156111445780601f1061111957610100808354040283529160200191611144565b820191906000526020600020905b81548152906001019060200180831161112757829003601f168201915b50505050509050600061116260408051602081019091526000815290565b9050805160001415611175575092915050565b8151156111a757808260405160200161118f9291906122b4565b60405160208183030381529060405292505050919050565b6111b0846119e3565b949350505050565b6111c0611e86565b60006111cb60075490565b6000908152600b6020908152604091829020825160a0810184528154815260018201546001600160a01b03908116938201939093526002820154909216928201929092526003820154606082015260049091015460ff161515608082015292915050565b6060600061123c60075490565b905060008167ffffffffffffffff81111561126757634e487b7160e01b600052604160045260246000fd5b6040519080825280602002602001820160405280156112a057816020015b61128d611e86565b8152602001906001900390816112855790505b509050600080805b8481101561136b576112bb8160016124b6565b6000818152600b6020908152604091829020825160a0810184528154815260018201546001600160a01b039081169382019390935260028201549092169282019290925260038201546060820152600482015460ff16151560808201528651929450909186908690811061133f57634e487b7160e01b600052603260045260246000fd5b60209081029190910101526113556001856124b6565b935050808061136390612535565b9150506112a8565b5091949350505050565b600061138060075490565b905090565b60006001600160e01b031982166380ac58cd60e01b14806113b657506001600160e01b03198216635b5e139f60e01b145b806104ab57506301ffc9a760e01b6001600160e01b03198316146104ab565b6000908152600260205260409020546001600160a01b0316151590565b826001600160a01b031661140582610cbc565b6001600160a01b03161461142b5760405162461bcd60e51b81526004016104f990612420565b6001600160a01b03821661148d5760405162461bcd60e51b8152602060048201526024808201527f4552433732313a207472616e7366657220746f20746865207a65726f206164646044820152637265737360e01b60648201526084016104f9565b826001600160a01b03166114a082610cbc565b6001600160a01b0316146114c65760405162461bcd60e51b81526004016104f990612420565b600081815260046020908152604080832080546001600160a01b03199081169091556001600160a01b0387811680865260038552838620805460001901905590871680865283862080546001019055868652600290945282852080549092168417909155905184937fddf252ad1be2c89b69c2b068fc378daa952ba7f163c4a11628f55a4df523b3ef91a4505050565b61155f816113d5565b6115a65760405162461bcd60e51b8152602060048201526018602482015277115490cdcc8c4e881a5b9d985b1a59081d1bdad95b88125160421b60448201526064016104f9565b50565b600081815260046020526040902080546001600160a01b0319166001600160a01b03841690811790915581906115de82610cbc565b6001600160a01b03167f8c5be1e5ebec7d5bd14f71427d1e84f3dd0314c0f7b2291e5b200ac8c7c3b92560405160405180910390a45050565b60008061162383610cbc565b9050806001600160a01b0316846001600160a01b0316148061166a57506001600160a01b0380821660009081526005602090815260408083209388168352929052205460ff165b806111b05750836001600160a01b03166116838461077f565b6001600160a01b031614949350505050565b611006828260405180602001604052806000815250611a56565b6116b8826113d5565b61171b5760405162461bcd60e51b815260206004820152602e60248201527f45524337323155524953746f726167653a2055524920736574206f66206e6f6e60448201526d32bc34b9ba32b73a103a37b5b2b760911b60648201526084016104f9565b6000828152600660209081526040909120825161173a92840190611eb4565b506040518281527ff8e1a15aba9398e019f0b49df1a4fde98ee17ae345cb5f6b5e2c27f5033e8ce79060200160405180910390a15050565b600a5434146117935760405162461bcd60e51b81526004016104f990612465565b6040805160a0810182528281523060208083018281523384860181815260006060808801828152600160808a018181528c8552600b8952938b902099518a55955189870180546001600160a01b03199081166001600160a01b0393841617909155945160028b01805490961691161790935591516003880155516004909601805460ff1916961515969096179095558551938452918301919091529281019290925282917f758766a88b49c8240ef9d3ecfc6bed8ddf2379b509620dfff85ac05defa6869d910160405180910390a250565b600a5434146118865760405162461bcd60e51b81526004016104f990612465565b600081116106035760405162461bcd60e51b815260206004820152602260248201527f4d616b652073757265207468652070726963652069736e2774206e6567617469604482015261766560f01b60648201526084016104f9565b816001600160a01b0316836001600160a01b031614156119435760405162461bcd60e51b815260206004820152601960248201527f4552433732313a20617070726f766520746f2063616c6c65720000000000000060448201526064016104f9565b6001600160a01b03838116600081815260056020908152604080832094871680845294825291829020805460ff191686151590811790915591519182527f17307eab39ab6107e8899845ad3d59bd9653f200f220920489ca2b5937696c31910160405180910390a3505050565b6119bb8484846113f2565b6119c784848484611a89565b610ff55760405162461bcd60e51b81526004016104f9906123ce565b60606119ee82611556565b6000611a0560408051602081019091526000815290565b90506000815111611a255760405180602001604052806000815250610e17565b80611a2f84611b96565b604051602001611a409291906122b4565b6040516020818303038152906040529392505050565b611a608383611c41565b611a6d6000848484611a89565b6108b75760405162461bcd60e51b81526004016104f9906123ce565b60006001600160a01b0384163b15611b8b57604051630a85bd0160e11b81526001600160a01b0385169063150b7a0290611acd9033908990889088906004016122e3565b602060405180830381600087803b158015611ae757600080fd5b505af1925050508015611b17575060408051601f3d908101601f19168201909252611b149181019061217d565b60015b611b71573d808015611b45576040519150601f19603f3d011682016040523d82523d6000602084013e611b4a565b606091505b508051611b695760405162461bcd60e51b81526004016104f9906123ce565b805181602001fd5b6001600160e01b031916630a85bd0160e11b1490506111b0565b506001949350505050565b60606000611ba383611dae565b600101905060008167ffffffffffffffff811115611bd157634e487b7160e01b600052604160045260246000fd5b6040519080825280601f01601f191660200182016040528015611bfb576020820181803683370190505b5090508181016020015b600019016f181899199a1a9b1b9c1cb0b131b232b360811b600a86061a8153600a8504945084611c3457611c39565b611c05565b509392505050565b6001600160a01b038216611c975760405162461bcd60e51b815260206004820181905260248201527f4552433732313a206d696e7420746f20746865207a65726f206164647265737360448201526064016104f9565b611ca0816113d5565b15611ced5760405162461bcd60e51b815260206004820152601c60248201527f4552433732313a20746f6b656e20616c7265616479206d696e7465640000000060448201526064016104f9565b611cf6816113d5565b15611d435760405162461bcd60e51b815260206004820152601c60248201527f4552433732313a20746f6b656e20616c7265616479206d696e7465640000000060448201526064016104f9565b6001600160a01b038216600081815260036020908152604080832080546001019055848352600290915280822080546001600160a01b0319168417905551839291907fddf252ad1be2c89b69c2b068fc378daa952ba7f163c4a11628f55a4df523b3ef908290a45050565b60008072184f03e93ff9f4daa797ed6e38ed64bf6a1f0160401b8310611ded5772184f03e93ff9f4daa797ed6e38ed64bf6a1f0160401b830492506040015b6d04ee2d6d415b85acef81000000008310611e19576d04ee2d6d415b85acef8100000000830492506020015b662386f26fc100008310611e3757662386f26fc10000830492506010015b6305f5e1008310611e4f576305f5e100830492506008015b6127108310611e6357612710830492506004015b60648310611e75576064830492506002015b600a83106104ab5760010192915050565b6040805160a08101825260008082526020820181905291810182905260608101829052608081019190915290565b828054611ec0906124fa565b90600052602060002090601f016020900481019282611ee25760008555611f28565b82601f10611efb57805160ff1916838001178555611f28565b82800160010185558215611f28579182015b82811115611f28578251825591602001919060010190611f0d565b50611f34929150611f38565b5090565b5b80821115611f345760008155600101611f39565b600067ffffffffffffffff80841115611f6857611f68612566565b604051601f8501601f19908116603f01168101908282118183101715611f9057611f90612566565b81604052809350858152868686011115611fa957600080fd5b858560208301376000602087830101525050509392505050565b80356001600160a01b0381168114611fda57600080fd5b919050565b600082601f830112611fef578081fd5b610e1783833560208501611f4d565b60006020828403121561200f578081fd5b610e1782611fc3565b6000806040838503121561202a578081fd5b61203383611fc3565b915061204160208401611fc3565b90509250929050565b60008060006060848603121561205e578081fd5b61206784611fc3565b925061207560208501611fc3565b9150604084013590509250925092565b6000806000806080858703121561209a578081fd5b6120a385611fc3565b93506120b160208601611fc3565b925060408501359150606085013567ffffffffffffffff8111156120d3578182fd5b8501601f810187136120e3578182fd5b6120f287823560208401611f4d565b91505092959194509250565b60008060408385031215612110578182fd5b61211983611fc3565b91506020830135801515811461212d578182fd5b809150509250929050565b6000806040838503121561214a578182fd5b61215383611fc3565b946020939093013593505050565b600060208284031215612172578081fd5b8135610e178161257c565b60006020828403121561218e578081fd5b8151610e178161257c565b6000602082840312156121aa578081fd5b813567ffffffffffffffff8111156121c0578182fd5b6111b084828501611fdf565b600080604083850312156121de578182fd5b823567ffffffffffffffff8111156121f4578283fd5b61220085828601611fdf565b95602094909401359450505050565b600060208284031215612220578081fd5b5035919050565b60008060408385031215612239578182fd5b50508035926020909101359150565b600081518084526122608160208601602086016124ce565b601f01601f19169290920160200192915050565b805182526020808201516001600160a01b039081169184019190915260408083015190911690830152606080820151908301526080908101511515910152565b600083516122c68184602088016124ce565b8351908301906122da8183602088016124ce565b01949350505050565b6001600160a01b038581168252841660208201526040810183905260806060820181905260009061231690830184612248565b9695505050505050565b6020808252825182820181905260009190848201906040850190845b818110156123625761234f838551612274565b9284019260a0929092019160010161233c565b50909695505050505050565b602081526000610e176020830184612248565b6020808252602d908201527f4552433732313a2063616c6c6572206973206e6f7420746f6b656e206f776e6560408201526c1c881bdc88185c1c1c9bdd9959609a1b606082015260800190565b60208082526032908201527f4552433732313a207472616e7366657220746f206e6f6e20455243373231526560408201527131b2b4bb32b91034b6b83632b6b2b73a32b960711b606082015260800190565b60208082526025908201527f4552433732313a207472616e736665722066726f6d20696e636f72726563742060408201526437bbb732b960d91b606082015260800190565b60208082526023908201527f486f706566756c6c792073656e64696e672074686520636f727265637420707260408201526269636560e81b606082015260800190565b60a081016104ab8284612274565b600082198211156124c9576124c9612550565b500190565b60005b838110156124e95781810151838201526020016124d1565b83811115610ff55750506000910152565b600181811c9082168061250e57607f821691505b6020821081141561252f57634e487b7160e01b600052602260045260246000fd5b50919050565b600060001982141561254957612549612550565b5060010190565b634e487b7160e01b600052601160045260246000fd5b634e487b7160e01b600052604160045260246000fd5b6001600160e01b0319811681146115a657600080fdfea2646970667358221220cee6a8a772b5e439864dce3e87f3d553420f651a33f3c604bbc228a043f21b2064736f6c63430008040033",
  "linkReferences": {},
  "deployedLinkReferences": {}
}